{
  "contractName": "MagicRoom",
  "abi": [
    {
      "inputs": [
        {
          "internalType": "address",
          "name": "_tokenAddress",
          "type": "address"
        }
      ],
      "stateMutability": "nonpayable",
      "type": "constructor"
    },
    {
      "anonymous": false,
      "inputs": [
        {
          "indexed": false,
          "internalType": "uint256",
          "name": "timestamp",
          "type": "uint256"
        },
        {
          "indexed": true,
          "internalType": "uint256",
          "name": "roomId",
          "type": "uint256"
        },
        {
          "indexed": false,
          "internalType": "uint256",
          "name": "step",
          "type": "uint256"
        },
        {
          "components": [
            {
              "components": [
                {
                  "internalType": "address",
                  "name": "account",
                  "type": "address"
                },
                {
                  "internalType": "string",
                  "name": "name",
                  "type": "string"
                }
              ],
              "internalType": "struct MagicRoom.Member",
              "name": "enter",
              "type": "tuple"
            },
            {
              "components": [
                {
                  "internalType": "address",
                  "name": "account",
                  "type": "address"
                },
                {
                  "internalType": "string",
                  "name": "name",
                  "type": "string"
                }
              ],
              "internalType": "struct MagicRoom.Member",
              "name": "leave",
              "type": "tuple"
            },
            {
              "internalType": "uint256",
              "name": "index",
              "type": "uint256"
            }
          ],
          "indexed": false,
          "internalType": "struct MagicRoom.ChairChangesInfo",
          "name": "chairChanges",
          "type": "tuple"
        },
        {
          "components": [
            {
              "internalType": "uint256",
              "name": "id",
              "type": "uint256"
            },
            {
              "internalType": "uint256",
              "name": "price",
              "type": "uint256"
            },
            {
              "internalType": "uint256",
              "name": "bank",
              "type": "uint256"
            },
            {
              "internalType": "uint256",
              "name": "steps",
              "type": "uint256"
            },
            {
              "internalType": "uint256",
              "name": "step",
              "type": "uint256"
            },
            {
              "internalType": "bool",
              "name": "active",
              "type": "bool"
            },
            {
              "internalType": "uint256",
              "name": "lastActionTime",
              "type": "uint256"
            },
            {
              "internalType": "address[]",
              "name": "chairs",
              "type": "address[]"
            },
            {
              "internalType": "string[]",
              "name": "names",
              "type": "string[]"
            }
          ],
          "indexed": false,
          "internalType": "struct MagicRoom.Room",
          "name": "room",
          "type": "tuple"
        }
      ],
      "name": "ChangeChair",
      "type": "event"
    },
    {
      "anonymous": false,
      "inputs": [
        {
          "indexed": false,
          "internalType": "uint256",
          "name": "timestamp",
          "type": "uint256"
        },
        {
          "indexed": true,
          "internalType": "uint256",
          "name": "roomId",
          "type": "uint256"
        },
        {
          "components": [
            {
              "internalType": "uint256",
              "name": "id",
              "type": "uint256"
            },
            {
              "internalType": "uint256",
              "name": "price",
              "type": "uint256"
            },
            {
              "internalType": "uint256",
              "name": "bank",
              "type": "uint256"
            },
            {
              "internalType": "uint256",
              "name": "steps",
              "type": "uint256"
            },
            {
              "internalType": "uint256",
              "name": "step",
              "type": "uint256"
            },
            {
              "internalType": "bool",
              "name": "active",
              "type": "bool"
            },
            {
              "internalType": "uint256",
              "name": "lastActionTime",
              "type": "uint256"
            },
            {
              "internalType": "address[]",
              "name": "chairs",
              "type": "address[]"
            },
            {
              "internalType": "string[]",
              "name": "names",
              "type": "string[]"
            }
          ],
          "indexed": false,
          "internalType": "struct MagicRoom.Room",
          "name": "room",
          "type": "tuple"
        }
      ],
      "name": "FinishRoom",
      "type": "event"
    },
    {
      "anonymous": false,
      "inputs": [
        {
          "indexed": true,
          "internalType": "address",
          "name": "previousOwner",
          "type": "address"
        },
        {
          "indexed": true,
          "internalType": "address",
          "name": "newOwner",
          "type": "address"
        }
      ],
      "name": "OwnershipTransferred",
      "type": "event"
    },
    {
      "anonymous": false,
      "inputs": [
        {
          "indexed": false,
          "internalType": "uint256",
          "name": "timestamp",
          "type": "uint256"
        },
        {
          "indexed": true,
          "internalType": "uint256",
          "name": "roomId",
          "type": "uint256"
        },
        {
          "indexed": false,
          "internalType": "uint256",
          "name": "step",
          "type": "uint256"
        },
        {
          "components": [
            {
              "components": [
                {
                  "internalType": "address",
                  "name": "account",
                  "type": "address"
                },
                {
                  "internalType": "string",
                  "name": "name",
                  "type": "string"
                }
              ],
              "internalType": "struct MagicRoom.Member",
              "name": "member",
              "type": "tuple"
            },
            {
              "internalType": "uint256",
              "name": "index",
              "type": "uint256"
            },
            {
              "internalType": "uint256",
              "name": "value",
              "type": "uint256"
            }
          ],
          "indexed": false,
          "internalType": "struct MagicRoom.RewardInfo",
          "name": "reward",
          "type": "tuple"
        }
      ],
      "name": "Reward",
      "type": "event"
    },
    {
      "anonymous": false,
      "inputs": [
        {
          "indexed": false,
          "internalType": "uint256",
          "name": "timestamp",
          "type": "uint256"
        },
        {
          "indexed": true,
          "internalType": "uint256",
          "name": "roomId",
          "type": "uint256"
        },
        {
          "components": [
            {
              "internalType": "uint256",
              "name": "id",
              "type": "uint256"
            },
            {
              "internalType": "uint256",
              "name": "price",
              "type": "uint256"
            },
            {
              "internalType": "uint256",
              "name": "bank",
              "type": "uint256"
            },
            {
              "internalType": "uint256",
              "name": "steps",
              "type": "uint256"
            },
            {
              "internalType": "uint256",
              "name": "step",
              "type": "uint256"
            },
            {
              "internalType": "bool",
              "name": "active",
              "type": "bool"
            },
            {
              "internalType": "uint256",
              "name": "lastActionTime",
              "type": "uint256"
            },
            {
              "internalType": "address[]",
              "name": "chairs",
              "type": "address[]"
            },
            {
              "internalType": "string[]",
              "name": "names",
              "type": "string[]"
            }
          ],
          "indexed": false,
          "internalType": "struct MagicRoom.Room",
          "name": "room",
          "type": "tuple"
        }
      ],
      "name": "StartRoom",
      "type": "event"
    },
    {
      "anonymous": false,
      "inputs": [
        {
          "indexed": false,
          "internalType": "uint256",
          "name": "timestamp",
          "type": "uint256"
        },
        {
          "indexed": true,
          "internalType": "uint256",
          "name": "roomId",
          "type": "uint256"
        },
        {
          "indexed": false,
          "internalType": "uint256",
          "name": "step",
          "type": "uint256"
        },
        {
          "components": [
            {
              "components": [
                {
                  "internalType": "address",
                  "name": "account",
                  "type": "address"
                },
                {
                  "internalType": "string",
                  "name": "name",
                  "type": "string"
                }
              ],
              "internalType": "struct MagicRoom.Member",
              "name": "member",
              "type": "tuple"
            },
            {
              "internalType": "uint256",
              "name": "index",
              "type": "uint256"
            },
            {
              "internalType": "uint256",
              "name": "value",
              "type": "uint256"
            }
          ],
          "indexed": false,
          "internalType": "struct MagicRoom.RewardInfo",
          "name": "reward",
          "type": "tuple"
        }
      ],
      "name": "Vip",
      "type": "event"
    },
    {
      "anonymous": false,
      "inputs": [
        {
          "indexed": false,
          "internalType": "uint256",
          "name": "timestamp",
          "type": "uint256"
        },
        {
          "indexed": true,
          "internalType": "uint256",
          "name": "roomId",
          "type": "uint256"
        },
        {
          "indexed": false,
          "internalType": "uint256",
          "name": "step",
          "type": "uint256"
        },
        {
          "components": [
            {
              "components": [
                {
                  "internalType": "address",
                  "name": "account",
                  "type": "address"
                },
                {
                  "internalType": "string",
                  "name": "name",
                  "type": "string"
                }
              ],
              "internalType": "struct MagicRoom.Member",
              "name": "member",
              "type": "tuple"
            },
            {
              "internalType": "uint256",
              "name": "index",
              "type": "uint256"
            },
            {
              "internalType": "uint256",
              "name": "value",
              "type": "uint256"
            }
          ],
          "indexed": false,
          "internalType": "struct MagicRoom.RewardInfo",
          "name": "reward",
          "type": "tuple"
        }
      ],
      "name": "Winner",
      "type": "event"
    },
    {
      "inputs": [],
      "name": "balanceOf",
      "outputs": [
        {
          "internalType": "uint256",
          "name": "",
          "type": "uint256"
        }
      ],
      "stateMutability": "view",
      "type": "function",
      "constant": true
    },
    {
      "inputs": [
        {
          "internalType": "uint256",
          "name": "_min",
          "type": "uint256"
        },
        {
          "internalType": "uint256",
          "name": "_max",
          "type": "uint256"
        }
      ],
      "name": "getRandomRange",
      "outputs": [
        {
          "internalType": "uint256",
          "name": "",
          "type": "uint256"
        }
      ],
      "stateMutability": "nonpayable",
      "type": "function"
    },
    {
      "inputs": [],
      "name": "getTokenimic",
      "outputs": [
        {
          "internalType": "uint256",
          "name": "fee",
          "type": "uint256"
        },
        {
          "internalType": "uint256",
          "name": "reward",
          "type": "uint256"
        },
        {
          "internalType": "uint256",
          "name": "vip",
          "type": "uint256"
        },
        {
          "internalType": "uint256",
          "name": "winners",
          "type": "uint256"
        }
      ],
      "stateMutability": "view",
      "type": "function",
      "constant": true
    },
    {
      "inputs": [],
      "name": "owner",
      "outputs": [
        {
          "internalType": "address",
          "name": "",
          "type": "address"
        }
      ],
      "stateMutability": "view",
      "type": "function",
      "constant": true
    },
    {
      "inputs": [],
      "name": "renounceOwnership",
      "outputs": [],
      "stateMutability": "nonpayable",
      "type": "function"
    },
    {
      "inputs": [
        {
          "internalType": "uint256",
          "name": "",
          "type": "uint256"
        }
      ],
      "name": "rooms",
      "outputs": [
        {
          "internalType": "uint256",
          "name": "id",
          "type": "uint256"
        },
        {
          "internalType": "uint256",
          "name": "price",
          "type": "uint256"
        },
        {
          "internalType": "uint256",
          "name": "bank",
          "type": "uint256"
        },
        {
          "internalType": "uint256",
          "name": "steps",
          "type": "uint256"
        },
        {
          "internalType": "uint256",
          "name": "step",
          "type": "uint256"
        },
        {
          "internalType": "bool",
          "name": "active",
          "type": "bool"
        },
        {
          "internalType": "uint256",
          "name": "lastActionTime",
          "type": "uint256"
        }
      ],
      "stateMutability": "view",
      "type": "function",
      "constant": true
    },
    {
      "inputs": [
        {
          "internalType": "address",
          "name": "newOwner",
          "type": "address"
        }
      ],
      "name": "transferOwnership",
      "outputs": [],
      "stateMutability": "nonpayable",
      "type": "function"
    },
    {
      "inputs": [
        {
          "internalType": "address",
          "name": "_to",
          "type": "address"
        }
      ],
      "name": "withdraw",
      "outputs": [],
      "stateMutability": "nonpayable",
      "type": "function"
    },
    {
      "inputs": [
        {
          "internalType": "uint256",
          "name": "count",
          "type": "uint256"
        }
      ],
      "name": "setStepsCount",
      "outputs": [],
      "stateMutability": "nonpayable",
      "type": "function"
    },
    {
      "inputs": [
        {
          "internalType": "string",
          "name": "_name",
          "type": "string"
        },
        {
          "internalType": "uint256",
          "name": "_amount",
          "type": "uint256"
        }
      ],
      "name": "createRoom",
      "outputs": [],
      "stateMutability": "nonpayable",
      "type": "function"
    },
    {
      "inputs": [],
      "name": "getCurrentRoom",
      "outputs": [
        {
          "components": [
            {
              "internalType": "uint256",
              "name": "id",
              "type": "uint256"
            },
            {
              "internalType": "uint256",
              "name": "price",
              "type": "uint256"
            },
            {
              "internalType": "uint256",
              "name": "bank",
              "type": "uint256"
            },
            {
              "internalType": "uint256",
              "name": "steps",
              "type": "uint256"
            },
            {
              "internalType": "uint256",
              "name": "step",
              "type": "uint256"
            },
            {
              "internalType": "bool",
              "name": "active",
              "type": "bool"
            },
            {
              "internalType": "uint256",
              "name": "lastActionTime",
              "type": "uint256"
            },
            {
              "internalType": "address[]",
              "name": "chairs",
              "type": "address[]"
            },
            {
              "internalType": "string[]",
              "name": "names",
              "type": "string[]"
            }
          ],
          "internalType": "struct MagicRoom.Room",
          "name": "room",
          "type": "tuple"
        }
      ],
      "stateMutability": "view",
      "type": "function",
      "constant": true
    },
    {
      "inputs": [
        {
          "internalType": "string",
          "name": "_name",
          "type": "string"
        },
        {
          "internalType": "uint256",
          "name": "_amount",
          "type": "uint256"
        }
      ],
      "name": "enterToRoom",
      "outputs": [],
      "stateMutability": "nonpayable",
      "type": "function"
    }
  ],
  "bytecode": "0x608060405260008055604051806101400160405280600d60ff168152602001600360ff168152602001600360ff168152602001600360ff168152602001600d60ff168152602001600d60ff168152602001600d60ff168152602001600d60ff168152602001600d60ff168152602001600d60ff16815250600190600a6200008892919062000262565b5060405180608001604052806001815260200160328152602001601c815260200160148152506004600082015181600001556020820151816001015560408201518160020155606082015181600301555050670de0b6b3a764000060085560006009556000600b5562015180600c553480156200010457600080fd5b5060405162003efb38038062003efb83398181016040528101906200012a919062000342565b806200014b6200013f6200019460201b60201c565b6200019c60201b60201c565b80600360006101000a81548173ffffffffffffffffffffffffffffffffffffffff021916908373ffffffffffffffffffffffffffffffffffffffff160217905550505062000374565b600033905090565b6000600260009054906101000a900473ffffffffffffffffffffffffffffffffffffffff16905081600260006101000a81548173ffffffffffffffffffffffffffffffffffffffff021916908373ffffffffffffffffffffffffffffffffffffffff1602179055508173ffffffffffffffffffffffffffffffffffffffff168173ffffffffffffffffffffffffffffffffffffffff167f8be0079c531659141344cd1fd0a4f28419497f9722a3daafe3b4186f6b6457e060405160405180910390a35050565b828054828255906000526020600020908101928215620002a6579160200282015b82811115620002a5578251829060ff1690559160200191906001019062000283565b5b509050620002b59190620002b9565b5090565b5b80821115620002d4576000816000905550600101620002ba565b5090565b600080fd5b600073ffffffffffffffffffffffffffffffffffffffff82169050919050565b60006200030a82620002dd565b9050919050565b6200031c81620002fd565b81146200032857600080fd5b50565b6000815190506200033c8162000311565b92915050565b6000602082840312156200035b576200035a620002d8565b5b60006200036b848285016200032b565b91505092915050565b613b7780620003846000396000f3fe608060405234801561001057600080fd5b50600436106100b45760003560e01c806385be784e1161007157806385be784e1461016b5780638b1b94a7146101875780638da5cb5b146101a55780638fc5d866146101c3578063aa749eb3146101e4578063f2fde38b14610214576100b4565b80631bae0ac8146100b95780632db4f279146100ef57806351cff8d91461010b5780635f8d172114610127578063715018a614610143578063722713f71461014d575b600080fd5b6100d360048036038101906100ce919061275c565b610230565b6040516100e697969594939291906127b3565b60405180910390f35b61010960048036038101906101049190612887565b61027f565b005b61012560048036038101906101209190612945565b61033f565b005b610141600480360381019061013c919061275c565b6103d2565b005b61014b61046e565b005b6101556104f6565b6040516101629190612972565b60405180910390f35b61018560048036038101906101809190612887565b61057c565b005b61018f610881565b60405161019c9190612c90565b60405180910390f35b6101ad610a73565b6040516101ba9190612cc1565b60405180910390f35b6101cb610a9d565b6040516101db9493929190612cdc565b60405180910390f35b6101fe60048036038101906101f99190612d21565b610ac9565b60405161020b9190612972565b60405180910390f35b61022e60048036038101906102299190612945565b610b47565b005b600a6020528060005260406000206000915090508060000154908060010154908060020154908060030154908060040154908060050160009054906101000a900460ff16908060060154905087565b828260148282905011156102c8576040517f08c379a00000000000000000000000000000000000000000000000000000000081526004016102bf90612dbe565b60405180910390fd5b6102d0610c3e565b61030f576040517f08c379a000000000000000000000000000000000000000000000000000000000815260040161030690612e2a565b60405180910390fd5b610317610ca7565b1561032557610324610d12565b5b61032d61105d565b610338858585611273565b5050505050565b610347611b18565b73ffffffffffffffffffffffffffffffffffffffff16610365610a73565b73ffffffffffffffffffffffffffffffffffffffff16146103bb576040517f08c379a00000000000000000000000000000000000000000000000000000000081526004016103b290612e96565b60405180910390fd5b6103c781600954611b20565b600060098190555050565b6103da611b18565b73ffffffffffffffffffffffffffffffffffffffff166103f8610a73565b73ffffffffffffffffffffffffffffffffffffffff161461044e576040517f08c379a000000000000000000000000000000000000000000000000000000000815260040161044590612e96565b60405180910390fd5b80600a6000600b5481526020019081526020016000206003018190555050565b610476611b18565b73ffffffffffffffffffffffffffffffffffffffff16610494610a73565b73ffffffffffffffffffffffffffffffffffffffff16146104ea576040517f08c379a00000000000000000000000000000000000000000000000000000000081526004016104e190612e96565b60405180910390fd5b6104f46000611bc5565b565b6000610500611b18565b73ffffffffffffffffffffffffffffffffffffffff1661051e610a73565b73ffffffffffffffffffffffffffffffffffffffff1614610574576040517f08c379a000000000000000000000000000000000000000000000000000000000815260040161056b90612e96565b60405180910390fd5b600954905090565b828260148282905011156105c5576040517f08c379a00000000000000000000000000000000000000000000000000000000081526004016105bc90612dbe565b60405180910390fd5b6105cd611c8b565b61060c576040517f08c379a000000000000000000000000000000000000000000000000000000000815260040161060390612f02565b60405180910390fd5b826000600a6000600b5481526020019081526020016000206040518061012001604052908160008201548152602001600182015481526020016002820154815260200160038201548152602001600482015481526020016005820160009054906101000a900460ff16151515158152602001600682015481526020016007820180548060200260200160405190810160405280929190818152602001828054801561070c57602002820191906000526020600020905b8160009054906101000a900473ffffffffffffffffffffffffffffffffffffffff1673ffffffffffffffffffffffffffffffffffffffff16815260200190600101908083116106c2575b5050505050815260200160088201805480602002602001604051908101604052809291908181526020016000905b828210156107e657838290600052602060002001805461075990612f51565b80601f016020809104026020016040519081016040528092919081815260200182805461078590612f51565b80156107d25780601f106107a7576101008083540402835291602001916107d2565b820191906000526020600020905b8154815290600101906020018083116107b557829003601f168201915b50505050508152602001906001019061073a565b50505050815250509050600060085482602001516108049190612fb1565b9050808310158160405160200161081b91906130a5565b6040516020818303038152906040529061086b576040517f08c379a00000000000000000000000000000000000000000000000000000000081526004016108629190613104565b60405180910390fd5b50610877888888611273565b5050505050505050565b6108896124dd565b6000600a6000600b5481526020019081526020016000206040518061012001604052908160008201548152602001600182015481526020016002820154815260200160038201548152602001600482015481526020016005820160009054906101000a900460ff16151515158152602001600682015481526020016007820180548060200260200160405190810160405280929190818152602001828054801561098857602002820191906000526020600020905b8160009054906101000a900473ffffffffffffffffffffffffffffffffffffffff1673ffffffffffffffffffffffffffffffffffffffff168152602001906001019080831161093e575b5050505050815260200160088201805480602002602001604051908101604052809291908181526020016000905b82821015610a625783829060005260206000200180546109d590612f51565b80601f0160208091040260200160405190810160405280929190818152602001828054610a0190612f51565b8015610a4e5780601f10610a2357610100808354040283529160200191610a4e565b820191906000526020600020905b815481529060010190602001808311610a3157829003601f168201915b5050505050815260200190600101906109b6565b505050508152505090508091505090565b6000600260009054906101000a900473ffffffffffffffffffffffffffffffffffffffff16905090565b600080600080600460000154600460010154600460020154600460030154935093509350935090919293565b6000806000815480929190610add90613126565b91905055508260018484610af1919061316e565b610afb9190612fb1565b4233600054604051602001610b12939291906131ea565b6040516020818303038152906040528051906020012060001c610b359190613256565b610b3f9190612fb1565b905092915050565b610b4f611b18565b73ffffffffffffffffffffffffffffffffffffffff16610b6d610a73565b73ffffffffffffffffffffffffffffffffffffffff1614610bc3576040517f08c379a0000000000000000000000000000000000000000000000000000000008152600401610bba90612e96565b60405180910390fd5b600073ffffffffffffffffffffffffffffffffffffffff168173ffffffffffffffffffffffffffffffffffffffff1603610c32576040517f08c379a0000000000000000000000000000000000000000000000000000000008152600401610c29906132f9565b60405180910390fd5b610c3b81611bc5565b50565b600080600b541480610c735750600a6000600b54815260200190815260200160002060050160009054906101000a900460ff16155b80610ca2575042600c54600a6000600b54815260200190815260200160002060060154610ca09190612fb1565b105b905090565b600080600b5414158015610cdd5750600a6000600b54815260200190815260200160002060050160009054906101000a900460ff165b8015610d0d575042600c54600a6000600b54815260200190815260200160002060060154610d0b9190612fb1565b105b905090565b6000600a6000600b54815260200190815260200160002090506000610dbe82600701805480602002602001604051908101604052809291908181526020018280548015610db457602002820191906000526020600020905b8160009054906101000a900473ffffffffffffffffffffffffffffffffffffffff1673ffffffffffffffffffffffffffffffffffffffff1681526020019060010190808311610d6a575b5050505050611cf6565b90506000818360020154610dd29190613319565b905060005b8360070180549050811015610ffc57600073ffffffffffffffffffffffffffffffffffffffff16846007018281548110610e1457610e1361334a565b5b9060005260206000200160009054906101000a900473ffffffffffffffffffffffffffffffffffffffff1673ffffffffffffffffffffffffffffffffffffffff1614610fe95760006040518060400160405280866007018481548110610e7d57610e7c61334a565b5b9060005260206000200160009054906101000a900473ffffffffffffffffffffffffffffffffffffffff1673ffffffffffffffffffffffffffffffffffffffff168152602001866008018481548110610ed957610ed861334a565b5b906000526020600020018054610eee90612f51565b80601f0160208091040260200160405190810160405280929190818152602001828054610f1a90612f51565b8015610f675780601f10610f3c57610100808354040283529160200191610f67565b820191906000526020600020905b815481529060010190602001808311610f4a57829003601f168201915b5050505050815250905060006040518060600160405280838152602001848152602001858152509050610fa282600001518260400151611b20565b85600001547f3613fabf6fc435a84d1c4464ad68dfcf90a2ecb0b6c84bee641028a370b0399942886004015484604051610fde93929190613406565b60405180910390a250505b8080610ff490613126565b915050610dd7565b5060008360050160006101000a81548160ff02191690831515021790555082600001547f4c536fd1e1e568a756991aa569a445d002f327eed825ab91e42da06a41a5d1a542856040516110509291906137dd565b60405180910390a2505050565b600061106c60646107d0610ac9565b9050600b600081548092919061108190613126565b91905055506000600a67ffffffffffffffff8111156110a3576110a261380d565b5b6040519080825280602002602001820160405280156110d15781602001602082028036833780820191505090505b5090506000600a67ffffffffffffffff8111156110f1576110f061380d565b5b60405190808252806020026020018201604052801561112457816020015b606081526020019060019003908161110f5790505b509050604051806101200160405280600b54815260200160008152602001600081526020018481526020016000815260200160011515815260200142815260200183815260200182815250600a6000600b548152602001908152602001600020600082015181600001556020820151816001015560408201518160020155606082015181600301556080820151816004015560a08201518160050160006101000a81548160ff02191690831515021790555060c0820151816006015560e08201518160070190805190602001906111fc92919061252b565b5061010082015181600801908051906020019061121a9291906125b5565b50905050600b547fd0bfa42bb2bf31a3dd263ec57f37346ecea2558b4273db9e941855d1ced89eaf42600a6000600b548152602001908152602001600020604051611266929190613954565b60405180910390a2505050565b806000600a6000600b5481526020019081526020016000206040518061012001604052908160008201548152602001600182015481526020016002820154815260200160038201548152602001600482015481526020016005820160009054906101000a900460ff16151515158152602001600682015481526020016007820180548060200260200160405190810160405280929190818152602001828054801561137357602002820191906000526020600020905b8160009054906101000a900473ffffffffffffffffffffffffffffffffffffffff1673ffffffffffffffffffffffffffffffffffffffff1681526020019060010190808311611329575b5050505050815260200160088201805480602002602001604051908101604052809291908181526020016000905b8282101561144d5783829060005260206000200180546113c090612f51565b80601f01602080910402602001604051908101604052809291908181526020018280546113ec90612f51565b80156114395780601f1061140e57610100808354040283529160200191611439565b820191906000526020600020905b81548152906001019060200180831161141c57829003601f168201915b5050505050815260200190600101906113a1565b505050508152505090506000600854826020015161146b9190612fb1565b9050808310158160405160200161148291906130a5565b604051602081830303815290604052906114d2576040517f08c379a00000000000000000000000000000000000000000000000000000000081526004016114c99190613104565b60405180910390fd5b506000600a6000600b5481526020019081526020016000209050600060405180604001604052803373ffffffffffffffffffffffffffffffffffffffff16815260200189898080601f016020809104026020016040519081016040528093929190818152602001838380828437600081840152601f19601f820116905080830192505050505050508152509050600061157f60006001856007018054905061157a919061316e565b610ac9565b905060006116148460070180548060200260200160405190810160405280929190818152602001828054801561160a57602002820191906000526020600020905b8160009054906101000a900473ffffffffffffffffffffffffffffffffffffffff1673ffffffffffffffffffffffffffffffffffffffff16815260200190600101908083116115c0575b5050505050611cf6565b90506000806000806116258c611d83565b93509350935093506116368c611e24565b87600401600081548092919061164b90613126565b91905055504288600601819055508b8860010181905550806009546116709190612fb1565b600981905550600073ffffffffffffffffffffffffffffffffffffffff168860070187815481106116a4576116a361334a565b5b9060005260206000200160009054906101000a900473ffffffffffffffffffffffffffffffffffffffff1673ffffffffffffffffffffffffffffffffffffffff16036116fd5781836116f69190612fb1565b92506118d3565b6118d2886040518061012001604052908160008201548152602001600182015481526020016002820154815260200160038201548152602001600482015481526020016005820160009054906101000a900460ff1615151515815260200160068201548152602001600782018054806020026020016040519081016040528092919081815260200182805480156117e957602002820191906000526020600020905b8160009054906101000a900473ffffffffffffffffffffffffffffffffffffffff1673ffffffffffffffffffffffffffffffffffffffff168152602001906001019080831161179f575b5050505050815260200160088201805480602002602001604051908101604052809291908181526020016000905b828210156118c357838290600052602060002001805461183690612f51565b80601f016020809104026020016040519081016040528092919081815260200182805461186290612f51565b80156118af5780601f10611884576101008083540402835291602001916118af565b820191906000526020600020905b81548152906001019060200180831161189257829003601f168201915b505050505081526020019060010190611817565b50505050815250508784611eca565b5b600085036118ee5783836118e79190612fb1565b9250611ace565b611acd886040518061012001604052908160008201548152602001600182015481526020016002820154815260200160038201548152602001600482015481526020016005820160009054906101000a900460ff1615151515815260200160068201548152602001600782018054806020026020016040519081016040528092919081815260200182805480156119da57602002820191906000526020600020905b8160009054906101000a900473ffffffffffffffffffffffffffffffffffffffff1673ffffffffffffffffffffffffffffffffffffffff1681526020019060010190808311611990575b5050505050815260200160088201805480602002602001604051908101604052809291908181526020016000905b82821015611ab4578382906000526020600020018054611a2790612f51565b80601f0160208091040260200160405190810160405280929190818152602001828054611a5390612f51565b8015611aa05780601f10611a7557610100808354040283529160200191611aa0565b820191906000526020600020905b815481529060010190602001808311611a8357829003601f168201915b505050505081526020019060010190611a08565b50505050815250508686611ac89190613319565b611fff565b5b828860020154611ade9190612fb1565b8860020181905550611af0888861215d565b8760040154886003015403611b0857611b07610d12565b5b5050505050505050505050505050565b600033905090565b600360009054906101000a900473ffffffffffffffffffffffffffffffffffffffff1673ffffffffffffffffffffffffffffffffffffffff1663a9059cbb83836040518363ffffffff1660e01b8152600401611b7d929190613984565b6020604051808303816000875af1158015611b9c573d6000803e3d6000fd5b505050506040513d601f19601f82011682018060405250810190611bc091906139d9565b505050565b6000600260009054906101000a900473ffffffffffffffffffffffffffffffffffffffff16905081600260006101000a81548173ffffffffffffffffffffffffffffffffffffffff021916908373ffffffffffffffffffffffffffffffffffffffff1602179055508173ffffffffffffffffffffffffffffffffffffffff168173ffffffffffffffffffffffffffffffffffffffff167f8be0079c531659141344cd1fd0a4f28419497f9722a3daafe3b4186f6b6457e060405160405180910390a35050565b600080600b5414158015611cc15750600a6000600b54815260200190815260200160002060050160009054906101000a900460ff165b8015611cf1575042600c54600a6000600b54815260200190815260200160002060060154611cef9190612fb1565b115b905090565b6000806000905060005b8351811015611d7957600073ffffffffffffffffffffffffffffffffffffffff16848281518110611d3457611d3361334a565b5b602002602001015173ffffffffffffffffffffffffffffffffffffffff1614611d66578180611d6290613126565b9250505b8080611d7190613126565b915050611d00565b5080915050919050565b6000806000806000606460046001015487611d9e9190613a06565b611da89190613319565b90506000606460046003015488611dbf9190613a06565b611dc99190613319565b90506000606460046002015489611de09190613a06565b611dea9190613319565b9050600060646004600001548a611e019190613a06565b611e0b9190613319565b9050838383839750975097509750505050509193509193565b600360009054906101000a900473ffffffffffffffffffffffffffffffffffffffff1673ffffffffffffffffffffffffffffffffffffffff166323b872dd3330846040518463ffffffff1660e01b8152600401611e8393929190613a60565b6020604051808303816000875af1158015611ea2573d6000803e3d6000fd5b505050506040513d601f19601f82011682018060405250810190611ec691906139d9565b5050565b60008360e001518381518110611ee357611ee261334a565b5b60200260200101519050600073ffffffffffffffffffffffffffffffffffffffff168173ffffffffffffffffffffffffffffffffffffffff1614158015611f2a5750600082115b15611ff957600060405180604001604052808373ffffffffffffffffffffffffffffffffffffffff1681526020018661010001518681518110611f7057611f6f61334a565b5b6020026020010151815250905060006040518060600160405280838152602001868152602001858152509050611fb28160000151600001518260400151611b20565b85600001517f83fc380a9d5549514bdd6f9eb1c0614f21442b80e7f0bb6bcd23f0c6decd7fc942886080015184604051611fee93929190613406565b60405180910390a250505b50505050565b60005b8260e001515181101561215857600073ffffffffffffffffffffffffffffffffffffffff168360e00151828151811061203e5761203d61334a565b5b602002602001015173ffffffffffffffffffffffffffffffffffffffff161461214557600060405180604001604052808560e0015184815181106120855761208461334a565b5b602002602001015173ffffffffffffffffffffffffffffffffffffffff16815260200185610100015184815181106120c0576120bf61334a565b5b60200260200101518152509050600060405180606001604052808381526020018481526020018581525090506120fe82600001518260400151611b20565b84600001517f8fd618cbe5cbf53112cc78a83d24e8e86e458bd853c2984d93b8aaf56af93d294287608001518460405161213a93929190613406565b60405180910390a250505b808061215090613126565b915050612002565b505050565b6000612167612388565b90506000604051806040016040528085600701848154811061218c5761218b61334a565b5b9060005260206000200160009054906101000a900473ffffffffffffffffffffffffffffffffffffffff1673ffffffffffffffffffffffffffffffffffffffff1681526020018560080184815481106121e8576121e761334a565b5b9060005260206000200180546121fd90612f51565b80601f016020809104026020016040519081016040528092919081815260200182805461222990612f51565b80156122765780601f1061224b57610100808354040283529160200191612276565b820191906000526020600020905b81548152906001019060200180831161225957829003601f168201915b505050505081525090506000604051806060016040528085815260200183815260200184815250905083600001518560070184815481106122ba576122b961334a565b5b9060005260206000200160006101000a81548173ffffffffffffffffffffffffffffffffffffffff021916908373ffffffffffffffffffffffffffffffffffffffff160217905550836020015185600801848154811061231d5761231c61334a565b5b90600052602060002001908051906020019061233a929190612615565b5084600001547fb60711d72e2238cb0a59f954dc67bc8c4c4ea86080c6dc849e7eda235d8b129342876004015484896040516123799493929190613aee565b60405180910390a25050505050565b60006123e360018054806020026020016040519081016040528092919081815260200182805480156123d957602002820191906000526020600020905b8154815260200190600101908083116123c5575b50505050506123e8565b905090565b60008060009050600080806000905060005b865181101561243e578681815181106124165761241561334a565b5b6020026020010151856124299190612fb1565b9450808061243690613126565b9150506123fa565b5061244a600185610ac9565b915060005b86518110156124d057838311801561248c57508681815181106124755761247461334a565b5b6020026020010151846124889190612fb1565b8311155b15612495578091505b8681815181106124a8576124a761334a565b5b6020026020010151846124bb9190612fb1565b935080806124c890613126565b91505061244f565b5080945050505050919050565b60405180610120016040528060008152602001600081526020016000815260200160008152602001600081526020016000151581526020016000815260200160608152602001606081525090565b8280548282559060005260206000209081019282156125a4579160200282015b828111156125a35782518260006101000a81548173ffffffffffffffffffffffffffffffffffffffff021916908373ffffffffffffffffffffffffffffffffffffffff1602179055509160200191906001019061254b565b5b5090506125b1919061269b565b5090565b828054828255906000526020600020908101928215612604579160200282015b828111156126035782518290805190602001906125f3929190612615565b50916020019190600101906125d5565b5b50905061261191906126b8565b5090565b82805461262190612f51565b90600052602060002090601f016020900481019282612643576000855561268a565b82601f1061265c57805160ff191683800117855561268a565b8280016001018555821561268a579182015b8281111561268957825182559160200191906001019061266e565b5b509050612697919061269b565b5090565b5b808211156126b457600081600090555060010161269c565b5090565b5b808211156126d857600081816126cf91906126dc565b506001016126b9565b5090565b5080546126e890612f51565b6000825580601f106126fa5750612719565b601f016020900490600052602060002090810190612718919061269b565b5b50565b600080fd5b600080fd5b6000819050919050565b61273981612726565b811461274457600080fd5b50565b60008135905061275681612730565b92915050565b6000602082840312156127725761277161271c565b5b600061278084828501612747565b91505092915050565b61279281612726565b82525050565b60008115159050919050565b6127ad81612798565b82525050565b600060e0820190506127c8600083018a612789565b6127d56020830189612789565b6127e26040830188612789565b6127ef6060830187612789565b6127fc6080830186612789565b61280960a08301856127a4565b61281660c0830184612789565b98975050505050505050565b600080fd5b600080fd5b600080fd5b60008083601f84011261284757612846612822565b5b8235905067ffffffffffffffff81111561286457612863612827565b5b6020830191508360018202830111156128805761287f61282c565b5b9250929050565b6000806000604084860312156128a05761289f61271c565b5b600084013567ffffffffffffffff8111156128be576128bd612721565b5b6128ca86828701612831565b935093505060206128dd86828701612747565b9150509250925092565b600073ffffffffffffffffffffffffffffffffffffffff82169050919050565b6000612912826128e7565b9050919050565b61292281612907565b811461292d57600080fd5b50565b60008135905061293f81612919565b92915050565b60006020828403121561295b5761295a61271c565b5b600061296984828501612930565b91505092915050565b60006020820190506129876000830184612789565b92915050565b61299681612726565b82525050565b6129a581612798565b82525050565b600081519050919050565b600082825260208201905092915050565b6000819050602082019050919050565b6129e081612907565b82525050565b60006129f283836129d7565b60208301905092915050565b6000602082019050919050565b6000612a16826129ab565b612a2081856129b6565b9350612a2b836129c7565b8060005b83811015612a5c578151612a4388826129e6565b9750612a4e836129fe565b925050600181019050612a2f565b5085935050505092915050565b600081519050919050565b600082825260208201905092915050565b6000819050602082019050919050565b600081519050919050565b600082825260208201905092915050565b60005b83811015612acf578082015181840152602081019050612ab4565b83811115612ade576000848401525b50505050565b6000601f19601f8301169050919050565b6000612b0082612a95565b612b0a8185612aa0565b9350612b1a818560208601612ab1565b612b2381612ae4565b840191505092915050565b6000612b3a8383612af5565b905092915050565b6000602082019050919050565b6000612b5a82612a69565b612b648185612a74565b935083602082028501612b7685612a85565b8060005b85811015612bb25784840389528151612b938582612b2e565b9450612b9e83612b42565b925060208a01995050600181019050612b7a565b50829750879550505050505092915050565b600061012083016000830151612bdd600086018261298d565b506020830151612bf0602086018261298d565b506040830151612c03604086018261298d565b506060830151612c16606086018261298d565b506080830151612c29608086018261298d565b5060a0830151612c3c60a086018261299c565b5060c0830151612c4f60c086018261298d565b5060e083015184820360e0860152612c678282612a0b565b915050610100830151848203610100860152612c838282612b4f565b9150508091505092915050565b60006020820190508181036000830152612caa8184612bc4565b905092915050565b612cbb81612907565b82525050565b6000602082019050612cd66000830184612cb2565b92915050565b6000608082019050612cf16000830187612789565b612cfe6020830186612789565b612d0b6040830185612789565b612d186060830184612789565b95945050505050565b60008060408385031215612d3857612d3761271c565b5b6000612d4685828601612747565b9250506020612d5785828601612747565b9150509250929050565b600082825260208201905092915050565b7f6d6178206c656e67746820323020636861726163746572730000000000000000600082015250565b6000612da8601883612d61565b9150612db382612d72565b602082019050919050565b60006020820190508181036000830152612dd781612d9b565b9050919050565b7f746865726520697320616e2061637469766520726f6f6d000000000000000000600082015250565b6000612e14601783612d61565b9150612e1f82612dde565b602082019050919050565b60006020820190508181036000830152612e4381612e07565b9050919050565b7f4f776e61626c653a2063616c6c6572206973206e6f7420746865206f776e6572600082015250565b6000612e80602083612d61565b9150612e8b82612e4a565b602082019050919050565b60006020820190508181036000830152612eaf81612e73565b9050919050565b7f6e6f2061637469766520726f6f6d000000000000000000000000000000000000600082015250565b6000612eec600e83612d61565b9150612ef782612eb6565b602082019050919050565b60006020820190508181036000830152612f1b81612edf565b9050919050565b7f4e487b7100000000000000000000000000000000000000000000000000000000600052602260045260246000fd5b60006002820490506001821680612f6957607f821691505b602082108103612f7c57612f7b612f22565b5b50919050565b7f4e487b7100000000000000000000000000000000000000000000000000000000600052601160045260246000fd5b6000612fbc82612726565b9150612fc783612726565b9250827fffffffffffffffffffffffffffffffffffffffffffffffffffffffffffffffff03821115612ffc57612ffb612f82565b5b828201905092915050565b600081905092915050565b7f616d6f756e74206d7573742062652067726561746572207468616e206f72206560008201527f7175616c20746f20000000000000000000000000000000000000000000000000602082015250565b600061306e602883613007565b915061307982613012565b602882019050919050565b6000819050919050565b61309f61309a82612726565b613084565b82525050565b60006130b082613061565b91506130bc828461308e565b60208201915081905092915050565b60006130d682612a95565b6130e08185612d61565b93506130f0818560208601612ab1565b6130f981612ae4565b840191505092915050565b6000602082019050818103600083015261311e81846130cb565b905092915050565b600061313182612726565b91507fffffffffffffffffffffffffffffffffffffffffffffffffffffffffffffffff820361316357613162612f82565b5b600182019050919050565b600061317982612726565b915061318483612726565b92508282101561319757613196612f82565b5b828203905092915050565b60008160601b9050919050565b60006131ba826131a2565b9050919050565b60006131cc826131af565b9050919050565b6131e46131df82612907565b6131c1565b82525050565b60006131f6828661308e565b60208201915061320682856131d3565b601482019150613216828461308e565b602082019150819050949350505050565b7f4e487b7100000000000000000000000000000000000000000000000000000000600052601260045260246000fd5b600061326182612726565b915061326c83612726565b92508261327c5761327b613227565b5b828206905092915050565b7f4f776e61626c653a206e6577206f776e657220697320746865207a65726f206160008201527f6464726573730000000000000000000000000000000000000000000000000000602082015250565b60006132e3602683612d61565b91506132ee82613287565b604082019050919050565b60006020820190508181036000830152613312816132d6565b9050919050565b600061332482612726565b915061332f83612726565b92508261333f5761333e613227565b5b828204905092915050565b7f4e487b7100000000000000000000000000000000000000000000000000000000600052603260045260246000fd5b600060408301600083015161339160008601826129d7565b50602083015184820360208601526133a98282612af5565b9150508091505092915050565b600060608301600083015184820360008601526133d38282613379565b91505060208301516133e8602086018261298d565b5060408301516133fb604086018261298d565b508091505092915050565b600060608201905061341b6000830186612789565b6134286020830185612789565b818103604083015261343a81846133b6565b9050949350505050565b60008160001c9050919050565b6000819050919050565b600061346e61346983613444565b613451565b9050919050565b600060ff82169050919050565b600061349561349083613444565b613475565b9050919050565b600081549050919050565b60008190508160005260206000209050919050565b600073ffffffffffffffffffffffffffffffffffffffff82169050919050565b60006134ef6134ea83613444565b6134bc565b9050919050565b600061350282546134dc565b9050919050565b6000600182019050919050565b60006135218261349c565b61352b81856129b6565b9350613536836134a7565b8060005b8381101561356e5761354b826134f6565b61355588826129e6565b975061356083613509565b92505060018101905061353a565b5085935050505092915050565b600081549050919050565b60008190508160005260206000209050919050565b60008190508160005260206000209050919050565b600081546135bd81612f51565b6135c78186612aa0565b945060018216600081146135e257600181146135f457613627565b60ff1983168652602086019350613627565b6135fd8561359b565b60005b8381101561361f57815481890152600182019150602081019050613600565b808801955050505b50505092915050565b600061363c83836135b0565b905092915050565b6000600182019050919050565b600061365c8261357b565b6136668185612a74565b93508360208202850161367885613586565b8060005b858110156136b3578484038952816136948582613630565b945061369f83613644565b925060208a0199505060018101905061367c565b50829750879550505050505092915050565b6000610120830160008084015490506136dd8161345b565b6136ea600087018261298d565b50600184015490506136fb8161345b565b613708602087018261298d565b50600284015490506137198161345b565b613726604087018261298d565b50600384015490506137378161345b565b613744606087018261298d565b50600484015490506137558161345b565b613762608087018261298d565b506005840154905061377381613482565b61378060a087018261299c565b50600684015490506137918161345b565b61379e60c087018261298d565b506007840185830360e08701526137b58382613516565b925050600884018583036101008701526137cf8382613651565b925050819250505092915050565b60006040820190506137f26000830185612789565b818103602083015261380481846136c5565b90509392505050565b7f4e487b7100000000000000000000000000000000000000000000000000000000600052604160045260246000fd5b6000610120830160008084015490506138548161345b565b613861600087018261298d565b50600184015490506138728161345b565b61387f602087018261298d565b50600284015490506138908161345b565b61389d604087018261298d565b50600384015490506138ae8161345b565b6138bb606087018261298d565b50600484015490506138cc8161345b565b6138d9608087018261298d565b50600584015490506138ea81613482565b6138f760a087018261299c565b50600684015490506139088161345b565b61391560c087018261298d565b506007840185830360e087015261392c8382613516565b925050600884018583036101008701526139468382613651565b925050819250505092915050565b60006040820190506139696000830185612789565b818103602083015261397b818461383c565b90509392505050565b60006040820190506139996000830185612cb2565b6139a66020830184612789565b9392505050565b6139b681612798565b81146139c157600080fd5b50565b6000815190506139d3816139ad565b92915050565b6000602082840312156139ef576139ee61271c565b5b60006139fd848285016139c4565b91505092915050565b6000613a1182612726565b9150613a1c83612726565b9250817fffffffffffffffffffffffffffffffffffffffffffffffffffffffffffffffff0483118215151615613a5557613a54612f82565b5b828202905092915050565b6000606082019050613a756000830186612cb2565b613a826020830185612cb2565b613a8f6040830184612789565b949350505050565b60006060830160008301518482036000860152613ab48282613379565b91505060208301518482036020860152613ace8282613379565b9150506040830151613ae3604086018261298d565b508091505092915050565b6000608082019050613b036000830187612789565b613b106020830186612789565b8181036040830152613b228185613a97565b90508181036060830152613b3681846136c5565b90509594505050505056fea26469706673582212207b7c5a2e75f54ee6899824d40116d2ab276b581667033068714cd14a92f47cea64736f6c634300080d0033",
  "immutableReferences": {},
  "source": "pragma solidity ^0.8.0;\n\nimport \"./randomize.sol\";\nimport \"./tokenomic.sol\";\n\ncontract MagicRoom is Randomize, Tokenomic {\n  mapping(uint256 => Room) public rooms;\n  uint roomCount = 0;\n  uint idleTime = 1 days;\n\n  constructor(address _tokenAddress) Tokenomic(_tokenAddress) {}\n\n  event StartRoom(uint256 timestamp, uint indexed roomId, Room room);\n  event FinishRoom(uint256 timestamp, uint indexed roomId, Room room);\n  event Vip(uint256 timestamp, uint indexed roomId, uint step, RewardInfo reward);\n  event Reward(uint256 timestamp, uint indexed roomId, uint step, RewardInfo reward);\n  event Winner(uint256 timestamp, uint indexed roomId, uint step, RewardInfo reward);\n  event ChangeChair(uint256 timestamp, uint indexed roomId, uint step, ChairChangesInfo chairChanges, Room room);\n\n  struct Room {\n    uint id;\n    uint price;\n    uint bank;\n    uint steps;\n    uint step;\n    bool active;\n    uint lastActionTime;\n    address[] chairs;\n    string[] names;\n  }\n\n  struct RewardInfo {\n    Member member;\n    uint index;\n    uint value;\n  }\n\n  struct Member {\n    address account;\n    string name;\n  }\n\n  struct ChairChangesInfo {\n    Member enter;\n    Member leave;\n    uint index;\n  }\n\n  modifier currentRoomIsNotActive () {\n    require(\n      _currentRoomIsNotActive(),\n      \"there is an active room\"\n    );\n    _;\n  }\n\n  modifier currentRoomIsActive () {\n    require(\n      _currentRoomIsActive(),\n      \"no active room\"\n    );\n    _;\n  }\n\n  modifier currentRoomIsActiveAndNot () {\n    require(\n      _currentRoomIsActive(),\n      \"no active room\"\n    );\n    _;\n  }\n\n  modifier availableAmount (uint _amount) {\n    Room memory room = rooms[roomCount];\n    uint min = room.price + minPrice;\n    require(_amount >= min, string(abi.encodePacked(\"amount must be greater than or equal to \", min)));\n    _;\n  }\n\n  modifier availableName (string calldata _name) {\n    require(bytes(_name).length <= 20, \"max length 20 characters\");\n    _;\n  }\n\n  function setStepsCount(uint count) external onlyOwner {\n    rooms[roomCount].steps = count;\n  }\n\n  function createRoom(string calldata _name, uint _amount) external availableName(_name) currentRoomIsNotActive {\n    if (_currentRoomIsDead()) {\n      _finishRoom();\n    }\n    _createRoom();\n    _enterToRoom(_name, _amount);\n  }\n\n  function getCurrentRoom() external view returns(Room memory room) {\n    Room memory room = rooms[roomCount];\n    return room;\n  }\n\n  function enterToRoom(string calldata _name, uint _amount) external availableName(_name) currentRoomIsActive availableAmount(_amount) {\n    _enterToRoom(_name, _amount);\n  }\n\n  function _currentRoomIsNotActive() private returns(bool) {\n    return (\n    roomCount == 0\n    || !rooms[roomCount].active\n    || rooms[roomCount].lastActionTime + idleTime < block.timestamp\n    );\n  }\n\n  function _currentRoomIsActive() private returns(bool) {\n    return (\n    roomCount != 0\n    && rooms[roomCount].active\n    && rooms[roomCount].lastActionTime + idleTime > block.timestamp\n    );\n  }\n\n  function _currentRoomIsDead() private returns(bool) {\n    return (\n    roomCount != 0\n    && rooms[roomCount].active\n    && rooms[roomCount].lastActionTime + idleTime < block.timestamp\n    );\n  }\n\n  function _createRoom () private {\n    uint steps = getRandomRange(100, 2000);\n    roomCount++;\n    address[] memory chairs = new address[](10);\n    string[] memory names = new string[](10);\n    rooms[roomCount] = Room(roomCount, 0, 0, steps, 0, true, block.timestamp, chairs, names);\n    emit StartRoom(block.timestamp, roomCount, rooms[roomCount]);\n  }\n\n  function _enterToRoom(string calldata _name, uint _amount) private availableAmount(_amount) {\n    Room storage room = rooms[roomCount];\n    Member memory enter = Member(msg.sender, _name);\n    uint vipChair = getRandomRange(0, room.chairs.length - 1);\n    uint rewardAddressCount = getValidAddressCount(room.chairs);\n    (uint rewards, uint winners, uint vip, uint fee) = getShares(_amount);\n\n    getTokens(_amount);\n\n    room.step++;\n    room.lastActionTime = block.timestamp;\n    room.price = _amount;\n    balance = balance + fee;\n\n    if (room.chairs[vipChair] == address(0)) {\n      winners = winners + vip;\n    } else {\n      _sendRewardToVip(room, vipChair, vip);\n    }\n    if (rewardAddressCount == 0) {\n      winners = winners + rewards;\n    } else {\n      _sendRewardToMembers(room, rewards / rewardAddressCount);\n    }\n\n    room.bank = room.bank + winners;\n    _changeChair(room, enter);\n\n    if (room.steps == room.step) {\n      _finishRoom();\n    }\n  }\n\n  function _changeChair(Room storage _room, Member memory enter) private {\n    uint index = getRandomChair();\n    Member memory leave = Member(_room.chairs[index], _room.names[index]);\n    ChairChangesInfo memory chairUpdate = ChairChangesInfo(enter, leave, index);\n    _room.chairs[index] = enter.account;\n    _room.names[index] = enter.name;\n    emit ChangeChair(block.timestamp, _room.id, _room.step, chairUpdate, _room);\n  }\n\n  function _sendRewardToVip(Room memory _room, uint _index, uint _amount) private {\n    address to = _room.chairs[_index];\n    if (to != address(0) && _amount > 0) {\n      Member memory member = Member(to, _room.names[_index]);\n      RewardInfo memory rewardInfo = RewardInfo(member, _index, _amount);\n      sendTokens(rewardInfo.member.account, rewardInfo.value);\n      emit Vip(block.timestamp, _room.id, _room.step, rewardInfo);\n    }\n  }\n\n  function _sendRewardToMembers(Room memory _room, uint _amount) private {\n    for (uint i = 0; i < _room.chairs.length; i++) {\n      if (_room.chairs[i] != address(0)) {\n        Member memory member = Member(_room.chairs[i], _room.names[i]);\n        RewardInfo memory rewardInfo = RewardInfo(member, i, _amount);\n        sendTokens(member.account, rewardInfo.value);\n        emit Reward(block.timestamp, _room.id, _room.step, rewardInfo);\n      }\n    }\n  }\n\n  function _finishRoom() private {\n    Room storage room = rooms[roomCount];\n    uint rewardAddressCount = getValidAddressCount(room.chairs);\n    uint bankRewardPerChair = room.bank / rewardAddressCount;\n\n    for (uint i = 0; i < room.chairs.length; i++) {\n      if (room.chairs[i] != address(0)) {\n        Member memory member = Member(room.chairs[i], room.names[i]);\n        RewardInfo memory rewardInfo = RewardInfo(member, i, bankRewardPerChair);\n        sendTokens(member.account, rewardInfo.value);\n        emit Winner(block.timestamp, room.id, room.step, rewardInfo);\n      }\n    }\n\n    room.active = false;\n    emit FinishRoom(block.timestamp, room.id, room);\n  }\n\n  function getValidAddressCount(address[] memory _addresses) internal returns(uint) {\n    uint counter = 0;\n    for (uint i = 0; i < _addresses.length; i++) {\n      if (_addresses[i] != address(0)) {\n        counter++;\n      }\n    }\n    return counter;\n  }\n\n}\n",
  "sourcePath": "/Users/sergeysavin/projects/magic-room/contract/contracts/MagicRoom.sol",
  "compiler": {
    "name": "solc",
    "version": "0.8.13+commit.abaa5c0e.Emscripten.clang"
  },
  "schemaVersion": "3.4.7",
  "updatedAt": "2022-05-23T04:17:40.170Z",
  "networkType": "ethereum",
  "devdoc": {
    "kind": "dev",
    "methods": {
      "owner()": {
        "details": "Returns the address of the current owner."
      },
      "renounceOwnership()": {
        "details": "Leaves the contract without owner. It will not be possible to call `onlyOwner` functions anymore. Can only be called by the current owner. NOTE: Renouncing ownership will leave the contract without an owner, thereby removing any functionality that is only available to the owner."
      },
      "transferOwnership(address)": {
        "details": "Transfers ownership of the contract to a new account (`newOwner`). Can only be called by the current owner."
      }
    },
    "version": 1
  },
  "userdoc": {
    "kind": "user",
    "methods": {},
    "version": 1
  }
}