{
  "contractName": "MagicRoom",
  "abi": [
    {
      "inputs": [
        {
          "internalType": "address",
          "name": "_tokenAddress",
          "type": "address"
        }
      ],
      "stateMutability": "nonpayable",
      "type": "constructor"
    },
    {
      "anonymous": false,
      "inputs": [
        {
          "indexed": false,
          "internalType": "uint256",
          "name": "timestamp",
          "type": "uint256"
        },
        {
          "indexed": false,
          "internalType": "uint256",
          "name": "roomId",
          "type": "uint256"
        },
        {
          "indexed": false,
          "internalType": "uint256",
          "name": "step",
          "type": "uint256"
        },
        {
          "components": [
            {
              "internalType": "address",
              "name": "enter",
              "type": "address"
            },
            {
              "internalType": "address",
              "name": "leave",
              "type": "address"
            },
            {
              "internalType": "uint256",
              "name": "index",
              "type": "uint256"
            }
          ],
          "indexed": false,
          "internalType": "struct MagicRoom.ChairChangesInfo",
          "name": "chairChanges",
          "type": "tuple"
        },
        {
          "components": [
            {
              "internalType": "uint256",
              "name": "id",
              "type": "uint256"
            },
            {
              "internalType": "uint256",
              "name": "price",
              "type": "uint256"
            },
            {
              "internalType": "uint256",
              "name": "bank",
              "type": "uint256"
            },
            {
              "internalType": "uint256",
              "name": "steps",
              "type": "uint256"
            },
            {
              "internalType": "uint256",
              "name": "step",
              "type": "uint256"
            },
            {
              "internalType": "bool",
              "name": "active",
              "type": "bool"
            },
            {
              "internalType": "uint256",
              "name": "lastActionTime",
              "type": "uint256"
            },
            {
              "internalType": "address[]",
              "name": "chairs",
              "type": "address[]"
            }
          ],
          "indexed": false,
          "internalType": "struct MagicRoom.Room",
          "name": "room",
          "type": "tuple"
        }
      ],
      "name": "ChangeChair",
      "type": "event"
    },
    {
      "anonymous": false,
      "inputs": [
        {
          "indexed": false,
          "internalType": "uint256",
          "name": "timestamp",
          "type": "uint256"
        },
        {
          "indexed": false,
          "internalType": "uint256",
          "name": "roomId",
          "type": "uint256"
        },
        {
          "components": [
            {
              "internalType": "uint256",
              "name": "id",
              "type": "uint256"
            },
            {
              "internalType": "uint256",
              "name": "price",
              "type": "uint256"
            },
            {
              "internalType": "uint256",
              "name": "bank",
              "type": "uint256"
            },
            {
              "internalType": "uint256",
              "name": "steps",
              "type": "uint256"
            },
            {
              "internalType": "uint256",
              "name": "step",
              "type": "uint256"
            },
            {
              "internalType": "bool",
              "name": "active",
              "type": "bool"
            },
            {
              "internalType": "uint256",
              "name": "lastActionTime",
              "type": "uint256"
            },
            {
              "internalType": "address[]",
              "name": "chairs",
              "type": "address[]"
            }
          ],
          "indexed": false,
          "internalType": "struct MagicRoom.Room",
          "name": "room",
          "type": "tuple"
        }
      ],
      "name": "FinishRoom",
      "type": "event"
    },
    {
      "anonymous": false,
      "inputs": [
        {
          "indexed": true,
          "internalType": "address",
          "name": "previousOwner",
          "type": "address"
        },
        {
          "indexed": true,
          "internalType": "address",
          "name": "newOwner",
          "type": "address"
        }
      ],
      "name": "OwnershipTransferred",
      "type": "event"
    },
    {
      "anonymous": false,
      "inputs": [
        {
          "indexed": false,
          "internalType": "uint256",
          "name": "timestamp",
          "type": "uint256"
        },
        {
          "indexed": false,
          "internalType": "uint256",
          "name": "roomId",
          "type": "uint256"
        },
        {
          "indexed": false,
          "internalType": "uint256",
          "name": "step",
          "type": "uint256"
        },
        {
          "components": [
            {
              "internalType": "address",
              "name": "to",
              "type": "address"
            },
            {
              "internalType": "uint256",
              "name": "index",
              "type": "uint256"
            },
            {
              "internalType": "uint256",
              "name": "value",
              "type": "uint256"
            }
          ],
          "indexed": false,
          "internalType": "struct MagicRoom.RewardInfo",
          "name": "reward",
          "type": "tuple"
        }
      ],
      "name": "Reward",
      "type": "event"
    },
    {
      "anonymous": false,
      "inputs": [
        {
          "indexed": false,
          "internalType": "uint256",
          "name": "timestamp",
          "type": "uint256"
        },
        {
          "indexed": false,
          "internalType": "uint256",
          "name": "roomId",
          "type": "uint256"
        },
        {
          "components": [
            {
              "internalType": "uint256",
              "name": "id",
              "type": "uint256"
            },
            {
              "internalType": "uint256",
              "name": "price",
              "type": "uint256"
            },
            {
              "internalType": "uint256",
              "name": "bank",
              "type": "uint256"
            },
            {
              "internalType": "uint256",
              "name": "steps",
              "type": "uint256"
            },
            {
              "internalType": "uint256",
              "name": "step",
              "type": "uint256"
            },
            {
              "internalType": "bool",
              "name": "active",
              "type": "bool"
            },
            {
              "internalType": "uint256",
              "name": "lastActionTime",
              "type": "uint256"
            },
            {
              "internalType": "address[]",
              "name": "chairs",
              "type": "address[]"
            }
          ],
          "indexed": false,
          "internalType": "struct MagicRoom.Room",
          "name": "room",
          "type": "tuple"
        }
      ],
      "name": "StartRoom",
      "type": "event"
    },
    {
      "anonymous": false,
      "inputs": [
        {
          "indexed": false,
          "internalType": "uint256",
          "name": "timestamp",
          "type": "uint256"
        },
        {
          "indexed": false,
          "internalType": "uint256",
          "name": "roomId",
          "type": "uint256"
        },
        {
          "indexed": false,
          "internalType": "uint256",
          "name": "step",
          "type": "uint256"
        },
        {
          "components": [
            {
              "internalType": "address",
              "name": "to",
              "type": "address"
            },
            {
              "internalType": "uint256",
              "name": "index",
              "type": "uint256"
            },
            {
              "internalType": "uint256",
              "name": "value",
              "type": "uint256"
            }
          ],
          "indexed": false,
          "internalType": "struct MagicRoom.RewardInfo",
          "name": "reward",
          "type": "tuple"
        }
      ],
      "name": "Vip",
      "type": "event"
    },
    {
      "anonymous": false,
      "inputs": [
        {
          "indexed": false,
          "internalType": "uint256",
          "name": "timestamp",
          "type": "uint256"
        },
        {
          "indexed": false,
          "internalType": "uint256",
          "name": "roomId",
          "type": "uint256"
        },
        {
          "indexed": false,
          "internalType": "uint256",
          "name": "step",
          "type": "uint256"
        },
        {
          "components": [
            {
              "internalType": "address",
              "name": "to",
              "type": "address"
            },
            {
              "internalType": "uint256",
              "name": "index",
              "type": "uint256"
            },
            {
              "internalType": "uint256",
              "name": "value",
              "type": "uint256"
            }
          ],
          "indexed": false,
          "internalType": "struct MagicRoom.RewardInfo",
          "name": "reward",
          "type": "tuple"
        }
      ],
      "name": "Winner",
      "type": "event"
    },
    {
      "inputs": [],
      "name": "balanceOf",
      "outputs": [
        {
          "internalType": "uint256",
          "name": "",
          "type": "uint256"
        }
      ],
      "stateMutability": "view",
      "type": "function"
    },
    {
      "inputs": [
        {
          "internalType": "uint256",
          "name": "_min",
          "type": "uint256"
        },
        {
          "internalType": "uint256",
          "name": "_max",
          "type": "uint256"
        }
      ],
      "name": "getRandomRange",
      "outputs": [
        {
          "internalType": "uint256",
          "name": "",
          "type": "uint256"
        }
      ],
      "stateMutability": "nonpayable",
      "type": "function"
    },
    {
      "inputs": [],
      "name": "getTokenimic",
      "outputs": [
        {
          "internalType": "uint256",
          "name": "fee",
          "type": "uint256"
        },
        {
          "internalType": "uint256",
          "name": "reward",
          "type": "uint256"
        },
        {
          "internalType": "uint256",
          "name": "vip",
          "type": "uint256"
        },
        {
          "internalType": "uint256",
          "name": "winners",
          "type": "uint256"
        }
      ],
      "stateMutability": "view",
      "type": "function"
    },
    {
      "inputs": [],
      "name": "owner",
      "outputs": [
        {
          "internalType": "address",
          "name": "",
          "type": "address"
        }
      ],
      "stateMutability": "view",
      "type": "function"
    },
    {
      "inputs": [],
      "name": "renounceOwnership",
      "outputs": [],
      "stateMutability": "nonpayable",
      "type": "function"
    },
    {
      "inputs": [
        {
          "internalType": "address",
          "name": "newOwner",
          "type": "address"
        }
      ],
      "name": "transferOwnership",
      "outputs": [],
      "stateMutability": "nonpayable",
      "type": "function"
    },
    {
      "inputs": [
        {
          "internalType": "address",
          "name": "_to",
          "type": "address"
        }
      ],
      "name": "withdraw",
      "outputs": [],
      "stateMutability": "nonpayable",
      "type": "function"
    },
    {
      "inputs": [
        {
          "internalType": "uint256",
          "name": "_amount",
          "type": "uint256"
        }
      ],
      "name": "createRoom",
      "outputs": [],
      "stateMutability": "nonpayable",
      "type": "function"
    },
    {
      "inputs": [],
      "name": "getCurrentRoom",
      "outputs": [
        {
          "components": [
            {
              "internalType": "uint256",
              "name": "id",
              "type": "uint256"
            },
            {
              "internalType": "uint256",
              "name": "price",
              "type": "uint256"
            },
            {
              "internalType": "uint256",
              "name": "bank",
              "type": "uint256"
            },
            {
              "internalType": "uint256",
              "name": "steps",
              "type": "uint256"
            },
            {
              "internalType": "uint256",
              "name": "step",
              "type": "uint256"
            },
            {
              "internalType": "bool",
              "name": "active",
              "type": "bool"
            },
            {
              "internalType": "uint256",
              "name": "lastActionTime",
              "type": "uint256"
            },
            {
              "internalType": "address[]",
              "name": "chairs",
              "type": "address[]"
            }
          ],
          "internalType": "struct MagicRoom.Room",
          "name": "room",
          "type": "tuple"
        }
      ],
      "stateMutability": "view",
      "type": "function"
    },
    {
      "inputs": [
        {
          "internalType": "uint256",
          "name": "_amount",
          "type": "uint256"
        }
      ],
      "name": "enterToRoom",
      "outputs": [],
      "stateMutability": "nonpayable",
      "type": "function"
    }
  ],
  "bytecode": "0x608060405260008055604051806101400160405280600d60ff168152602001600360ff168152602001600360ff168152602001600360ff168152602001600d60ff168152602001600d60ff168152602001600d60ff168152602001600d60ff168152602001600d60ff168152602001600d60ff16815250600190600a6200008892919062000262565b5060405180608001604052806001815260200160328152602001601c815260200160148152506004600082015181600001556020820151816001015560408201518160020155606082015181600301555050670de0b6b3a764000060085560006009556000600b5562015180600c553480156200010457600080fd5b5060405162002f8138038062002f8183398181016040528101906200012a919062000342565b806200014b6200013f6200019460201b60201c565b6200019c60201b60201c565b80600360006101000a81548173ffffffffffffffffffffffffffffffffffffffff021916908373ffffffffffffffffffffffffffffffffffffffff160217905550505062000374565b600033905090565b6000600260009054906101000a900473ffffffffffffffffffffffffffffffffffffffff16905081600260006101000a81548173ffffffffffffffffffffffffffffffffffffffff021916908373ffffffffffffffffffffffffffffffffffffffff1602179055508173ffffffffffffffffffffffffffffffffffffffff168173ffffffffffffffffffffffffffffffffffffffff167f8be0079c531659141344cd1fd0a4f28419497f9722a3daafe3b4186f6b6457e060405160405180910390a35050565b828054828255906000526020600020908101928215620002a6579160200282015b82811115620002a5578251829060ff1690559160200191906001019062000283565b5b509050620002b59190620002b9565b5090565b5b80821115620002d4576000816000905550600101620002ba565b5090565b600080fd5b600073ffffffffffffffffffffffffffffffffffffffff82169050919050565b60006200030a82620002dd565b9050919050565b6200031c81620002fd565b81146200032857600080fd5b50565b6000815190506200033c8162000311565b92915050565b6000602082840312156200035b576200035a620002d8565b5b60006200036b848285016200032b565b91505092915050565b612bfd80620003846000396000f3fe608060405234801561001057600080fd5b506004361061009e5760003560e01c80638da5cb5b116100665780638da5cb5b146101215780638fc5d8661461013f578063aa749eb314610160578063bbba825714610190578063f2fde38b146101ac5761009e565b80634267c9d5146100a357806351cff8d9146100bf578063715018a6146100db578063722713f7146100e55780638b1b94a714610103575b600080fd5b6100bd60048036038101906100b89190611ccd565b6101c8565b005b6100d960048036038101906100d49190611d58565b6103a5565b005b6100e3610438565b005b6100ed6104c0565b6040516100fa9190611d94565b60405180910390f35b61010b610546565b6040516101189190611f47565b60405180910390f35b61012961065f565b6040516101369190611f78565b60405180910390f35b610147610689565b6040516101579493929190611f93565b60405180910390f35b61017a60048036038101906101759190611fd8565b6106b5565b6040516101879190611d94565b60405180910390f35b6101aa60048036038101906101a59190611ccd565b610733565b005b6101c660048036038101906101c19190611d58565b6107a4565b005b6101d061089b565b61020f576040517f08c379a000000000000000000000000000000000000000000000000000000000815260040161020690612075565b60405180910390fd5b806000600a6000600b5481526020019081526020016000206040518061010001604052908160008201548152602001600182015481526020016002820154815260200160038201548152602001600482015481526020016005820160009054906101000a900460ff16151515158152602001600682015481526020016007820180548060200260200160405190810160405280929190818152602001828054801561030f57602002820191906000526020600020905b8160009054906101000a900473ffffffffffffffffffffffffffffffffffffffff1673ffffffffffffffffffffffffffffffffffffffff16815260200190600101908083116102c5575b50505050508152505090506000600854826020015161032e91906120c4565b9050808310158160405160200161034591906121b8565b60405160208183030381529060405290610395576040517f08c379a000000000000000000000000000000000000000000000000000000000815260040161038c9190612266565b60405180910390fd5b5061039f84610906565b50505050565b6103ad610ea9565b73ffffffffffffffffffffffffffffffffffffffff166103cb61065f565b73ffffffffffffffffffffffffffffffffffffffff1614610421576040517f08c379a0000000000000000000000000000000000000000000000000000000008152600401610418906122d4565b60405180910390fd5b61042d81600954610eb1565b600060098190555050565b610440610ea9565b73ffffffffffffffffffffffffffffffffffffffff1661045e61065f565b73ffffffffffffffffffffffffffffffffffffffff16146104b4576040517f08c379a00000000000000000000000000000000000000000000000000000000081526004016104ab906122d4565b60405180910390fd5b6104be6000610f56565b565b60006104ca610ea9565b73ffffffffffffffffffffffffffffffffffffffff166104e861065f565b73ffffffffffffffffffffffffffffffffffffffff161461053e576040517f08c379a0000000000000000000000000000000000000000000000000000000008152600401610535906122d4565b60405180910390fd5b600954905090565b61054e611ba4565b6000600a6000600b5481526020019081526020016000206040518061010001604052908160008201548152602001600182015481526020016002820154815260200160038201548152602001600482015481526020016005820160009054906101000a900460ff16151515158152602001600682015481526020016007820180548060200260200160405190810160405280929190818152602001828054801561064d57602002820191906000526020600020905b8160009054906101000a900473ffffffffffffffffffffffffffffffffffffffff1673ffffffffffffffffffffffffffffffffffffffff1681526020019060010190808311610603575b50505050508152505090508091505090565b6000600260009054906101000a900473ffffffffffffffffffffffffffffffffffffffff16905090565b600080600080600460000154600460010154600460020154600460030154935093509350935090919293565b60008060008154809291906106c9906122f4565b919050555082600184846106dd919061233c565b6106e791906120c4565b42336000546040516020016106fe939291906123b8565b6040516020818303038152906040528051906020012060001c6107219190612424565b61072b91906120c4565b905092915050565b61073b61101c565b61077a576040517f08c379a0000000000000000000000000000000000000000000000000000000008152600401610771906124a1565b60405180910390fd5b610782611085565b156107905761078f6110f0565b5b61079861137b565b6107a181610906565b50565b6107ac610ea9565b73ffffffffffffffffffffffffffffffffffffffff166107ca61065f565b73ffffffffffffffffffffffffffffffffffffffff1614610820576040517f08c379a0000000000000000000000000000000000000000000000000000000008152600401610817906122d4565b60405180910390fd5b600073ffffffffffffffffffffffffffffffffffffffff168173ffffffffffffffffffffffffffffffffffffffff160361088f576040517f08c379a000000000000000000000000000000000000000000000000000000000815260040161088690612533565b60405180910390fd5b61089881610f56565b50565b600080600b54141580156108d15750600a6000600b54815260200190815260200160002060050160009054906101000a900460ff165b8015610901575042600c54600a6000600b548152602001908152602001600020600601546108ff91906120c4565b115b905090565b806000600a6000600b5481526020019081526020016000206040518061010001604052908160008201548152602001600182015481526020016002820154815260200160038201548152602001600482015481526020016005820160009054906101000a900460ff161515151581526020016006820154815260200160078201805480602002602001604051908101604052809291908181526020018280548015610a0657602002820191906000526020600020905b8160009054906101000a900473ffffffffffffffffffffffffffffffffffffffff1673ffffffffffffffffffffffffffffffffffffffff16815260200190600101908083116109bc575b505050505081525050905060006008548260200151610a2591906120c4565b90508083101581604051602001610a3c91906121b8565b60405160208183030381529060405290610a8c576040517f08c379a0000000000000000000000000000000000000000000000000000000008152600401610a839190612266565b60405180910390fd5b506000600a6000600b54815260200190815260200160002090506000610ac6600060018460070180549050610ac1919061233c565b6106b5565b90506000610b5b83600701805480602002602001604051908101604052809291908181526020018280548015610b5157602002820191906000526020600020905b8160009054906101000a900473ffffffffffffffffffffffffffffffffffffffff1673ffffffffffffffffffffffffffffffffffffffff1681526020019060010190808311610b07575b505050505061151a565b9050600080600080610b6c8b6115a7565b9350935093509350610b7d8b611648565b866004016000815480929190610b92906122f4565b91905055504287600601819055508a876001018190555080600954610bb791906120c4565b600981905550600073ffffffffffffffffffffffffffffffffffffffff16876007018781548110610beb57610bea612553565b5b9060005260206000200160009054906101000a900473ffffffffffffffffffffffffffffffffffffffff1673ffffffffffffffffffffffffffffffffffffffff1603610c44578183610c3d91906120c4565b9250610d41565b610d40876040518061010001604052908160008201548152602001600182015481526020016002820154815260200160038201548152602001600482015481526020016005820160009054906101000a900460ff161515151581526020016006820154815260200160078201805480602002602001604051908101604052809291908181526020018280548015610d3057602002820191906000526020600020905b8160009054906101000a900473ffffffffffffffffffffffffffffffffffffffff1673ffffffffffffffffffffffffffffffffffffffff1681526020019060010190808311610ce6575b50505050508152505087846116ee565b5b60008503610d5c578383610d5591906120c4565b9250610e63565b610e62876040518061010001604052908160008201548152602001600182015481526020016002820154815260200160038201548152602001600482015481526020016005820160009054906101000a900460ff161515151581526020016006820154815260200160078201805480602002602001604051908101604052809291908181526020018280548015610e4857602002820191906000526020600020905b8160009054906101000a900473ffffffffffffffffffffffffffffffffffffffff1673ffffffffffffffffffffffffffffffffffffffff1681526020019060010190808311610dfe575b5050505050815250508686610e5d9190612582565b6117e7565b5b828760020154610e7391906120c4565b8760020181905550610e848761190d565b8660040154876003015403610e9c57610e9b6110f0565b5b5050505050505050505050565b600033905090565b600360009054906101000a900473ffffffffffffffffffffffffffffffffffffffff1673ffffffffffffffffffffffffffffffffffffffff1663a9059cbb83836040518363ffffffff1660e01b8152600401610f0e9291906125b3565b6020604051808303816000875af1158015610f2d573d6000803e3d6000fd5b505050506040513d601f19601f82011682018060405250810190610f519190612608565b505050565b6000600260009054906101000a900473ffffffffffffffffffffffffffffffffffffffff16905081600260006101000a81548173ffffffffffffffffffffffffffffffffffffffff021916908373ffffffffffffffffffffffffffffffffffffffff1602179055508173ffffffffffffffffffffffffffffffffffffffff168173ffffffffffffffffffffffffffffffffffffffff167f8be0079c531659141344cd1fd0a4f28419497f9722a3daafe3b4186f6b6457e060405160405180910390a35050565b600080600b5414806110515750600a6000600b54815260200190815260200160002060050160009054906101000a900460ff16155b80611080575042600c54600a6000600b5481526020019081526020016000206006015461107e91906120c4565b105b905090565b600080600b54141580156110bb5750600a6000600b54815260200190815260200160002060050160009054906101000a900460ff165b80156110eb575042600c54600a6000600b548152602001908152602001600020600601546110e991906120c4565b105b905090565b6000600a6000600b5481526020019081526020016000209050600061119c8260070180548060200260200160405190810160405280929190818152602001828054801561119257602002820191906000526020600020905b8160009054906101000a900473ffffffffffffffffffffffffffffffffffffffff1673ffffffffffffffffffffffffffffffffffffffff1681526020019060010190808311611148575b505050505061151a565b905060008183600201546111b09190612582565b905060005b836007018054905081101561131957600073ffffffffffffffffffffffffffffffffffffffff168460070182815481106111f2576111f1612553565b5b9060005260206000200160009054906101000a900473ffffffffffffffffffffffffffffffffffffffff1673ffffffffffffffffffffffffffffffffffffffff1614611306576000604051806060016040528086600701848154811061125b5761125a612553565b5b9060005260206000200160009054906101000a900473ffffffffffffffffffffffffffffffffffffffff1673ffffffffffffffffffffffffffffffffffffffff1681526020018381526020018481525090506112bf81600001518260400151610eb1565b7fcd27098682432a8b6dc5d82b90f8f8cd56ac5caadb5787469f430b491929d5914286600001548760040154846040516112fc9493929190612677565b60405180910390a1505b8080611311906122f4565b9150506111b5565b5060008360050160006101000a81548160ff0219169083151502179055507fcd3bb52af17c8140c2491701c925511e20abfdb4a5e9d1fcff82c570dcb7a24e4284600001548560405161136e939291906128f1565b60405180910390a1505050565b600061138a60646107d06106b5565b9050600b600081548092919061139f906122f4565b91905055506000600a67ffffffffffffffff8111156113c1576113c061292f565b5b6040519080825280602002602001820160405280156113ef5781602001602082028036833780820191505090505b509050604051806101000160405280600b54815260200160008152602001600081526020018381526020016000815260200160011515815260200142815260200182815250600a6000600b548152602001908152602001600020600082015181600001556020820151816001015560408201518160020155606082015181600301556080820151816004015560a08201518160050160006101000a81548160ff02191690831515021790555060c0820151816006015560e08201518160070190805190602001906114c1929190611beb565b509050507f31bda1b4aa9fe2a4aba545e72dd73650284ff7ecba4ffee2886504a10d50232e42600b54600a6000600b54815260200190815260200160002060405161150e93929190612a5c565b60405180910390a15050565b6000806000905060005b835181101561159d57600073ffffffffffffffffffffffffffffffffffffffff1684828151811061155857611557612553565b5b602002602001015173ffffffffffffffffffffffffffffffffffffffff161461158a578180611586906122f4565b9250505b8080611595906122f4565b915050611524565b5080915050919050565b60008060008060006064600460010154876115c29190612a9a565b6115cc9190612582565b905060006064600460030154886115e39190612a9a565b6115ed9190612582565b905060006064600460020154896116049190612a9a565b61160e9190612582565b9050600060646004600001548a6116259190612a9a565b61162f9190612582565b9050838383839750975097509750505050509193509193565b600360009054906101000a900473ffffffffffffffffffffffffffffffffffffffff1673ffffffffffffffffffffffffffffffffffffffff166323b872dd3330846040518463ffffffff1660e01b81526004016116a793929190612af4565b6020604051808303816000875af11580156116c6573d6000803e3d6000fd5b505050506040513d601f19601f820116820180604052508101906116ea9190612608565b5050565b60008360e00151838151811061170757611706612553565b5b60200260200101519050600073ffffffffffffffffffffffffffffffffffffffff168173ffffffffffffffffffffffffffffffffffffffff161415801561174e5750600082115b156117e157600060405180606001604052808373ffffffffffffffffffffffffffffffffffffffff16815260200185815260200184815250905061179a81600001518260400151610eb1565b7f5c57279d8d3cb78caf82034d879f8018da3d4942de1005c4316a88607cf8d5604286600001518760800151846040516117d79493929190612677565b60405180910390a1505b50505050565b60005b8260e001515181101561190857600073ffffffffffffffffffffffffffffffffffffffff168360e00151828151811061182657611825612553565b5b602002602001015173ffffffffffffffffffffffffffffffffffffffff16146118f557600060405180606001604052808560e00151848151811061186d5761186c612553565b5b602002602001015173ffffffffffffffffffffffffffffffffffffffff1681526020018381526020018481525090506118ae81600001518260400151610eb1565b7f25e0c37cc907ef4776b3f94966bd02513c721a2508dcd5579479054c713a7efa4285600001518660800151846040516118eb9493929190612677565b60405180910390a1505b8080611900906122f4565b9150506117ea565b505050565b6000611917611a4f565b9050600060405180606001604052803373ffffffffffffffffffffffffffffffffffffffff16815260200184600701848154811061195857611957612553565b5b9060005260206000200160009054906101000a900473ffffffffffffffffffffffffffffffffffffffff1673ffffffffffffffffffffffffffffffffffffffff168152602001838152509050338360070183815481106119bb576119ba612553565b5b9060005260206000200160006101000a81548173ffffffffffffffffffffffffffffffffffffffff021916908373ffffffffffffffffffffffffffffffffffffffff1602179055507f060d5434d31ac41e6bd5cf3a7112f7fcf567c19c9aa3ea538154baa7232f25fa42846000015485600401548487604051611a42959493929190612b6d565b60405180910390a1505050565b6000611aaa6001805480602002602001604051908101604052809291908181526020018280548015611aa057602002820191906000526020600020905b815481526020019060010190808311611a8c575b5050505050611aaf565b905090565b60008060009050600080806000905060005b8651811015611b0557868181518110611add57611adc612553565b5b602002602001015185611af091906120c4565b94508080611afd906122f4565b915050611ac1565b50611b116001856106b5565b915060005b8651811015611b97578383118015611b535750868181518110611b3c57611b3b612553565b5b602002602001015184611b4f91906120c4565b8311155b15611b5c578091505b868181518110611b6f57611b6e612553565b5b602002602001015184611b8291906120c4565b93508080611b8f906122f4565b915050611b16565b5080945050505050919050565b604051806101000160405280600081526020016000815260200160008152602001600081526020016000815260200160001515815260200160008152602001606081525090565b828054828255906000526020600020908101928215611c64579160200282015b82811115611c635782518260006101000a81548173ffffffffffffffffffffffffffffffffffffffff021916908373ffffffffffffffffffffffffffffffffffffffff16021790555091602001919060010190611c0b565b5b509050611c719190611c75565b5090565b5b80821115611c8e576000816000905550600101611c76565b5090565b600080fd5b6000819050919050565b611caa81611c97565b8114611cb557600080fd5b50565b600081359050611cc781611ca1565b92915050565b600060208284031215611ce357611ce2611c92565b5b6000611cf184828501611cb8565b91505092915050565b600073ffffffffffffffffffffffffffffffffffffffff82169050919050565b6000611d2582611cfa565b9050919050565b611d3581611d1a565b8114611d4057600080fd5b50565b600081359050611d5281611d2c565b92915050565b600060208284031215611d6e57611d6d611c92565b5b6000611d7c84828501611d43565b91505092915050565b611d8e81611c97565b82525050565b6000602082019050611da96000830184611d85565b92915050565b611db881611c97565b82525050565b60008115159050919050565b611dd381611dbe565b82525050565b600081519050919050565b600082825260208201905092915050565b6000819050602082019050919050565b611e0e81611d1a565b82525050565b6000611e208383611e05565b60208301905092915050565b6000602082019050919050565b6000611e4482611dd9565b611e4e8185611de4565b9350611e5983611df5565b8060005b83811015611e8a578151611e718882611e14565b9750611e7c83611e2c565b925050600181019050611e5d565b5085935050505092915050565b600061010083016000830151611eb06000860182611daf565b506020830151611ec36020860182611daf565b506040830151611ed66040860182611daf565b506060830151611ee96060860182611daf565b506080830151611efc6080860182611daf565b5060a0830151611f0f60a0860182611dca565b5060c0830151611f2260c0860182611daf565b5060e083015184820360e0860152611f3a8282611e39565b9150508091505092915050565b60006020820190508181036000830152611f618184611e97565b905092915050565b611f7281611d1a565b82525050565b6000602082019050611f8d6000830184611f69565b92915050565b6000608082019050611fa86000830187611d85565b611fb56020830186611d85565b611fc26040830185611d85565b611fcf6060830184611d85565b95945050505050565b60008060408385031215611fef57611fee611c92565b5b6000611ffd85828601611cb8565b925050602061200e85828601611cb8565b9150509250929050565b600082825260208201905092915050565b7f6e6f2061637469766520726f6f6d000000000000000000000000000000000000600082015250565b600061205f600e83612018565b915061206a82612029565b602082019050919050565b6000602082019050818103600083015261208e81612052565b9050919050565b7f4e487b7100000000000000000000000000000000000000000000000000000000600052601160045260246000fd5b60006120cf82611c97565b91506120da83611c97565b9250827fffffffffffffffffffffffffffffffffffffffffffffffffffffffffffffffff0382111561210f5761210e612095565b5b828201905092915050565b600081905092915050565b7f616d6f756e74206d7573742062652067726561746572207468616e206f72206560008201527f7175616c20746f20000000000000000000000000000000000000000000000000602082015250565b600061218160288361211a565b915061218c82612125565b602882019050919050565b6000819050919050565b6121b26121ad82611c97565b612197565b82525050565b60006121c382612174565b91506121cf82846121a1565b60208201915081905092915050565b600081519050919050565b60005b838110156122075780820151818401526020810190506121ec565b83811115612216576000848401525b50505050565b6000601f19601f8301169050919050565b6000612238826121de565b6122428185612018565b93506122528185602086016121e9565b61225b8161221c565b840191505092915050565b60006020820190508181036000830152612280818461222d565b905092915050565b7f4f776e61626c653a2063616c6c6572206973206e6f7420746865206f776e6572600082015250565b60006122be602083612018565b91506122c982612288565b602082019050919050565b600060208201905081810360008301526122ed816122b1565b9050919050565b60006122ff82611c97565b91507fffffffffffffffffffffffffffffffffffffffffffffffffffffffffffffffff820361233157612330612095565b5b600182019050919050565b600061234782611c97565b915061235283611c97565b92508282101561236557612364612095565b5b828203905092915050565b60008160601b9050919050565b600061238882612370565b9050919050565b600061239a8261237d565b9050919050565b6123b26123ad82611d1a565b61238f565b82525050565b60006123c482866121a1565b6020820191506123d482856123a1565b6014820191506123e482846121a1565b602082019150819050949350505050565b7f4e487b7100000000000000000000000000000000000000000000000000000000600052601260045260246000fd5b600061242f82611c97565b915061243a83611c97565b92508261244a576124496123f5565b5b828206905092915050565b7f746865726520697320616e2061637469766520726f6f6d000000000000000000600082015250565b600061248b601783612018565b915061249682612455565b602082019050919050565b600060208201905081810360008301526124ba8161247e565b9050919050565b7f4f776e61626c653a206e6577206f776e657220697320746865207a65726f206160008201527f6464726573730000000000000000000000000000000000000000000000000000602082015250565b600061251d602683612018565b9150612528826124c1565b604082019050919050565b6000602082019050818103600083015261254c81612510565b9050919050565b7f4e487b7100000000000000000000000000000000000000000000000000000000600052603260045260246000fd5b600061258d82611c97565b915061259883611c97565b9250826125a8576125a76123f5565b5b828204905092915050565b60006040820190506125c86000830185611f69565b6125d56020830184611d85565b9392505050565b6125e581611dbe565b81146125f057600080fd5b50565b600081519050612602816125dc565b92915050565b60006020828403121561261e5761261d611c92565b5b600061262c848285016125f3565b91505092915050565b60608201600082015161264b6000850182611e05565b50602082015161265e6020850182611daf565b5060408201516126716040850182611daf565b50505050565b600060c08201905061268c6000830187611d85565b6126996020830186611d85565b6126a66040830185611d85565b6126b36060830184612635565b95945050505050565b60008160001c9050919050565b6000819050919050565b60006126e66126e1836126bc565b6126c9565b9050919050565b600060ff82169050919050565b600061270d612708836126bc565b6126ed565b9050919050565b600081549050919050565b60008190508160005260206000209050919050565b600073ffffffffffffffffffffffffffffffffffffffff82169050919050565b6000612767612762836126bc565b612734565b9050919050565b600061277a8254612754565b9050919050565b6000600182019050919050565b600061279982612714565b6127a38185611de4565b93506127ae8361271f565b8060005b838110156127e6576127c38261276e565b6127cd8882611e14565b97506127d883612781565b9250506001810190506127b2565b5085935050505092915050565b60006101008301600080840154905061280b816126d3565b6128186000870182611daf565b5060018401549050612829816126d3565b6128366020870182611daf565b5060028401549050612847816126d3565b6128546040870182611daf565b5060038401549050612865816126d3565b6128726060870182611daf565b5060048401549050612883816126d3565b6128906080870182611daf565b50600584015490506128a1816126fa565b6128ae60a0870182611dca565b50600684015490506128bf816126d3565b6128cc60c0870182611daf565b506007840185830360e08701526128e3838261278e565b925050819250505092915050565b60006060820190506129066000830186611d85565b6129136020830185611d85565b818103604083015261292581846127f3565b9050949350505050565b7f4e487b7100000000000000000000000000000000000000000000000000000000600052604160045260246000fd5b600061010083016000808401549050612976816126d3565b6129836000870182611daf565b5060018401549050612994816126d3565b6129a16020870182611daf565b50600284015490506129b2816126d3565b6129bf6040870182611daf565b50600384015490506129d0816126d3565b6129dd6060870182611daf565b50600484015490506129ee816126d3565b6129fb6080870182611daf565b5060058401549050612a0c816126fa565b612a1960a0870182611dca565b5060068401549050612a2a816126d3565b612a3760c0870182611daf565b506007840185830360e0870152612a4e838261278e565b925050819250505092915050565b6000606082019050612a716000830186611d85565b612a7e6020830185611d85565b8181036040830152612a90818461295e565b9050949350505050565b6000612aa582611c97565b9150612ab083611c97565b9250817fffffffffffffffffffffffffffffffffffffffffffffffffffffffffffffffff0483118215151615612ae957612ae8612095565b5b828202905092915050565b6000606082019050612b096000830186611f69565b612b166020830185611f69565b612b236040830184611d85565b949350505050565b606082016000820151612b416000850182611e05565b506020820151612b546020850182611e05565b506040820151612b676040850182611daf565b50505050565b600060e082019050612b826000830188611d85565b612b8f6020830187611d85565b612b9c6040830186611d85565b612ba96060830185612b2b565b81810360c0830152612bbb81846127f3565b9050969550505050505056fea264697066735822122053be2e689942a1d487eb58482899eee5a9fccdd7039c018f5fc7ed447561ca8a64736f6c634300080d0033",
  "immutableReferences": {},
  "source": "pragma solidity ^0.8.0;\n\nimport \"./randomize.sol\";\nimport \"./tokenomic.sol\";\n\ncontract MagicRoom is Randomize, Tokenomic {\n  mapping(uint256 => Room) rooms;\n  uint roomCount = 0;\n  uint idleTime = 1 days;\n\n  constructor(address _tokenAddress) Tokenomic(_tokenAddress) {}\n\n  event StartRoom(uint256 timestamp, uint roomId, Room room);\n  event FinishRoom(uint256 timestamp, uint roomId, Room room);\n  event Vip(uint256 timestamp, uint roomId, uint step, RewardInfo reward);\n  event Reward(uint256 timestamp, uint roomId, uint step, RewardInfo reward);\n  event Winner(uint256 timestamp, uint roomId, uint step, RewardInfo reward);\n  event ChangeChair(uint256 timestamp, uint roomId, uint step, ChairChangesInfo chairChanges, Room room);\n\n  struct Room {\n    uint id;\n    uint price;\n    uint bank;\n    uint steps;\n    uint step;\n    bool active;\n    uint lastActionTime;\n    address[] chairs;\n}\n\n  struct RewardInfo {\n    address to;\n    uint index;\n    uint value;\n  }\n\n  struct Member {\n    address account;\n    string name;\n  }\n\n  struct ChairChangesInfo {\n    address enter;\n    address leave;\n    uint index;\n  }\n\n  modifier currentRoomIsNotActive () {\n    require(\n      _currentRoomIsNotActive(),\n      \"there is an active room\"\n    );\n    _;\n  }\n\n  modifier currentRoomIsActive () {\n    require(\n      _currentRoomIsActive(),\n      \"no active room\"\n    );\n    _;\n  }\n\n  modifier currentRoomIsActiveAndNot () {\n    require(\n      _currentRoomIsActive(),\n      \"no active room\"\n    );\n    _;\n  }\n\n  modifier availableAmount (uint _amount) {\n    Room memory room = rooms[roomCount];\n    uint min = room.price + minPrice;\n    require(_amount >= min, string(abi.encodePacked(\"amount must be greater than or equal to \", min)));\n    _;\n  }\n\n  function createRoom(uint _amount) external currentRoomIsNotActive {\n    if (_currentRoomIsDead()) {\n      _finishRoom();\n    }\n    _createRoom();\n    _enterToRoom(_amount);\n  }\n\n  function getCurrentRoom() external view returns(Room memory room) {\n    Room memory room = rooms[roomCount];\n    return room;\n  }\n\n  function enterToRoom(uint _amount) external currentRoomIsActive availableAmount(_amount) {\n    _enterToRoom(_amount);\n  }\n\n  function _currentRoomIsNotActive() private returns(bool) {\n    return (\n    roomCount == 0\n    || !rooms[roomCount].active\n    || rooms[roomCount].lastActionTime + idleTime < block.timestamp\n    );\n  }\n\n  function _currentRoomIsActive() private returns(bool) {\n    return (\n    roomCount != 0\n    && rooms[roomCount].active\n    && rooms[roomCount].lastActionTime + idleTime > block.timestamp\n    );\n  }\n\n  function _currentRoomIsDead() private returns(bool) {\n    return (\n    roomCount != 0\n    && rooms[roomCount].active\n    && rooms[roomCount].lastActionTime + idleTime < block.timestamp\n    );\n  }\n\n  function _createRoom () private {\n    uint steps = getRandomRange(100, 2000);\n    roomCount++;\n    address[] memory chairs = new address[](10);\n//    for (uint i = 0; i < _addresses.length; i++) {\n//      if (_addresses[i] != address(0)) {\n//        counter++;\n//      }\n//    }\n    rooms[roomCount] = Room(roomCount, 0, 0, steps, 0, true, block.timestamp, chairs);\n    emit StartRoom(block.timestamp, roomCount, rooms[roomCount]);\n  }\n\n  function _enterToRoom(uint _amount) private availableAmount(_amount) {\n    Room storage room = rooms[roomCount];\n    uint vipChair = getRandomRange(0, room.chairs.length - 1);\n    uint rewardAddressCount = getValidAddressCount(room.chairs);\n    (uint rewards, uint winners, uint vip, uint fee) = getShares(_amount);\n\n    getTokens(_amount);\n\n    room.step++;\n    room.lastActionTime = block.timestamp;\n    room.price = _amount;\n    balance = balance + fee;\n\n    if (room.chairs[vipChair] == address(0)) {\n      winners = winners + vip;\n    } else {\n      _sendRewardToVip(room, vipChair, vip);\n    }\n    if (rewardAddressCount == 0) {\n      winners = winners + rewards;\n    } else {\n      _sendRewardToMembers(room, rewards / rewardAddressCount);\n    }\n\n    room.bank = room.bank + winners;\n    _changeChair(room);\n\n    if (room.steps == room.step) {\n      _finishRoom();\n    }\n  }\n\n  function _changeChair(Room storage _room) private {\n    uint index = getRandomChair();\n    ChairChangesInfo memory chairUpdate = ChairChangesInfo(msg.sender, _room.chairs[index], index);\n    _room.chairs[index] = msg.sender;\n    emit ChangeChair(block.timestamp, _room.id, _room.step, chairUpdate, _room);\n  }\n\n  function _sendRewardToVip(Room memory _room, uint _index, uint _amount) private {\n    address to = _room.chairs[_index];\n    if (to != address(0) && _amount > 0) {\n      RewardInfo memory rewardInfo = RewardInfo(to, _index, _amount);\n      sendTokens(rewardInfo.to, rewardInfo.value);\n      emit Vip(block.timestamp, _room.id, _room.step, rewardInfo);\n    }\n  }\n\n  function _sendRewardToMembers(Room memory _room, uint _amount) private {\n    for (uint i = 0; i < _room.chairs.length; i++) {\n      if (_room.chairs[i] != address(0)) {\n        RewardInfo memory rewardInfo = RewardInfo(_room.chairs[i], i, _amount);\n        sendTokens(rewardInfo.to, rewardInfo.value);\n        emit Reward(block.timestamp, _room.id, _room.step, rewardInfo);\n      }\n    }\n  }\n\n  function _finishRoom() private {\n    Room storage room = rooms[roomCount];\n    uint rewardAddressCount = getValidAddressCount(room.chairs);\n    uint bankRewardPerChair = room.bank / rewardAddressCount;\n\n    for (uint i = 0; i < room.chairs.length; i++) {\n      if (room.chairs[i] != address(0)) {\n        RewardInfo memory rewardInfo = RewardInfo(room.chairs[i], i, bankRewardPerChair);\n        sendTokens(rewardInfo.to, rewardInfo.value);\n        emit Winner(block.timestamp, room.id, room.step, rewardInfo);\n      }\n    }\n\n    room.active = false;\n\n    emit FinishRoom(block.timestamp, room.id, room);\n  }\n}\n",
  "sourcePath": "/Users/sergeysavin/projects/magic-room/contract/contracts/MagicRoom.sol",
  "compiler": {
    "name": "solc",
    "version": "0.8.13+commit.abaa5c0e.Emscripten.clang"
  },
  "schemaVersion": "3.4.7",
  "updatedAt": "2022-05-19T09:39:00.535Z",
  "devdoc": {
    "kind": "dev",
    "methods": {
      "owner()": {
        "details": "Returns the address of the current owner."
      },
      "renounceOwnership()": {
        "details": "Leaves the contract without owner. It will not be possible to call `onlyOwner` functions anymore. Can only be called by the current owner. NOTE: Renouncing ownership will leave the contract without an owner, thereby removing any functionality that is only available to the owner."
      },
      "transferOwnership(address)": {
        "details": "Transfers ownership of the contract to a new account (`newOwner`). Can only be called by the current owner."
      }
    },
    "version": 1
  },
  "userdoc": {
    "kind": "user",
    "methods": {},
    "version": 1
  }
}