{
  "contractName": "MagicRoom",
  "abi": [
    {
      "inputs": [
        {
          "internalType": "address",
          "name": "_tokenAddress",
          "type": "address"
        }
      ],
      "stateMutability": "nonpayable",
      "type": "constructor"
    },
    {
      "anonymous": false,
      "inputs": [
        {
          "indexed": false,
          "internalType": "uint256",
          "name": "timestamp",
          "type": "uint256"
        },
        {
          "indexed": true,
          "internalType": "uint256",
          "name": "roomId",
          "type": "uint256"
        },
        {
          "indexed": false,
          "internalType": "uint256",
          "name": "step",
          "type": "uint256"
        },
        {
          "components": [
            {
              "components": [
                {
                  "internalType": "address",
                  "name": "account",
                  "type": "address"
                },
                {
                  "internalType": "string",
                  "name": "name",
                  "type": "string"
                }
              ],
              "internalType": "struct MagicRoom.Member",
              "name": "enter",
              "type": "tuple"
            },
            {
              "components": [
                {
                  "internalType": "address",
                  "name": "account",
                  "type": "address"
                },
                {
                  "internalType": "string",
                  "name": "name",
                  "type": "string"
                }
              ],
              "internalType": "struct MagicRoom.Member",
              "name": "leave",
              "type": "tuple"
            },
            {
              "internalType": "uint256",
              "name": "index",
              "type": "uint256"
            }
          ],
          "indexed": false,
          "internalType": "struct MagicRoom.ChairChangesInfo",
          "name": "chairChanges",
          "type": "tuple"
        },
        {
          "components": [
            {
              "internalType": "uint256",
              "name": "id",
              "type": "uint256"
            },
            {
              "internalType": "uint256",
              "name": "price",
              "type": "uint256"
            },
            {
              "internalType": "uint256",
              "name": "bank",
              "type": "uint256"
            },
            {
              "internalType": "uint256",
              "name": "steps",
              "type": "uint256"
            },
            {
              "internalType": "uint256",
              "name": "step",
              "type": "uint256"
            },
            {
              "internalType": "bool",
              "name": "active",
              "type": "bool"
            },
            {
              "internalType": "uint256",
              "name": "lastActionTime",
              "type": "uint256"
            },
            {
              "internalType": "address[]",
              "name": "chairs",
              "type": "address[]"
            },
            {
              "internalType": "string[]",
              "name": "names",
              "type": "string[]"
            }
          ],
          "indexed": false,
          "internalType": "struct MagicRoom.Room",
          "name": "room",
          "type": "tuple"
        }
      ],
      "name": "ChangeChair",
      "type": "event"
    },
    {
      "anonymous": false,
      "inputs": [
        {
          "indexed": false,
          "internalType": "uint256",
          "name": "timestamp",
          "type": "uint256"
        },
        {
          "indexed": true,
          "internalType": "uint256",
          "name": "roomId",
          "type": "uint256"
        },
        {
          "components": [
            {
              "internalType": "uint256",
              "name": "id",
              "type": "uint256"
            },
            {
              "internalType": "uint256",
              "name": "price",
              "type": "uint256"
            },
            {
              "internalType": "uint256",
              "name": "bank",
              "type": "uint256"
            },
            {
              "internalType": "uint256",
              "name": "steps",
              "type": "uint256"
            },
            {
              "internalType": "uint256",
              "name": "step",
              "type": "uint256"
            },
            {
              "internalType": "bool",
              "name": "active",
              "type": "bool"
            },
            {
              "internalType": "uint256",
              "name": "lastActionTime",
              "type": "uint256"
            },
            {
              "internalType": "address[]",
              "name": "chairs",
              "type": "address[]"
            },
            {
              "internalType": "string[]",
              "name": "names",
              "type": "string[]"
            }
          ],
          "indexed": false,
          "internalType": "struct MagicRoom.Room",
          "name": "room",
          "type": "tuple"
        }
      ],
      "name": "FinishRoom",
      "type": "event"
    },
    {
      "anonymous": false,
      "inputs": [
        {
          "indexed": true,
          "internalType": "address",
          "name": "previousOwner",
          "type": "address"
        },
        {
          "indexed": true,
          "internalType": "address",
          "name": "newOwner",
          "type": "address"
        }
      ],
      "name": "OwnershipTransferred",
      "type": "event"
    },
    {
      "anonymous": false,
      "inputs": [
        {
          "indexed": false,
          "internalType": "uint256",
          "name": "timestamp",
          "type": "uint256"
        },
        {
          "indexed": true,
          "internalType": "uint256",
          "name": "roomId",
          "type": "uint256"
        },
        {
          "indexed": false,
          "internalType": "uint256",
          "name": "step",
          "type": "uint256"
        },
        {
          "components": [
            {
              "components": [
                {
                  "internalType": "address",
                  "name": "account",
                  "type": "address"
                },
                {
                  "internalType": "string",
                  "name": "name",
                  "type": "string"
                }
              ],
              "internalType": "struct MagicRoom.Member",
              "name": "member",
              "type": "tuple"
            },
            {
              "internalType": "uint256",
              "name": "index",
              "type": "uint256"
            },
            {
              "internalType": "uint256",
              "name": "value",
              "type": "uint256"
            }
          ],
          "indexed": false,
          "internalType": "struct MagicRoom.RewardInfo",
          "name": "reward",
          "type": "tuple"
        }
      ],
      "name": "Reward",
      "type": "event"
    },
    {
      "anonymous": false,
      "inputs": [
        {
          "indexed": false,
          "internalType": "uint256",
          "name": "timestamp",
          "type": "uint256"
        },
        {
          "indexed": true,
          "internalType": "uint256",
          "name": "roomId",
          "type": "uint256"
        },
        {
          "components": [
            {
              "internalType": "uint256",
              "name": "id",
              "type": "uint256"
            },
            {
              "internalType": "uint256",
              "name": "price",
              "type": "uint256"
            },
            {
              "internalType": "uint256",
              "name": "bank",
              "type": "uint256"
            },
            {
              "internalType": "uint256",
              "name": "steps",
              "type": "uint256"
            },
            {
              "internalType": "uint256",
              "name": "step",
              "type": "uint256"
            },
            {
              "internalType": "bool",
              "name": "active",
              "type": "bool"
            },
            {
              "internalType": "uint256",
              "name": "lastActionTime",
              "type": "uint256"
            },
            {
              "internalType": "address[]",
              "name": "chairs",
              "type": "address[]"
            },
            {
              "internalType": "string[]",
              "name": "names",
              "type": "string[]"
            }
          ],
          "indexed": false,
          "internalType": "struct MagicRoom.Room",
          "name": "room",
          "type": "tuple"
        }
      ],
      "name": "StartRoom",
      "type": "event"
    },
    {
      "anonymous": false,
      "inputs": [
        {
          "indexed": false,
          "internalType": "uint256",
          "name": "timestamp",
          "type": "uint256"
        },
        {
          "indexed": true,
          "internalType": "uint256",
          "name": "roomId",
          "type": "uint256"
        },
        {
          "indexed": false,
          "internalType": "uint256",
          "name": "step",
          "type": "uint256"
        },
        {
          "components": [
            {
              "components": [
                {
                  "internalType": "address",
                  "name": "account",
                  "type": "address"
                },
                {
                  "internalType": "string",
                  "name": "name",
                  "type": "string"
                }
              ],
              "internalType": "struct MagicRoom.Member",
              "name": "member",
              "type": "tuple"
            },
            {
              "internalType": "uint256",
              "name": "index",
              "type": "uint256"
            },
            {
              "internalType": "uint256",
              "name": "value",
              "type": "uint256"
            }
          ],
          "indexed": false,
          "internalType": "struct MagicRoom.RewardInfo",
          "name": "reward",
          "type": "tuple"
        }
      ],
      "name": "Vip",
      "type": "event"
    },
    {
      "anonymous": false,
      "inputs": [
        {
          "indexed": false,
          "internalType": "uint256",
          "name": "timestamp",
          "type": "uint256"
        },
        {
          "indexed": true,
          "internalType": "uint256",
          "name": "roomId",
          "type": "uint256"
        },
        {
          "indexed": false,
          "internalType": "uint256",
          "name": "step",
          "type": "uint256"
        },
        {
          "components": [
            {
              "components": [
                {
                  "internalType": "address",
                  "name": "account",
                  "type": "address"
                },
                {
                  "internalType": "string",
                  "name": "name",
                  "type": "string"
                }
              ],
              "internalType": "struct MagicRoom.Member",
              "name": "member",
              "type": "tuple"
            },
            {
              "internalType": "uint256",
              "name": "index",
              "type": "uint256"
            },
            {
              "internalType": "uint256",
              "name": "value",
              "type": "uint256"
            }
          ],
          "indexed": false,
          "internalType": "struct MagicRoom.RewardInfo",
          "name": "reward",
          "type": "tuple"
        }
      ],
      "name": "Winner",
      "type": "event"
    },
    {
      "inputs": [],
      "name": "balanceOf",
      "outputs": [
        {
          "internalType": "uint256",
          "name": "",
          "type": "uint256"
        }
      ],
      "stateMutability": "view",
      "type": "function",
      "constant": true
    },
    {
      "inputs": [
        {
          "internalType": "uint256",
          "name": "_min",
          "type": "uint256"
        },
        {
          "internalType": "uint256",
          "name": "_max",
          "type": "uint256"
        }
      ],
      "name": "getRandomRange",
      "outputs": [
        {
          "internalType": "uint256",
          "name": "",
          "type": "uint256"
        }
      ],
      "stateMutability": "nonpayable",
      "type": "function"
    },
    {
      "inputs": [],
      "name": "getTokenimic",
      "outputs": [
        {
          "internalType": "uint256",
          "name": "fee",
          "type": "uint256"
        },
        {
          "internalType": "uint256",
          "name": "reward",
          "type": "uint256"
        },
        {
          "internalType": "uint256",
          "name": "vip",
          "type": "uint256"
        },
        {
          "internalType": "uint256",
          "name": "winners",
          "type": "uint256"
        }
      ],
      "stateMutability": "view",
      "type": "function",
      "constant": true
    },
    {
      "inputs": [],
      "name": "idleTime",
      "outputs": [
        {
          "internalType": "uint256",
          "name": "",
          "type": "uint256"
        }
      ],
      "stateMutability": "view",
      "type": "function",
      "constant": true
    },
    {
      "inputs": [],
      "name": "owner",
      "outputs": [
        {
          "internalType": "address",
          "name": "",
          "type": "address"
        }
      ],
      "stateMutability": "view",
      "type": "function",
      "constant": true
    },
    {
      "inputs": [],
      "name": "renounceOwnership",
      "outputs": [],
      "stateMutability": "nonpayable",
      "type": "function"
    },
    {
      "inputs": [
        {
          "internalType": "address",
          "name": "newOwner",
          "type": "address"
        }
      ],
      "name": "transferOwnership",
      "outputs": [],
      "stateMutability": "nonpayable",
      "type": "function"
    },
    {
      "inputs": [
        {
          "internalType": "address",
          "name": "_to",
          "type": "address"
        }
      ],
      "name": "withdraw",
      "outputs": [],
      "stateMutability": "nonpayable",
      "type": "function"
    },
    {
      "inputs": [
        {
          "internalType": "uint256",
          "name": "count",
          "type": "uint256"
        }
      ],
      "name": "setStepsCount",
      "outputs": [],
      "stateMutability": "nonpayable",
      "type": "function"
    },
    {
      "inputs": [
        {
          "internalType": "uint256",
          "name": "_idleTime",
          "type": "uint256"
        }
      ],
      "name": "setIdleTime",
      "outputs": [],
      "stateMutability": "nonpayable",
      "type": "function"
    },
    {
      "inputs": [
        {
          "internalType": "string",
          "name": "_name",
          "type": "string"
        },
        {
          "internalType": "uint256",
          "name": "_amount",
          "type": "uint256"
        }
      ],
      "name": "createRoom",
      "outputs": [],
      "stateMutability": "nonpayable",
      "type": "function"
    },
    {
      "inputs": [],
      "name": "getCurrentRoom",
      "outputs": [
        {
          "components": [
            {
              "internalType": "uint256",
              "name": "id",
              "type": "uint256"
            },
            {
              "internalType": "uint256",
              "name": "price",
              "type": "uint256"
            },
            {
              "internalType": "uint256",
              "name": "bank",
              "type": "uint256"
            },
            {
              "internalType": "uint256",
              "name": "steps",
              "type": "uint256"
            },
            {
              "internalType": "uint256",
              "name": "step",
              "type": "uint256"
            },
            {
              "internalType": "bool",
              "name": "active",
              "type": "bool"
            },
            {
              "internalType": "uint256",
              "name": "lastActionTime",
              "type": "uint256"
            },
            {
              "internalType": "address[]",
              "name": "chairs",
              "type": "address[]"
            },
            {
              "internalType": "string[]",
              "name": "names",
              "type": "string[]"
            }
          ],
          "internalType": "struct MagicRoom.Room",
          "name": "room",
          "type": "tuple"
        }
      ],
      "stateMutability": "view",
      "type": "function",
      "constant": true
    },
    {
      "inputs": [
        {
          "internalType": "string",
          "name": "_name",
          "type": "string"
        },
        {
          "internalType": "uint256",
          "name": "_amount",
          "type": "uint256"
        }
      ],
      "name": "enterToRoom",
      "outputs": [],
      "stateMutability": "nonpayable",
      "type": "function"
    }
  ],
  "bytecode": "0x608060405260008055604051806101400160405280600d60ff168152602001600360ff168152602001600360ff168152602001600360ff168152602001600d60ff168152602001600d60ff168152602001600d60ff168152602001600d60ff168152602001600d60ff168152602001600d60ff16815250600190600a6200008892919062000261565b5060405180608001604052806001815260200160328152602001601d815260200160148152506004600082015181600001556020820151816001015560408201518160020155606082015181600301555050670de0b6b3a764000060085560006009556000600b55610258600c553480156200010357600080fd5b5060405162003ed838038062003ed8833981810160405281019062000129919062000341565b806200014a6200013e6200019360201b60201c565b6200019b60201b60201c565b80600360006101000a81548173ffffffffffffffffffffffffffffffffffffffff021916908373ffffffffffffffffffffffffffffffffffffffff160217905550505062000373565b600033905090565b6000600260009054906101000a900473ffffffffffffffffffffffffffffffffffffffff16905081600260006101000a81548173ffffffffffffffffffffffffffffffffffffffff021916908373ffffffffffffffffffffffffffffffffffffffff1602179055508173ffffffffffffffffffffffffffffffffffffffff168173ffffffffffffffffffffffffffffffffffffffff167f8be0079c531659141344cd1fd0a4f28419497f9722a3daafe3b4186f6b6457e060405160405180910390a35050565b828054828255906000526020600020908101928215620002a5579160200282015b82811115620002a4578251829060ff1690559160200191906001019062000282565b5b509050620002b49190620002b8565b5090565b5b80821115620002d3576000816000905550600101620002b9565b5090565b600080fd5b600073ffffffffffffffffffffffffffffffffffffffff82169050919050565b60006200030982620002dc565b9050919050565b6200031b81620002fc565b81146200032757600080fd5b50565b6000815190506200033b8162000310565b92915050565b6000602082840312156200035a5762000359620002d7565b5b60006200036a848285016200032a565b91505092915050565b613b5580620003836000396000f3fe608060405234801561001057600080fd5b50600436106100cf5760003560e01c806385be784e1161008c5780638fc5d866116100665780638fc5d866146101c457806393bd7385146101e5578063aa749eb314610203578063f2fde38b14610233576100cf565b806385be784e1461016c5780638b1b94a7146101885780638da5cb5b146101a6576100cf565b8063213e6a3f146100d45780632db4f279146100f057806351cff8d91461010c5780635f8d172114610128578063715018a614610144578063722713f71461014e575b600080fd5b6100ee60048036038101906100e991906127b8565b61024f565b005b61010a6004803603810190610105919061284a565b6102d5565b005b61012660048036038101906101219190612908565b610395565b005b610142600480360381019061013d91906127b8565b610428565b005b61014c6104c4565b005b61015661054c565b6040516101639190612944565b60405180910390f35b6101866004803603810190610181919061284a565b6105d2565b005b6101906108d7565b60405161019d9190612c6e565b60405180910390f35b6101ae610ac9565b6040516101bb9190612c9f565b60405180910390f35b6101cc610af3565b6040516101dc9493929190612cba565b60405180910390f35b6101ed610b1f565b6040516101fa9190612944565b60405180910390f35b61021d60048036038101906102189190612cff565b610b25565b60405161022a9190612944565b60405180910390f35b61024d60048036038101906102489190612908565b610ba3565b005b610257610c9a565b73ffffffffffffffffffffffffffffffffffffffff16610275610ac9565b73ffffffffffffffffffffffffffffffffffffffff16146102cb576040517f08c379a00000000000000000000000000000000000000000000000000000000081526004016102c290612d9c565b60405180910390fd5b80600c8190555050565b8282601482829050111561031e576040517f08c379a000000000000000000000000000000000000000000000000000000000815260040161031590612e08565b60405180910390fd5b610326610ca2565b610365576040517f08c379a000000000000000000000000000000000000000000000000000000000815260040161035c90612e74565b60405180910390fd5b61036d610d0b565b1561037b5761037a610d76565b5b6103836110c1565b61038e8585856112d7565b5050505050565b61039d610c9a565b73ffffffffffffffffffffffffffffffffffffffff166103bb610ac9565b73ffffffffffffffffffffffffffffffffffffffff1614610411576040517f08c379a000000000000000000000000000000000000000000000000000000000815260040161040890612d9c565b60405180910390fd5b61041d81600954611b7c565b600060098190555050565b610430610c9a565b73ffffffffffffffffffffffffffffffffffffffff1661044e610ac9565b73ffffffffffffffffffffffffffffffffffffffff16146104a4576040517f08c379a000000000000000000000000000000000000000000000000000000000815260040161049b90612d9c565b60405180910390fd5b80600a6000600b5481526020019081526020016000206003018190555050565b6104cc610c9a565b73ffffffffffffffffffffffffffffffffffffffff166104ea610ac9565b73ffffffffffffffffffffffffffffffffffffffff1614610540576040517f08c379a000000000000000000000000000000000000000000000000000000000815260040161053790612d9c565b60405180910390fd5b61054a6000611c21565b565b6000610556610c9a565b73ffffffffffffffffffffffffffffffffffffffff16610574610ac9565b73ffffffffffffffffffffffffffffffffffffffff16146105ca576040517f08c379a00000000000000000000000000000000000000000000000000000000081526004016105c190612d9c565b60405180910390fd5b600954905090565b8282601482829050111561061b576040517f08c379a000000000000000000000000000000000000000000000000000000000815260040161061290612e08565b60405180910390fd5b610623611ce7565b610662576040517f08c379a000000000000000000000000000000000000000000000000000000000815260040161065990612ee0565b60405180910390fd5b826000600a6000600b5481526020019081526020016000206040518061012001604052908160008201548152602001600182015481526020016002820154815260200160038201548152602001600482015481526020016005820160009054906101000a900460ff16151515158152602001600682015481526020016007820180548060200260200160405190810160405280929190818152602001828054801561076257602002820191906000526020600020905b8160009054906101000a900473ffffffffffffffffffffffffffffffffffffffff1673ffffffffffffffffffffffffffffffffffffffff1681526020019060010190808311610718575b5050505050815260200160088201805480602002602001604051908101604052809291908181526020016000905b8282101561083c5783829060005260206000200180546107af90612f2f565b80601f01602080910402602001604051908101604052809291908181526020018280546107db90612f2f565b80156108285780601f106107fd57610100808354040283529160200191610828565b820191906000526020600020905b81548152906001019060200180831161080b57829003601f168201915b505050505081526020019060010190610790565b505050508152505090506000600854826020015161085a9190612f8f565b905080831015816040516020016108719190613083565b604051602081830303815290604052906108c1576040517f08c379a00000000000000000000000000000000000000000000000000000000081526004016108b891906130e2565b60405180910390fd5b506108cd8888886112d7565b5050505050505050565b6108df612539565b6000600a6000600b5481526020019081526020016000206040518061012001604052908160008201548152602001600182015481526020016002820154815260200160038201548152602001600482015481526020016005820160009054906101000a900460ff1615151515815260200160068201548152602001600782018054806020026020016040519081016040528092919081815260200182805480156109de57602002820191906000526020600020905b8160009054906101000a900473ffffffffffffffffffffffffffffffffffffffff1673ffffffffffffffffffffffffffffffffffffffff1681526020019060010190808311610994575b5050505050815260200160088201805480602002602001604051908101604052809291908181526020016000905b82821015610ab8578382906000526020600020018054610a2b90612f2f565b80601f0160208091040260200160405190810160405280929190818152602001828054610a5790612f2f565b8015610aa45780601f10610a7957610100808354040283529160200191610aa4565b820191906000526020600020905b815481529060010190602001808311610a8757829003601f168201915b505050505081526020019060010190610a0c565b505050508152505090508091505090565b6000600260009054906101000a900473ffffffffffffffffffffffffffffffffffffffff16905090565b600080600080600460000154600460010154600460020154600460030154935093509350935090919293565b600c5481565b6000806000815480929190610b3990613104565b91905055508260018484610b4d919061314c565b610b579190612f8f565b4233600054604051602001610b6e939291906131c8565b6040516020818303038152906040528051906020012060001c610b919190613234565b610b9b9190612f8f565b905092915050565b610bab610c9a565b73ffffffffffffffffffffffffffffffffffffffff16610bc9610ac9565b73ffffffffffffffffffffffffffffffffffffffff1614610c1f576040517f08c379a0000000000000000000000000000000000000000000000000000000008152600401610c1690612d9c565b60405180910390fd5b600073ffffffffffffffffffffffffffffffffffffffff168173ffffffffffffffffffffffffffffffffffffffff1603610c8e576040517f08c379a0000000000000000000000000000000000000000000000000000000008152600401610c85906132d7565b60405180910390fd5b610c9781611c21565b50565b600033905090565b600080600b541480610cd75750600a6000600b54815260200190815260200160002060050160009054906101000a900460ff16155b80610d06575042600c54600a6000600b54815260200190815260200160002060060154610d049190612f8f565b105b905090565b600080600b5414158015610d415750600a6000600b54815260200190815260200160002060050160009054906101000a900460ff165b8015610d71575042600c54600a6000600b54815260200190815260200160002060060154610d6f9190612f8f565b105b905090565b6000600a6000600b54815260200190815260200160002090506000610e2282600701805480602002602001604051908101604052809291908181526020018280548015610e1857602002820191906000526020600020905b8160009054906101000a900473ffffffffffffffffffffffffffffffffffffffff1673ffffffffffffffffffffffffffffffffffffffff1681526020019060010190808311610dce575b5050505050611d52565b90506000818360020154610e3691906132f7565b905060005b836007018054905081101561106057600073ffffffffffffffffffffffffffffffffffffffff16846007018281548110610e7857610e77613328565b5b9060005260206000200160009054906101000a900473ffffffffffffffffffffffffffffffffffffffff1673ffffffffffffffffffffffffffffffffffffffff161461104d5760006040518060400160405280866007018481548110610ee157610ee0613328565b5b9060005260206000200160009054906101000a900473ffffffffffffffffffffffffffffffffffffffff1673ffffffffffffffffffffffffffffffffffffffff168152602001866008018481548110610f3d57610f3c613328565b5b906000526020600020018054610f5290612f2f565b80601f0160208091040260200160405190810160405280929190818152602001828054610f7e90612f2f565b8015610fcb5780601f10610fa057610100808354040283529160200191610fcb565b820191906000526020600020905b815481529060010190602001808311610fae57829003601f168201915b505050505081525090506000604051806060016040528083815260200184815260200185815250905061100682600001518260400151611b7c565b85600001547f3613fabf6fc435a84d1c4464ad68dfcf90a2ecb0b6c84bee641028a370b0399942886004015484604051611042939291906133e4565b60405180910390a250505b808061105890613104565b915050610e3b565b5060008360050160006101000a81548160ff02191690831515021790555082600001547f4c536fd1e1e568a756991aa569a445d002f327eed825ab91e42da06a41a5d1a542856040516110b49291906137bb565b60405180910390a2505050565b60006110d060646107d0610b25565b9050600b60008154809291906110e590613104565b91905055506000600a67ffffffffffffffff811115611107576111066137eb565b5b6040519080825280602002602001820160405280156111355781602001602082028036833780820191505090505b5090506000600a67ffffffffffffffff811115611155576111546137eb565b5b60405190808252806020026020018201604052801561118857816020015b60608152602001906001900390816111735790505b509050604051806101200160405280600b54815260200160008152602001600081526020018481526020016000815260200160011515815260200142815260200183815260200182815250600a6000600b548152602001908152602001600020600082015181600001556020820151816001015560408201518160020155606082015181600301556080820151816004015560a08201518160050160006101000a81548160ff02191690831515021790555060c0820151816006015560e0820151816007019080519060200190611260929190612587565b5061010082015181600801908051906020019061127e929190612611565b50905050600b547fd0bfa42bb2bf31a3dd263ec57f37346ecea2558b4273db9e941855d1ced89eaf42600a6000600b5481526020019081526020016000206040516112ca929190613932565b60405180910390a2505050565b806000600a6000600b5481526020019081526020016000206040518061012001604052908160008201548152602001600182015481526020016002820154815260200160038201548152602001600482015481526020016005820160009054906101000a900460ff1615151515815260200160068201548152602001600782018054806020026020016040519081016040528092919081815260200182805480156113d757602002820191906000526020600020905b8160009054906101000a900473ffffffffffffffffffffffffffffffffffffffff1673ffffffffffffffffffffffffffffffffffffffff168152602001906001019080831161138d575b5050505050815260200160088201805480602002602001604051908101604052809291908181526020016000905b828210156114b157838290600052602060002001805461142490612f2f565b80601f016020809104026020016040519081016040528092919081815260200182805461145090612f2f565b801561149d5780601f106114725761010080835404028352916020019161149d565b820191906000526020600020905b81548152906001019060200180831161148057829003601f168201915b505050505081526020019060010190611405565b50505050815250509050600060085482602001516114cf9190612f8f565b905080831015816040516020016114e69190613083565b60405160208183030381529060405290611536576040517f08c379a000000000000000000000000000000000000000000000000000000000815260040161152d91906130e2565b60405180910390fd5b506000600a6000600b5481526020019081526020016000209050600060405180604001604052803373ffffffffffffffffffffffffffffffffffffffff16815260200189898080601f016020809104026020016040519081016040528093929190818152602001838380828437600081840152601f19601f82011690508083019250505050505050815250905060006115e36000600185600701805490506115de919061314c565b610b25565b905060006116788460070180548060200260200160405190810160405280929190818152602001828054801561166e57602002820191906000526020600020905b8160009054906101000a900473ffffffffffffffffffffffffffffffffffffffff1673ffffffffffffffffffffffffffffffffffffffff1681526020019060010190808311611624575b5050505050611d52565b90506000806000806116898c611ddf565b935093509350935061169a8c611e80565b8760040160008154809291906116af90613104565b91905055504288600601819055508b8860010181905550806009546116d49190612f8f565b600981905550600073ffffffffffffffffffffffffffffffffffffffff1688600701878154811061170857611707613328565b5b9060005260206000200160009054906101000a900473ffffffffffffffffffffffffffffffffffffffff1673ffffffffffffffffffffffffffffffffffffffff160361176157818361175a9190612f8f565b9250611937565b611936886040518061012001604052908160008201548152602001600182015481526020016002820154815260200160038201548152602001600482015481526020016005820160009054906101000a900460ff16151515158152602001600682015481526020016007820180548060200260200160405190810160405280929190818152602001828054801561184d57602002820191906000526020600020905b8160009054906101000a900473ffffffffffffffffffffffffffffffffffffffff1673ffffffffffffffffffffffffffffffffffffffff1681526020019060010190808311611803575b5050505050815260200160088201805480602002602001604051908101604052809291908181526020016000905b8282101561192757838290600052602060002001805461189a90612f2f565b80601f01602080910402602001604051908101604052809291908181526020018280546118c690612f2f565b80156119135780601f106118e857610100808354040283529160200191611913565b820191906000526020600020905b8154815290600101906020018083116118f657829003601f168201915b50505050508152602001906001019061187b565b50505050815250508784611f26565b5b6000850361195257838361194b9190612f8f565b9250611b32565b611b31886040518061012001604052908160008201548152602001600182015481526020016002820154815260200160038201548152602001600482015481526020016005820160009054906101000a900460ff161515151581526020016006820154815260200160078201805480602002602001604051908101604052809291908181526020018280548015611a3e57602002820191906000526020600020905b8160009054906101000a900473ffffffffffffffffffffffffffffffffffffffff1673ffffffffffffffffffffffffffffffffffffffff16815260200190600101908083116119f4575b5050505050815260200160088201805480602002602001604051908101604052809291908181526020016000905b82821015611b18578382906000526020600020018054611a8b90612f2f565b80601f0160208091040260200160405190810160405280929190818152602001828054611ab790612f2f565b8015611b045780601f10611ad957610100808354040283529160200191611b04565b820191906000526020600020905b815481529060010190602001808311611ae757829003601f168201915b505050505081526020019060010190611a6c565b50505050815250508686611b2c91906132f7565b61205b565b5b828860020154611b429190612f8f565b8860020181905550611b5488886121b9565b8760040154886003015403611b6c57611b6b610d76565b5b5050505050505050505050505050565b600360009054906101000a900473ffffffffffffffffffffffffffffffffffffffff1673ffffffffffffffffffffffffffffffffffffffff1663a9059cbb83836040518363ffffffff1660e01b8152600401611bd9929190613962565b6020604051808303816000875af1158015611bf8573d6000803e3d6000fd5b505050506040513d601f19601f82011682018060405250810190611c1c91906139b7565b505050565b6000600260009054906101000a900473ffffffffffffffffffffffffffffffffffffffff16905081600260006101000a81548173ffffffffffffffffffffffffffffffffffffffff021916908373ffffffffffffffffffffffffffffffffffffffff1602179055508173ffffffffffffffffffffffffffffffffffffffff168173ffffffffffffffffffffffffffffffffffffffff167f8be0079c531659141344cd1fd0a4f28419497f9722a3daafe3b4186f6b6457e060405160405180910390a35050565b600080600b5414158015611d1d5750600a6000600b54815260200190815260200160002060050160009054906101000a900460ff165b8015611d4d575042600c54600a6000600b54815260200190815260200160002060060154611d4b9190612f8f565b115b905090565b6000806000905060005b8351811015611dd557600073ffffffffffffffffffffffffffffffffffffffff16848281518110611d9057611d8f613328565b5b602002602001015173ffffffffffffffffffffffffffffffffffffffff1614611dc2578180611dbe90613104565b9250505b8080611dcd90613104565b915050611d5c565b5080915050919050565b6000806000806000606460046001015487611dfa91906139e4565b611e0491906132f7565b90506000606460046003015488611e1b91906139e4565b611e2591906132f7565b90506000606460046002015489611e3c91906139e4565b611e4691906132f7565b9050600060646004600001548a611e5d91906139e4565b611e6791906132f7565b9050838383839750975097509750505050509193509193565b600360009054906101000a900473ffffffffffffffffffffffffffffffffffffffff1673ffffffffffffffffffffffffffffffffffffffff166323b872dd3330846040518463ffffffff1660e01b8152600401611edf93929190613a3e565b6020604051808303816000875af1158015611efe573d6000803e3d6000fd5b505050506040513d601f19601f82011682018060405250810190611f2291906139b7565b5050565b60008360e001518381518110611f3f57611f3e613328565b5b60200260200101519050600073ffffffffffffffffffffffffffffffffffffffff168173ffffffffffffffffffffffffffffffffffffffff1614158015611f865750600082115b1561205557600060405180604001604052808373ffffffffffffffffffffffffffffffffffffffff1681526020018661010001518681518110611fcc57611fcb613328565b5b602002602001015181525090506000604051806060016040528083815260200186815260200185815250905061200e8160000151600001518260400151611b7c565b85600001517f83fc380a9d5549514bdd6f9eb1c0614f21442b80e7f0bb6bcd23f0c6decd7fc94288608001518460405161204a939291906133e4565b60405180910390a250505b50505050565b60005b8260e00151518110156121b457600073ffffffffffffffffffffffffffffffffffffffff168360e00151828151811061209a57612099613328565b5b602002602001015173ffffffffffffffffffffffffffffffffffffffff16146121a157600060405180604001604052808560e0015184815181106120e1576120e0613328565b5b602002602001015173ffffffffffffffffffffffffffffffffffffffff168152602001856101000151848151811061211c5761211b613328565b5b602002602001015181525090506000604051806060016040528083815260200184815260200185815250905061215a82600001518260400151611b7c565b84600001517f8fd618cbe5cbf53112cc78a83d24e8e86e458bd853c2984d93b8aaf56af93d2942876080015184604051612196939291906133e4565b60405180910390a250505b80806121ac90613104565b91505061205e565b505050565b60006121c36123e4565b9050600060405180604001604052808560070184815481106121e8576121e7613328565b5b9060005260206000200160009054906101000a900473ffffffffffffffffffffffffffffffffffffffff1673ffffffffffffffffffffffffffffffffffffffff16815260200185600801848154811061224457612243613328565b5b90600052602060002001805461225990612f2f565b80601f016020809104026020016040519081016040528092919081815260200182805461228590612f2f565b80156122d25780601f106122a7576101008083540402835291602001916122d2565b820191906000526020600020905b8154815290600101906020018083116122b557829003601f168201915b5050505050815250905060006040518060600160405280858152602001838152602001848152509050836000015185600701848154811061231657612315613328565b5b9060005260206000200160006101000a81548173ffffffffffffffffffffffffffffffffffffffff021916908373ffffffffffffffffffffffffffffffffffffffff160217905550836020015185600801848154811061237957612378613328565b5b906000526020600020019080519060200190612396929190612671565b5084600001547fb60711d72e2238cb0a59f954dc67bc8c4c4ea86080c6dc849e7eda235d8b129342876004015484896040516123d59493929190613acc565b60405180910390a25050505050565b600061243f600180548060200260200160405190810160405280929190818152602001828054801561243557602002820191906000526020600020905b815481526020019060010190808311612421575b5050505050612444565b905090565b60008060009050600080806000905060005b865181101561249a5786818151811061247257612471613328565b5b6020026020010151856124859190612f8f565b9450808061249290613104565b915050612456565b506124a6600185610b25565b915060005b865181101561252c5783831180156124e857508681815181106124d1576124d0613328565b5b6020026020010151846124e49190612f8f565b8311155b156124f1578091505b86818151811061250457612503613328565b5b6020026020010151846125179190612f8f565b9350808061252490613104565b9150506124ab565b5080945050505050919050565b60405180610120016040528060008152602001600081526020016000815260200160008152602001600081526020016000151581526020016000815260200160608152602001606081525090565b828054828255906000526020600020908101928215612600579160200282015b828111156125ff5782518260006101000a81548173ffffffffffffffffffffffffffffffffffffffff021916908373ffffffffffffffffffffffffffffffffffffffff160217905550916020019190600101906125a7565b5b50905061260d91906126f7565b5090565b828054828255906000526020600020908101928215612660579160200282015b8281111561265f57825182908051906020019061264f929190612671565b5091602001919060010190612631565b5b50905061266d9190612714565b5090565b82805461267d90612f2f565b90600052602060002090601f01602090048101928261269f57600085556126e6565b82601f106126b857805160ff19168380011785556126e6565b828001600101855582156126e6579182015b828111156126e55782518255916020019190600101906126ca565b5b5090506126f391906126f7565b5090565b5b808211156127105760008160009055506001016126f8565b5090565b5b80821115612734576000818161272b9190612738565b50600101612715565b5090565b50805461274490612f2f565b6000825580601f106127565750612775565b601f01602090049060005260206000209081019061277491906126f7565b5b50565b600080fd5b600080fd5b6000819050919050565b61279581612782565b81146127a057600080fd5b50565b6000813590506127b28161278c565b92915050565b6000602082840312156127ce576127cd612778565b5b60006127dc848285016127a3565b91505092915050565b600080fd5b600080fd5b600080fd5b60008083601f84011261280a576128096127e5565b5b8235905067ffffffffffffffff811115612827576128266127ea565b5b602083019150836001820283011115612843576128426127ef565b5b9250929050565b60008060006040848603121561286357612862612778565b5b600084013567ffffffffffffffff8111156128815761288061277d565b5b61288d868287016127f4565b935093505060206128a0868287016127a3565b9150509250925092565b600073ffffffffffffffffffffffffffffffffffffffff82169050919050565b60006128d5826128aa565b9050919050565b6128e5816128ca565b81146128f057600080fd5b50565b600081359050612902816128dc565b92915050565b60006020828403121561291e5761291d612778565b5b600061292c848285016128f3565b91505092915050565b61293e81612782565b82525050565b60006020820190506129596000830184612935565b92915050565b61296881612782565b82525050565b60008115159050919050565b6129838161296e565b82525050565b600081519050919050565b600082825260208201905092915050565b6000819050602082019050919050565b6129be816128ca565b82525050565b60006129d083836129b5565b60208301905092915050565b6000602082019050919050565b60006129f482612989565b6129fe8185612994565b9350612a09836129a5565b8060005b83811015612a3a578151612a2188826129c4565b9750612a2c836129dc565b925050600181019050612a0d565b5085935050505092915050565b600081519050919050565b600082825260208201905092915050565b6000819050602082019050919050565b600081519050919050565b600082825260208201905092915050565b60005b83811015612aad578082015181840152602081019050612a92565b83811115612abc576000848401525b50505050565b6000601f19601f8301169050919050565b6000612ade82612a73565b612ae88185612a7e565b9350612af8818560208601612a8f565b612b0181612ac2565b840191505092915050565b6000612b188383612ad3565b905092915050565b6000602082019050919050565b6000612b3882612a47565b612b428185612a52565b935083602082028501612b5485612a63565b8060005b85811015612b905784840389528151612b718582612b0c565b9450612b7c83612b20565b925060208a01995050600181019050612b58565b50829750879550505050505092915050565b600061012083016000830151612bbb600086018261295f565b506020830151612bce602086018261295f565b506040830151612be1604086018261295f565b506060830151612bf4606086018261295f565b506080830151612c07608086018261295f565b5060a0830151612c1a60a086018261297a565b5060c0830151612c2d60c086018261295f565b5060e083015184820360e0860152612c4582826129e9565b915050610100830151848203610100860152612c618282612b2d565b9150508091505092915050565b60006020820190508181036000830152612c888184612ba2565b905092915050565b612c99816128ca565b82525050565b6000602082019050612cb46000830184612c90565b92915050565b6000608082019050612ccf6000830187612935565b612cdc6020830186612935565b612ce96040830185612935565b612cf66060830184612935565b95945050505050565b60008060408385031215612d1657612d15612778565b5b6000612d24858286016127a3565b9250506020612d35858286016127a3565b9150509250929050565b600082825260208201905092915050565b7f4f776e61626c653a2063616c6c6572206973206e6f7420746865206f776e6572600082015250565b6000612d86602083612d3f565b9150612d9182612d50565b602082019050919050565b60006020820190508181036000830152612db581612d79565b9050919050565b7f6d6178206c656e67746820323020636861726163746572730000000000000000600082015250565b6000612df2601883612d3f565b9150612dfd82612dbc565b602082019050919050565b60006020820190508181036000830152612e2181612de5565b9050919050565b7f746865726520697320616e2061637469766520726f6f6d000000000000000000600082015250565b6000612e5e601783612d3f565b9150612e6982612e28565b602082019050919050565b60006020820190508181036000830152612e8d81612e51565b9050919050565b7f6e6f2061637469766520726f6f6d000000000000000000000000000000000000600082015250565b6000612eca600e83612d3f565b9150612ed582612e94565b602082019050919050565b60006020820190508181036000830152612ef981612ebd565b9050919050565b7f4e487b7100000000000000000000000000000000000000000000000000000000600052602260045260246000fd5b60006002820490506001821680612f4757607f821691505b602082108103612f5a57612f59612f00565b5b50919050565b7f4e487b7100000000000000000000000000000000000000000000000000000000600052601160045260246000fd5b6000612f9a82612782565b9150612fa583612782565b9250827fffffffffffffffffffffffffffffffffffffffffffffffffffffffffffffffff03821115612fda57612fd9612f60565b5b828201905092915050565b600081905092915050565b7f616d6f756e74206d7573742062652067726561746572207468616e206f72206560008201527f7175616c20746f20000000000000000000000000000000000000000000000000602082015250565b600061304c602883612fe5565b915061305782612ff0565b602882019050919050565b6000819050919050565b61307d61307882612782565b613062565b82525050565b600061308e8261303f565b915061309a828461306c565b60208201915081905092915050565b60006130b482612a73565b6130be8185612d3f565b93506130ce818560208601612a8f565b6130d781612ac2565b840191505092915050565b600060208201905081810360008301526130fc81846130a9565b905092915050565b600061310f82612782565b91507fffffffffffffffffffffffffffffffffffffffffffffffffffffffffffffffff820361314157613140612f60565b5b600182019050919050565b600061315782612782565b915061316283612782565b92508282101561317557613174612f60565b5b828203905092915050565b60008160601b9050919050565b600061319882613180565b9050919050565b60006131aa8261318d565b9050919050565b6131c26131bd826128ca565b61319f565b82525050565b60006131d4828661306c565b6020820191506131e482856131b1565b6014820191506131f4828461306c565b602082019150819050949350505050565b7f4e487b7100000000000000000000000000000000000000000000000000000000600052601260045260246000fd5b600061323f82612782565b915061324a83612782565b92508261325a57613259613205565b5b828206905092915050565b7f4f776e61626c653a206e6577206f776e657220697320746865207a65726f206160008201527f6464726573730000000000000000000000000000000000000000000000000000602082015250565b60006132c1602683612d3f565b91506132cc82613265565b604082019050919050565b600060208201905081810360008301526132f0816132b4565b9050919050565b600061330282612782565b915061330d83612782565b92508261331d5761331c613205565b5b828204905092915050565b7f4e487b7100000000000000000000000000000000000000000000000000000000600052603260045260246000fd5b600060408301600083015161336f60008601826129b5565b50602083015184820360208601526133878282612ad3565b9150508091505092915050565b600060608301600083015184820360008601526133b18282613357565b91505060208301516133c6602086018261295f565b5060408301516133d9604086018261295f565b508091505092915050565b60006060820190506133f96000830186612935565b6134066020830185612935565b81810360408301526134188184613394565b9050949350505050565b60008160001c9050919050565b6000819050919050565b600061344c61344783613422565b61342f565b9050919050565b600060ff82169050919050565b600061347361346e83613422565b613453565b9050919050565b600081549050919050565b60008190508160005260206000209050919050565b600073ffffffffffffffffffffffffffffffffffffffff82169050919050565b60006134cd6134c883613422565b61349a565b9050919050565b60006134e082546134ba565b9050919050565b6000600182019050919050565b60006134ff8261347a565b6135098185612994565b935061351483613485565b8060005b8381101561354c57613529826134d4565b61353388826129c4565b975061353e836134e7565b925050600181019050613518565b5085935050505092915050565b600081549050919050565b60008190508160005260206000209050919050565b60008190508160005260206000209050919050565b6000815461359b81612f2f565b6135a58186612a7e565b945060018216600081146135c057600181146135d257613605565b60ff1983168652602086019350613605565b6135db85613579565b60005b838110156135fd578154818901526001820191506020810190506135de565b808801955050505b50505092915050565b600061361a838361358e565b905092915050565b6000600182019050919050565b600061363a82613559565b6136448185612a52565b93508360208202850161365685613564565b8060005b8581101561369157848403895281613672858261360e565b945061367d83613622565b925060208a0199505060018101905061365a565b50829750879550505050505092915050565b6000610120830160008084015490506136bb81613439565b6136c8600087018261295f565b50600184015490506136d981613439565b6136e6602087018261295f565b50600284015490506136f781613439565b613704604087018261295f565b506003840154905061371581613439565b613722606087018261295f565b506004840154905061373381613439565b613740608087018261295f565b506005840154905061375181613460565b61375e60a087018261297a565b506006840154905061376f81613439565b61377c60c087018261295f565b506007840185830360e087015261379383826134f4565b925050600884018583036101008701526137ad838261362f565b925050819250505092915050565b60006040820190506137d06000830185612935565b81810360208301526137e281846136a3565b90509392505050565b7f4e487b7100000000000000000000000000000000000000000000000000000000600052604160045260246000fd5b60006101208301600080840154905061383281613439565b61383f600087018261295f565b506001840154905061385081613439565b61385d602087018261295f565b506002840154905061386e81613439565b61387b604087018261295f565b506003840154905061388c81613439565b613899606087018261295f565b50600484015490506138aa81613439565b6138b7608087018261295f565b50600584015490506138c881613460565b6138d560a087018261297a565b50600684015490506138e681613439565b6138f360c087018261295f565b506007840185830360e087015261390a83826134f4565b92505060088401858303610100870152613924838261362f565b925050819250505092915050565b60006040820190506139476000830185612935565b8181036020830152613959818461381a565b90509392505050565b60006040820190506139776000830185612c90565b6139846020830184612935565b9392505050565b6139948161296e565b811461399f57600080fd5b50565b6000815190506139b18161398b565b92915050565b6000602082840312156139cd576139cc612778565b5b60006139db848285016139a2565b91505092915050565b60006139ef82612782565b91506139fa83612782565b9250817fffffffffffffffffffffffffffffffffffffffffffffffffffffffffffffffff0483118215151615613a3357613a32612f60565b5b828202905092915050565b6000606082019050613a536000830186612c90565b613a606020830185612c90565b613a6d6040830184612935565b949350505050565b60006060830160008301518482036000860152613a928282613357565b91505060208301518482036020860152613aac8282613357565b9150506040830151613ac1604086018261295f565b508091505092915050565b6000608082019050613ae16000830187612935565b613aee6020830186612935565b8181036040830152613b008185613a75565b90508181036060830152613b1481846136a3565b90509594505050505056fea2646970667358221220f7f0b0a71cd133c7fa821b8e52e71e5bba0d5487823dae7453c2619e83cb783764736f6c634300080d0033",
  "immutableReferences": {},
  "source": "pragma solidity ^0.8.0;\n\nimport \"./randomize.sol\";\nimport \"./tokenomic.sol\";\n\ncontract MagicRoom is Randomize, Tokenomic {\n  mapping(uint256 => Room) rooms;\n  uint roomCount = 0;\n  uint public idleTime = 10 minutes;\n\n  constructor(address _tokenAddress) Tokenomic(_tokenAddress) {}\n\n  event StartRoom(uint256 timestamp, uint indexed roomId, Room room);\n  event FinishRoom(uint256 timestamp, uint indexed roomId, Room room);\n  event Vip(uint256 timestamp, uint indexed roomId, uint step, RewardInfo reward);\n  event Reward(uint256 timestamp, uint indexed roomId, uint step, RewardInfo reward);\n  event Winner(uint256 timestamp, uint indexed roomId, uint step, RewardInfo reward);\n  event ChangeChair(uint256 timestamp, uint indexed roomId, uint step, ChairChangesInfo chairChanges, Room room);\n\n  struct Room {\n    uint id;\n    uint price;\n    uint bank;\n    uint steps;\n    uint step;\n    bool active;\n    uint lastActionTime;\n    address[] chairs;\n    string[] names;\n  }\n\n  struct RewardInfo {\n    Member member;\n    uint index;\n    uint value;\n  }\n\n  struct Member {\n    address account;\n    string name;\n  }\n\n  struct ChairChangesInfo {\n    Member enter;\n    Member leave;\n    uint index;\n  }\n\n  modifier currentRoomIsNotActive () {\n    require(\n      _currentRoomIsNotActive(),\n      \"there is an active room\"\n    );\n    _;\n  }\n\n  modifier currentRoomIsActive () {\n    require(\n      _currentRoomIsActive(),\n      \"no active room\"\n    );\n    _;\n  }\n\n  modifier currentRoomIsActiveAndNot () {\n    require(\n      _currentRoomIsActive(),\n      \"no active room\"\n    );\n    _;\n  }\n\n  modifier availableAmount (uint _amount) {\n    Room memory room = rooms[roomCount];\n    uint min = room.price + minPrice;\n    require(_amount >= min, string(abi.encodePacked(\"amount must be greater than or equal to \", min)));\n    _;\n  }\n\n  modifier availableName (string calldata _name) {\n    require(bytes(_name).length <= 20, \"max length 20 characters\");\n    _;\n  }\n\n  function setStepsCount(uint count) external onlyOwner {\n    rooms[roomCount].steps = count;\n  }\n\n  function setIdleTime(uint _idleTime) external onlyOwner {\n    idleTime = _idleTime;\n  }\n\n  function createRoom(string calldata _name, uint _amount) external availableName(_name) currentRoomIsNotActive {\n    if (_currentRoomIsDead()) {\n      _finishRoom();\n    }\n    _createRoom();\n    _enterToRoom(_name, _amount);\n  }\n\n  function getCurrentRoom() external view returns(Room memory room) {\n    Room memory room = rooms[roomCount];\n    return room;\n  }\n\n  function enterToRoom(string calldata _name, uint _amount) external availableName(_name) currentRoomIsActive availableAmount(_amount) {\n    _enterToRoom(_name, _amount);\n  }\n\n  function _currentRoomIsNotActive() private returns(bool) {\n    return (\n    roomCount == 0\n    || !rooms[roomCount].active\n    || rooms[roomCount].lastActionTime + idleTime < block.timestamp\n    );\n  }\n\n  function _currentRoomIsActive() private returns(bool) {\n    return (\n    roomCount != 0\n    && rooms[roomCount].active\n    && rooms[roomCount].lastActionTime + idleTime > block.timestamp\n    );\n  }\n\n  function _currentRoomIsDead() private returns(bool) {\n    return (\n    roomCount != 0\n    && rooms[roomCount].active\n    && rooms[roomCount].lastActionTime + idleTime < block.timestamp\n    );\n  }\n\n  function _createRoom () private {\n    uint steps = getRandomRange(100, 2000);\n    roomCount++;\n    address[] memory chairs = new address[](10);\n    string[] memory names = new string[](10);\n    rooms[roomCount] = Room(roomCount, 0, 0, steps, 0, true, block.timestamp, chairs, names);\n    emit StartRoom(block.timestamp, roomCount, rooms[roomCount]);\n  }\n\n  function _enterToRoom(string calldata _name, uint _amount) private availableAmount(_amount) {\n    Room storage room = rooms[roomCount];\n    Member memory enter = Member(msg.sender, _name);\n    uint vipChair = getRandomRange(0, room.chairs.length - 1);\n    uint rewardAddressCount = getValidAddressCount(room.chairs);\n    (uint rewards, uint winners, uint vip, uint fee) = getShares(_amount);\n\n    getTokens(_amount);\n\n    room.step++;\n    room.lastActionTime = block.timestamp;\n    room.price = _amount;\n    balance = balance + fee;\n\n    if (room.chairs[vipChair] == address(0)) {\n      winners = winners + vip;\n    } else {\n      _sendRewardToVip(room, vipChair, vip);\n    }\n    if (rewardAddressCount == 0) {\n      winners = winners + rewards;\n    } else {\n      _sendRewardToMembers(room, rewards / rewardAddressCount);\n    }\n\n    room.bank = room.bank + winners;\n    _changeChair(room, enter);\n\n    if (room.steps == room.step) {\n      _finishRoom();\n    }\n  }\n\n  function _changeChair(Room storage _room, Member memory enter) private {\n    uint index = getRandomChair();\n    Member memory leave = Member(_room.chairs[index], _room.names[index]);\n    ChairChangesInfo memory chairUpdate = ChairChangesInfo(enter, leave, index);\n    _room.chairs[index] = enter.account;\n    _room.names[index] = enter.name;\n    emit ChangeChair(block.timestamp, _room.id, _room.step, chairUpdate, _room);\n  }\n\n  function _sendRewardToVip(Room memory _room, uint _index, uint _amount) private {\n    address to = _room.chairs[_index];\n    if (to != address(0) && _amount > 0) {\n      Member memory member = Member(to, _room.names[_index]);\n      RewardInfo memory rewardInfo = RewardInfo(member, _index, _amount);\n      sendTokens(rewardInfo.member.account, rewardInfo.value);\n      emit Vip(block.timestamp, _room.id, _room.step, rewardInfo);\n    }\n  }\n\n  function _sendRewardToMembers(Room memory _room, uint _amount) private {\n    for (uint i = 0; i < _room.chairs.length; i++) {\n      if (_room.chairs[i] != address(0)) {\n        Member memory member = Member(_room.chairs[i], _room.names[i]);\n        RewardInfo memory rewardInfo = RewardInfo(member, i, _amount);\n        sendTokens(member.account, rewardInfo.value);\n        emit Reward(block.timestamp, _room.id, _room.step, rewardInfo);\n      }\n    }\n  }\n\n  function _finishRoom() private {\n    Room storage room = rooms[roomCount];\n    uint rewardAddressCount = getValidAddressCount(room.chairs);\n    uint bankRewardPerChair = room.bank / rewardAddressCount;\n\n    for (uint i = 0; i < room.chairs.length; i++) {\n      if (room.chairs[i] != address(0)) {\n        Member memory member = Member(room.chairs[i], room.names[i]);\n        RewardInfo memory rewardInfo = RewardInfo(member, i, bankRewardPerChair);\n        sendTokens(member.account, rewardInfo.value);\n        emit Winner(block.timestamp, room.id, room.step, rewardInfo);\n      }\n    }\n\n    room.active = false;\n    emit FinishRoom(block.timestamp, room.id, room);\n  }\n\n  function getValidAddressCount(address[] memory _addresses) internal returns(uint) {\n    uint counter = 0;\n    for (uint i = 0; i < _addresses.length; i++) {\n      if (_addresses[i] != address(0)) {\n        counter++;\n      }\n    }\n    return counter;\n  }\n\n}\n",
  "sourcePath": "/Users/sergeysavin/projects/magic-room/contract/contracts/MagicRoom.sol",
  "compiler": {
    "name": "solc",
    "version": "0.8.13+commit.abaa5c0e.Emscripten.clang"
  },
  "schemaVersion": "3.4.7",
  "updatedAt": "2022-05-24T12:57:42.001Z",
  "networkType": "ethereum",
  "devdoc": {
    "kind": "dev",
    "methods": {
      "owner()": {
        "details": "Returns the address of the current owner."
      },
      "renounceOwnership()": {
        "details": "Leaves the contract without owner. It will not be possible to call `onlyOwner` functions anymore. Can only be called by the current owner. NOTE: Renouncing ownership will leave the contract without an owner, thereby removing any functionality that is only available to the owner."
      },
      "transferOwnership(address)": {
        "details": "Transfers ownership of the contract to a new account (`newOwner`). Can only be called by the current owner."
      }
    },
    "version": 1
  },
  "userdoc": {
    "kind": "user",
    "methods": {},
    "version": 1
  }
}