{
  "contractName": "MagicRoom",
  "abi": [
    {
      "inputs": [
        {
          "internalType": "address",
          "name": "_tokenAddress",
          "type": "address"
        }
      ],
      "stateMutability": "nonpayable",
      "type": "constructor"
    },
    {
      "anonymous": false,
      "inputs": [
        {
          "indexed": false,
          "internalType": "uint256",
          "name": "timestamp",
          "type": "uint256"
        },
        {
          "indexed": false,
          "internalType": "uint256",
          "name": "roomId",
          "type": "uint256"
        },
        {
          "indexed": false,
          "internalType": "uint256",
          "name": "step",
          "type": "uint256"
        },
        {
          "components": [
            {
              "components": [
                {
                  "internalType": "address",
                  "name": "account",
                  "type": "address"
                },
                {
                  "internalType": "string",
                  "name": "name",
                  "type": "string"
                }
              ],
              "internalType": "struct MagicRoom.Member",
              "name": "enter",
              "type": "tuple"
            },
            {
              "components": [
                {
                  "internalType": "address",
                  "name": "account",
                  "type": "address"
                },
                {
                  "internalType": "string",
                  "name": "name",
                  "type": "string"
                }
              ],
              "internalType": "struct MagicRoom.Member",
              "name": "leave",
              "type": "tuple"
            },
            {
              "internalType": "uint256",
              "name": "index",
              "type": "uint256"
            }
          ],
          "indexed": false,
          "internalType": "struct MagicRoom.ChairChangesInfo",
          "name": "chairChanges",
          "type": "tuple"
        },
        {
          "components": [
            {
              "internalType": "uint256",
              "name": "id",
              "type": "uint256"
            },
            {
              "internalType": "uint256",
              "name": "price",
              "type": "uint256"
            },
            {
              "internalType": "uint256",
              "name": "bank",
              "type": "uint256"
            },
            {
              "internalType": "uint256",
              "name": "steps",
              "type": "uint256"
            },
            {
              "internalType": "uint256",
              "name": "step",
              "type": "uint256"
            },
            {
              "internalType": "bool",
              "name": "active",
              "type": "bool"
            },
            {
              "internalType": "uint256",
              "name": "lastActionTime",
              "type": "uint256"
            },
            {
              "internalType": "address[]",
              "name": "chairs",
              "type": "address[]"
            },
            {
              "internalType": "string[]",
              "name": "names",
              "type": "string[]"
            }
          ],
          "indexed": false,
          "internalType": "struct MagicRoom.Room",
          "name": "room",
          "type": "tuple"
        }
      ],
      "name": "ChangeChair",
      "type": "event"
    },
    {
      "anonymous": false,
      "inputs": [
        {
          "indexed": false,
          "internalType": "uint256",
          "name": "timestamp",
          "type": "uint256"
        },
        {
          "indexed": false,
          "internalType": "uint256",
          "name": "roomId",
          "type": "uint256"
        },
        {
          "components": [
            {
              "internalType": "uint256",
              "name": "id",
              "type": "uint256"
            },
            {
              "internalType": "uint256",
              "name": "price",
              "type": "uint256"
            },
            {
              "internalType": "uint256",
              "name": "bank",
              "type": "uint256"
            },
            {
              "internalType": "uint256",
              "name": "steps",
              "type": "uint256"
            },
            {
              "internalType": "uint256",
              "name": "step",
              "type": "uint256"
            },
            {
              "internalType": "bool",
              "name": "active",
              "type": "bool"
            },
            {
              "internalType": "uint256",
              "name": "lastActionTime",
              "type": "uint256"
            },
            {
              "internalType": "address[]",
              "name": "chairs",
              "type": "address[]"
            },
            {
              "internalType": "string[]",
              "name": "names",
              "type": "string[]"
            }
          ],
          "indexed": false,
          "internalType": "struct MagicRoom.Room",
          "name": "room",
          "type": "tuple"
        }
      ],
      "name": "FinishRoom",
      "type": "event"
    },
    {
      "anonymous": false,
      "inputs": [
        {
          "indexed": true,
          "internalType": "address",
          "name": "previousOwner",
          "type": "address"
        },
        {
          "indexed": true,
          "internalType": "address",
          "name": "newOwner",
          "type": "address"
        }
      ],
      "name": "OwnershipTransferred",
      "type": "event"
    },
    {
      "anonymous": false,
      "inputs": [
        {
          "indexed": false,
          "internalType": "uint256",
          "name": "timestamp",
          "type": "uint256"
        },
        {
          "indexed": false,
          "internalType": "uint256",
          "name": "roomId",
          "type": "uint256"
        },
        {
          "indexed": false,
          "internalType": "uint256",
          "name": "step",
          "type": "uint256"
        },
        {
          "components": [
            {
              "components": [
                {
                  "internalType": "address",
                  "name": "account",
                  "type": "address"
                },
                {
                  "internalType": "string",
                  "name": "name",
                  "type": "string"
                }
              ],
              "internalType": "struct MagicRoom.Member",
              "name": "member",
              "type": "tuple"
            },
            {
              "internalType": "uint256",
              "name": "index",
              "type": "uint256"
            },
            {
              "internalType": "uint256",
              "name": "value",
              "type": "uint256"
            }
          ],
          "indexed": false,
          "internalType": "struct MagicRoom.RewardInfo",
          "name": "reward",
          "type": "tuple"
        }
      ],
      "name": "Reward",
      "type": "event"
    },
    {
      "anonymous": false,
      "inputs": [
        {
          "indexed": false,
          "internalType": "uint256",
          "name": "timestamp",
          "type": "uint256"
        },
        {
          "indexed": false,
          "internalType": "uint256",
          "name": "roomId",
          "type": "uint256"
        },
        {
          "components": [
            {
              "internalType": "uint256",
              "name": "id",
              "type": "uint256"
            },
            {
              "internalType": "uint256",
              "name": "price",
              "type": "uint256"
            },
            {
              "internalType": "uint256",
              "name": "bank",
              "type": "uint256"
            },
            {
              "internalType": "uint256",
              "name": "steps",
              "type": "uint256"
            },
            {
              "internalType": "uint256",
              "name": "step",
              "type": "uint256"
            },
            {
              "internalType": "bool",
              "name": "active",
              "type": "bool"
            },
            {
              "internalType": "uint256",
              "name": "lastActionTime",
              "type": "uint256"
            },
            {
              "internalType": "address[]",
              "name": "chairs",
              "type": "address[]"
            },
            {
              "internalType": "string[]",
              "name": "names",
              "type": "string[]"
            }
          ],
          "indexed": false,
          "internalType": "struct MagicRoom.Room",
          "name": "room",
          "type": "tuple"
        }
      ],
      "name": "StartRoom",
      "type": "event"
    },
    {
      "anonymous": false,
      "inputs": [
        {
          "indexed": false,
          "internalType": "uint256",
          "name": "timestamp",
          "type": "uint256"
        },
        {
          "indexed": false,
          "internalType": "uint256",
          "name": "roomId",
          "type": "uint256"
        },
        {
          "indexed": false,
          "internalType": "uint256",
          "name": "step",
          "type": "uint256"
        },
        {
          "components": [
            {
              "components": [
                {
                  "internalType": "address",
                  "name": "account",
                  "type": "address"
                },
                {
                  "internalType": "string",
                  "name": "name",
                  "type": "string"
                }
              ],
              "internalType": "struct MagicRoom.Member",
              "name": "member",
              "type": "tuple"
            },
            {
              "internalType": "uint256",
              "name": "index",
              "type": "uint256"
            },
            {
              "internalType": "uint256",
              "name": "value",
              "type": "uint256"
            }
          ],
          "indexed": false,
          "internalType": "struct MagicRoom.RewardInfo",
          "name": "reward",
          "type": "tuple"
        }
      ],
      "name": "Vip",
      "type": "event"
    },
    {
      "anonymous": false,
      "inputs": [
        {
          "indexed": false,
          "internalType": "uint256",
          "name": "timestamp",
          "type": "uint256"
        },
        {
          "indexed": false,
          "internalType": "uint256",
          "name": "roomId",
          "type": "uint256"
        },
        {
          "indexed": false,
          "internalType": "uint256",
          "name": "step",
          "type": "uint256"
        },
        {
          "components": [
            {
              "components": [
                {
                  "internalType": "address",
                  "name": "account",
                  "type": "address"
                },
                {
                  "internalType": "string",
                  "name": "name",
                  "type": "string"
                }
              ],
              "internalType": "struct MagicRoom.Member",
              "name": "member",
              "type": "tuple"
            },
            {
              "internalType": "uint256",
              "name": "index",
              "type": "uint256"
            },
            {
              "internalType": "uint256",
              "name": "value",
              "type": "uint256"
            }
          ],
          "indexed": false,
          "internalType": "struct MagicRoom.RewardInfo",
          "name": "reward",
          "type": "tuple"
        }
      ],
      "name": "Winner",
      "type": "event"
    },
    {
      "inputs": [],
      "name": "balanceOf",
      "outputs": [
        {
          "internalType": "uint256",
          "name": "",
          "type": "uint256"
        }
      ],
      "stateMutability": "view",
      "type": "function",
      "constant": true
    },
    {
      "inputs": [
        {
          "internalType": "uint256",
          "name": "_min",
          "type": "uint256"
        },
        {
          "internalType": "uint256",
          "name": "_max",
          "type": "uint256"
        }
      ],
      "name": "getRandomRange",
      "outputs": [
        {
          "internalType": "uint256",
          "name": "",
          "type": "uint256"
        }
      ],
      "stateMutability": "nonpayable",
      "type": "function"
    },
    {
      "inputs": [],
      "name": "getTokenimic",
      "outputs": [
        {
          "internalType": "uint256",
          "name": "fee",
          "type": "uint256"
        },
        {
          "internalType": "uint256",
          "name": "reward",
          "type": "uint256"
        },
        {
          "internalType": "uint256",
          "name": "vip",
          "type": "uint256"
        },
        {
          "internalType": "uint256",
          "name": "winners",
          "type": "uint256"
        }
      ],
      "stateMutability": "view",
      "type": "function",
      "constant": true
    },
    {
      "inputs": [],
      "name": "owner",
      "outputs": [
        {
          "internalType": "address",
          "name": "",
          "type": "address"
        }
      ],
      "stateMutability": "view",
      "type": "function",
      "constant": true
    },
    {
      "inputs": [],
      "name": "renounceOwnership",
      "outputs": [],
      "stateMutability": "nonpayable",
      "type": "function"
    },
    {
      "inputs": [
        {
          "internalType": "uint256",
          "name": "",
          "type": "uint256"
        }
      ],
      "name": "rooms",
      "outputs": [
        {
          "internalType": "uint256",
          "name": "id",
          "type": "uint256"
        },
        {
          "internalType": "uint256",
          "name": "price",
          "type": "uint256"
        },
        {
          "internalType": "uint256",
          "name": "bank",
          "type": "uint256"
        },
        {
          "internalType": "uint256",
          "name": "steps",
          "type": "uint256"
        },
        {
          "internalType": "uint256",
          "name": "step",
          "type": "uint256"
        },
        {
          "internalType": "bool",
          "name": "active",
          "type": "bool"
        },
        {
          "internalType": "uint256",
          "name": "lastActionTime",
          "type": "uint256"
        }
      ],
      "stateMutability": "view",
      "type": "function",
      "constant": true
    },
    {
      "inputs": [
        {
          "internalType": "address",
          "name": "newOwner",
          "type": "address"
        }
      ],
      "name": "transferOwnership",
      "outputs": [],
      "stateMutability": "nonpayable",
      "type": "function"
    },
    {
      "inputs": [
        {
          "internalType": "address",
          "name": "_to",
          "type": "address"
        }
      ],
      "name": "withdraw",
      "outputs": [],
      "stateMutability": "nonpayable",
      "type": "function"
    },
    {
      "inputs": [
        {
          "internalType": "uint256",
          "name": "count",
          "type": "uint256"
        }
      ],
      "name": "setStepsCount",
      "outputs": [],
      "stateMutability": "nonpayable",
      "type": "function"
    },
    {
      "inputs": [
        {
          "internalType": "string",
          "name": "_name",
          "type": "string"
        },
        {
          "internalType": "uint256",
          "name": "_amount",
          "type": "uint256"
        }
      ],
      "name": "createRoom",
      "outputs": [],
      "stateMutability": "nonpayable",
      "type": "function"
    },
    {
      "inputs": [],
      "name": "getCurrentRoom",
      "outputs": [
        {
          "components": [
            {
              "internalType": "uint256",
              "name": "id",
              "type": "uint256"
            },
            {
              "internalType": "uint256",
              "name": "price",
              "type": "uint256"
            },
            {
              "internalType": "uint256",
              "name": "bank",
              "type": "uint256"
            },
            {
              "internalType": "uint256",
              "name": "steps",
              "type": "uint256"
            },
            {
              "internalType": "uint256",
              "name": "step",
              "type": "uint256"
            },
            {
              "internalType": "bool",
              "name": "active",
              "type": "bool"
            },
            {
              "internalType": "uint256",
              "name": "lastActionTime",
              "type": "uint256"
            },
            {
              "internalType": "address[]",
              "name": "chairs",
              "type": "address[]"
            },
            {
              "internalType": "string[]",
              "name": "names",
              "type": "string[]"
            }
          ],
          "internalType": "struct MagicRoom.Room",
          "name": "room",
          "type": "tuple"
        }
      ],
      "stateMutability": "view",
      "type": "function",
      "constant": true
    },
    {
      "inputs": [
        {
          "internalType": "string",
          "name": "_name",
          "type": "string"
        },
        {
          "internalType": "uint256",
          "name": "_amount",
          "type": "uint256"
        }
      ],
      "name": "enterToRoom",
      "outputs": [],
      "stateMutability": "nonpayable",
      "type": "function"
    }
  ],
  "bytecode": "0x608060405260008055604051806101400160405280600d60ff168152602001600360ff168152602001600360ff168152602001600360ff168152602001600d60ff168152602001600d60ff168152602001600d60ff168152602001600d60ff168152602001600d60ff168152602001600d60ff16815250600190600a6200008892919062000262565b5060405180608001604052806001815260200160328152602001601c815260200160148152506004600082015181600001556020820151816001015560408201518160020155606082015181600301555050670de0b6b3a764000060085560006009556000600b5562015180600c553480156200010457600080fd5b5060405162003f3938038062003f3983398181016040528101906200012a919062000342565b806200014b6200013f6200019460201b60201c565b6200019c60201b60201c565b80600360006101000a81548173ffffffffffffffffffffffffffffffffffffffff021916908373ffffffffffffffffffffffffffffffffffffffff160217905550505062000374565b600033905090565b6000600260009054906101000a900473ffffffffffffffffffffffffffffffffffffffff16905081600260006101000a81548173ffffffffffffffffffffffffffffffffffffffff021916908373ffffffffffffffffffffffffffffffffffffffff1602179055508173ffffffffffffffffffffffffffffffffffffffff168173ffffffffffffffffffffffffffffffffffffffff167f8be0079c531659141344cd1fd0a4f28419497f9722a3daafe3b4186f6b6457e060405160405180910390a35050565b828054828255906000526020600020908101928215620002a6579160200282015b82811115620002a5578251829060ff1690559160200191906001019062000283565b5b509050620002b59190620002b9565b5090565b5b80821115620002d4576000816000905550600101620002ba565b5090565b600080fd5b600073ffffffffffffffffffffffffffffffffffffffff82169050919050565b60006200030a82620002dd565b9050919050565b6200031c81620002fd565b81146200032857600080fd5b50565b6000815190506200033c8162000311565b92915050565b6000602082840312156200035b576200035a620002d8565b5b60006200036b848285016200032b565b91505092915050565b613bb580620003846000396000f3fe608060405234801561001057600080fd5b50600436106100b45760003560e01c806385be784e1161007157806385be784e1461016b5780638b1b94a7146101875780638da5cb5b146101a55780638fc5d866146101c3578063aa749eb3146101e4578063f2fde38b14610214576100b4565b80631bae0ac8146100b95780632db4f279146100ef57806351cff8d91461010b5780635f8d172114610127578063715018a614610143578063722713f71461014d575b600080fd5b6100d360048036038101906100ce9190612762565b610230565b6040516100e697969594939291906127b9565b60405180910390f35b6101096004803603810190610104919061288d565b61027f565b005b6101256004803603810190610120919061294b565b61033f565b005b610141600480360381019061013c9190612762565b6103d2565b005b61014b61046e565b005b6101556104f6565b6040516101629190612978565b60405180910390f35b6101856004803603810190610180919061288d565b61057c565b005b61018f610881565b60405161019c9190612c96565b60405180910390f35b6101ad610a73565b6040516101ba9190612cc7565b60405180910390f35b6101cb610a9d565b6040516101db9493929190612ce2565b60405180910390f35b6101fe60048036038101906101f99190612d27565b610ac9565b60405161020b9190612978565b60405180910390f35b61022e6004803603810190610229919061294b565b610b47565b005b600a6020528060005260406000206000915090508060000154908060010154908060020154908060030154908060040154908060050160009054906101000a900460ff16908060060154905087565b828260148282905011156102c8576040517f08c379a00000000000000000000000000000000000000000000000000000000081526004016102bf90612dc4565b60405180910390fd5b6102d0610c3e565b61030f576040517f08c379a000000000000000000000000000000000000000000000000000000000815260040161030690612e30565b60405180910390fd5b610317610ca7565b1561032557610324610d12565b5b61032d61105f565b610338858585611276565b5050505050565b610347611b1b565b73ffffffffffffffffffffffffffffffffffffffff16610365610a73565b73ffffffffffffffffffffffffffffffffffffffff16146103bb576040517f08c379a00000000000000000000000000000000000000000000000000000000081526004016103b290612e9c565b60405180910390fd5b6103c781600954611b23565b600060098190555050565b6103da611b1b565b73ffffffffffffffffffffffffffffffffffffffff166103f8610a73565b73ffffffffffffffffffffffffffffffffffffffff161461044e576040517f08c379a000000000000000000000000000000000000000000000000000000000815260040161044590612e9c565b60405180910390fd5b80600a6000600b5481526020019081526020016000206003018190555050565b610476611b1b565b73ffffffffffffffffffffffffffffffffffffffff16610494610a73565b73ffffffffffffffffffffffffffffffffffffffff16146104ea576040517f08c379a00000000000000000000000000000000000000000000000000000000081526004016104e190612e9c565b60405180910390fd5b6104f46000611bc8565b565b6000610500611b1b565b73ffffffffffffffffffffffffffffffffffffffff1661051e610a73565b73ffffffffffffffffffffffffffffffffffffffff1614610574576040517f08c379a000000000000000000000000000000000000000000000000000000000815260040161056b90612e9c565b60405180910390fd5b600954905090565b828260148282905011156105c5576040517f08c379a00000000000000000000000000000000000000000000000000000000081526004016105bc90612dc4565b60405180910390fd5b6105cd611c8e565b61060c576040517f08c379a000000000000000000000000000000000000000000000000000000000815260040161060390612f08565b60405180910390fd5b826000600a6000600b5481526020019081526020016000206040518061012001604052908160008201548152602001600182015481526020016002820154815260200160038201548152602001600482015481526020016005820160009054906101000a900460ff16151515158152602001600682015481526020016007820180548060200260200160405190810160405280929190818152602001828054801561070c57602002820191906000526020600020905b8160009054906101000a900473ffffffffffffffffffffffffffffffffffffffff1673ffffffffffffffffffffffffffffffffffffffff16815260200190600101908083116106c2575b5050505050815260200160088201805480602002602001604051908101604052809291908181526020016000905b828210156107e657838290600052602060002001805461075990612f57565b80601f016020809104026020016040519081016040528092919081815260200182805461078590612f57565b80156107d25780601f106107a7576101008083540402835291602001916107d2565b820191906000526020600020905b8154815290600101906020018083116107b557829003601f168201915b50505050508152602001906001019061073a565b50505050815250509050600060085482602001516108049190612fb7565b9050808310158160405160200161081b91906130ab565b6040516020818303038152906040529061086b576040517f08c379a0000000000000000000000000000000000000000000000000000000008152600401610862919061310a565b60405180910390fd5b50610877888888611276565b5050505050505050565b6108896124e3565b6000600a6000600b5481526020019081526020016000206040518061012001604052908160008201548152602001600182015481526020016002820154815260200160038201548152602001600482015481526020016005820160009054906101000a900460ff16151515158152602001600682015481526020016007820180548060200260200160405190810160405280929190818152602001828054801561098857602002820191906000526020600020905b8160009054906101000a900473ffffffffffffffffffffffffffffffffffffffff1673ffffffffffffffffffffffffffffffffffffffff168152602001906001019080831161093e575b5050505050815260200160088201805480602002602001604051908101604052809291908181526020016000905b82821015610a625783829060005260206000200180546109d590612f57565b80601f0160208091040260200160405190810160405280929190818152602001828054610a0190612f57565b8015610a4e5780601f10610a2357610100808354040283529160200191610a4e565b820191906000526020600020905b815481529060010190602001808311610a3157829003601f168201915b5050505050815260200190600101906109b6565b505050508152505090508091505090565b6000600260009054906101000a900473ffffffffffffffffffffffffffffffffffffffff16905090565b600080600080600460000154600460010154600460020154600460030154935093509350935090919293565b6000806000815480929190610add9061312c565b91905055508260018484610af19190613174565b610afb9190612fb7565b4233600054604051602001610b12939291906131f0565b6040516020818303038152906040528051906020012060001c610b35919061325c565b610b3f9190612fb7565b905092915050565b610b4f611b1b565b73ffffffffffffffffffffffffffffffffffffffff16610b6d610a73565b73ffffffffffffffffffffffffffffffffffffffff1614610bc3576040517f08c379a0000000000000000000000000000000000000000000000000000000008152600401610bba90612e9c565b60405180910390fd5b600073ffffffffffffffffffffffffffffffffffffffff168173ffffffffffffffffffffffffffffffffffffffff1603610c32576040517f08c379a0000000000000000000000000000000000000000000000000000000008152600401610c29906132ff565b60405180910390fd5b610c3b81611bc8565b50565b600080600b541480610c735750600a6000600b54815260200190815260200160002060050160009054906101000a900460ff16155b80610ca2575042600c54600a6000600b54815260200190815260200160002060060154610ca09190612fb7565b105b905090565b600080600b5414158015610cdd5750600a6000600b54815260200190815260200160002060050160009054906101000a900460ff165b8015610d0d575042600c54600a6000600b54815260200190815260200160002060060154610d0b9190612fb7565b105b905090565b6000600a6000600b54815260200190815260200160002090506000610dbe82600701805480602002602001604051908101604052809291908181526020018280548015610db457602002820191906000526020600020905b8160009054906101000a900473ffffffffffffffffffffffffffffffffffffffff1673ffffffffffffffffffffffffffffffffffffffff1681526020019060010190808311610d6a575b5050505050611cf9565b90506000818360020154610dd2919061331f565b905060005b8360070180549050811015610ffd57600073ffffffffffffffffffffffffffffffffffffffff16846007018281548110610e1457610e13613350565b5b9060005260206000200160009054906101000a900473ffffffffffffffffffffffffffffffffffffffff1673ffffffffffffffffffffffffffffffffffffffff1614610fea5760006040518060400160405280866007018481548110610e7d57610e7c613350565b5b9060005260206000200160009054906101000a900473ffffffffffffffffffffffffffffffffffffffff1673ffffffffffffffffffffffffffffffffffffffff168152602001866008018481548110610ed957610ed8613350565b5b906000526020600020018054610eee90612f57565b80601f0160208091040260200160405190810160405280929190818152602001828054610f1a90612f57565b8015610f675780601f10610f3c57610100808354040283529160200191610f67565b820191906000526020600020905b815481529060010190602001808311610f4a57829003601f168201915b5050505050815250905060006040518060600160405280838152602001848152602001858152509050610fa282600001518260400151611b23565b7f3613fabf6fc435a84d1c4464ad68dfcf90a2ecb0b6c84bee641028a370b03999428760000154886004015484604051610fdf949392919061340c565b60405180910390a150505b8080610ff59061312c565b915050610dd7565b5060008360050160006101000a81548160ff0219169083151502179055507f4c536fd1e1e568a756991aa569a445d002f327eed825ab91e42da06a41a5d1a542846000015485604051611052939291906137f1565b60405180910390a1505050565b600061106e60646107d0610ac9565b9050600b60008154809291906110839061312c565b91905055506000600a67ffffffffffffffff8111156110a5576110a461382f565b5b6040519080825280602002602001820160405280156110d35781602001602082028036833780820191505090505b5090506000600a67ffffffffffffffff8111156110f3576110f261382f565b5b60405190808252806020026020018201604052801561112657816020015b60608152602001906001900390816111115790505b509050604051806101200160405280600b54815260200160008152602001600081526020018481526020016000815260200160011515815260200142815260200183815260200182815250600a6000600b548152602001908152602001600020600082015181600001556020820151816001015560408201518160020155606082015181600301556080820151816004015560a08201518160050160006101000a81548160ff02191690831515021790555060c0820151816006015560e08201518160070190805190602001906111fe929190612531565b5061010082015181600801908051906020019061121c9291906125bb565b509050507fd0bfa42bb2bf31a3dd263ec57f37346ecea2558b4273db9e941855d1ced89eaf42600b54600a6000600b54815260200190815260200160002060405161126993929190613976565b60405180910390a1505050565b806000600a6000600b5481526020019081526020016000206040518061012001604052908160008201548152602001600182015481526020016002820154815260200160038201548152602001600482015481526020016005820160009054906101000a900460ff16151515158152602001600682015481526020016007820180548060200260200160405190810160405280929190818152602001828054801561137657602002820191906000526020600020905b8160009054906101000a900473ffffffffffffffffffffffffffffffffffffffff1673ffffffffffffffffffffffffffffffffffffffff168152602001906001019080831161132c575b5050505050815260200160088201805480602002602001604051908101604052809291908181526020016000905b828210156114505783829060005260206000200180546113c390612f57565b80601f01602080910402602001604051908101604052809291908181526020018280546113ef90612f57565b801561143c5780601f106114115761010080835404028352916020019161143c565b820191906000526020600020905b81548152906001019060200180831161141f57829003601f168201915b5050505050815260200190600101906113a4565b505050508152505090506000600854826020015161146e9190612fb7565b9050808310158160405160200161148591906130ab565b604051602081830303815290604052906114d5576040517f08c379a00000000000000000000000000000000000000000000000000000000081526004016114cc919061310a565b60405180910390fd5b506000600a6000600b5481526020019081526020016000209050600060405180604001604052803373ffffffffffffffffffffffffffffffffffffffff16815260200189898080601f016020809104026020016040519081016040528093929190818152602001838380828437600081840152601f19601f820116905080830192505050505050508152509050600061158260006001856007018054905061157d9190613174565b610ac9565b905060006116178460070180548060200260200160405190810160405280929190818152602001828054801561160d57602002820191906000526020600020905b8160009054906101000a900473ffffffffffffffffffffffffffffffffffffffff1673ffffffffffffffffffffffffffffffffffffffff16815260200190600101908083116115c3575b5050505050611cf9565b90506000806000806116288c611d86565b93509350935093506116398c611e27565b87600401600081548092919061164e9061312c565b91905055504288600601819055508b8860010181905550806009546116739190612fb7565b600981905550600073ffffffffffffffffffffffffffffffffffffffff168860070187815481106116a7576116a6613350565b5b9060005260206000200160009054906101000a900473ffffffffffffffffffffffffffffffffffffffff1673ffffffffffffffffffffffffffffffffffffffff16036117005781836116f99190612fb7565b92506118d6565b6118d5886040518061012001604052908160008201548152602001600182015481526020016002820154815260200160038201548152602001600482015481526020016005820160009054906101000a900460ff1615151515815260200160068201548152602001600782018054806020026020016040519081016040528092919081815260200182805480156117ec57602002820191906000526020600020905b8160009054906101000a900473ffffffffffffffffffffffffffffffffffffffff1673ffffffffffffffffffffffffffffffffffffffff16815260200190600101908083116117a2575b5050505050815260200160088201805480602002602001604051908101604052809291908181526020016000905b828210156118c657838290600052602060002001805461183990612f57565b80601f016020809104026020016040519081016040528092919081815260200182805461186590612f57565b80156118b25780601f10611887576101008083540402835291602001916118b2565b820191906000526020600020905b81548152906001019060200180831161189557829003601f168201915b50505050508152602001906001019061181a565b50505050815250508784611ecd565b5b600085036118f15783836118ea9190612fb7565b9250611ad1565b611ad0886040518061012001604052908160008201548152602001600182015481526020016002820154815260200160038201548152602001600482015481526020016005820160009054906101000a900460ff1615151515815260200160068201548152602001600782018054806020026020016040519081016040528092919081815260200182805480156119dd57602002820191906000526020600020905b8160009054906101000a900473ffffffffffffffffffffffffffffffffffffffff1673ffffffffffffffffffffffffffffffffffffffff1681526020019060010190808311611993575b5050505050815260200160088201805480602002602001604051908101604052809291908181526020016000905b82821015611ab7578382906000526020600020018054611a2a90612f57565b80601f0160208091040260200160405190810160405280929190818152602001828054611a5690612f57565b8015611aa35780601f10611a7857610100808354040283529160200191611aa3565b820191906000526020600020905b815481529060010190602001808311611a8657829003601f168201915b505050505081526020019060010190611a0b565b50505050815250508686611acb919061331f565b612003565b5b828860020154611ae19190612fb7565b8860020181905550611af38888612162565b8760040154886003015403611b0b57611b0a610d12565b5b5050505050505050505050505050565b600033905090565b600360009054906101000a900473ffffffffffffffffffffffffffffffffffffffff1673ffffffffffffffffffffffffffffffffffffffff1663a9059cbb83836040518363ffffffff1660e01b8152600401611b809291906139b4565b6020604051808303816000875af1158015611b9f573d6000803e3d6000fd5b505050506040513d601f19601f82011682018060405250810190611bc39190613a09565b505050565b6000600260009054906101000a900473ffffffffffffffffffffffffffffffffffffffff16905081600260006101000a81548173ffffffffffffffffffffffffffffffffffffffff021916908373ffffffffffffffffffffffffffffffffffffffff1602179055508173ffffffffffffffffffffffffffffffffffffffff168173ffffffffffffffffffffffffffffffffffffffff167f8be0079c531659141344cd1fd0a4f28419497f9722a3daafe3b4186f6b6457e060405160405180910390a35050565b600080600b5414158015611cc45750600a6000600b54815260200190815260200160002060050160009054906101000a900460ff165b8015611cf4575042600c54600a6000600b54815260200190815260200160002060060154611cf29190612fb7565b115b905090565b6000806000905060005b8351811015611d7c57600073ffffffffffffffffffffffffffffffffffffffff16848281518110611d3757611d36613350565b5b602002602001015173ffffffffffffffffffffffffffffffffffffffff1614611d69578180611d659061312c565b9250505b8080611d749061312c565b915050611d03565b5080915050919050565b6000806000806000606460046001015487611da19190613a36565b611dab919061331f565b90506000606460046003015488611dc29190613a36565b611dcc919061331f565b90506000606460046002015489611de39190613a36565b611ded919061331f565b9050600060646004600001548a611e049190613a36565b611e0e919061331f565b9050838383839750975097509750505050509193509193565b600360009054906101000a900473ffffffffffffffffffffffffffffffffffffffff1673ffffffffffffffffffffffffffffffffffffffff166323b872dd3330846040518463ffffffff1660e01b8152600401611e8693929190613a90565b6020604051808303816000875af1158015611ea5573d6000803e3d6000fd5b505050506040513d601f19601f82011682018060405250810190611ec99190613a09565b5050565b60008360e001518381518110611ee657611ee5613350565b5b60200260200101519050600073ffffffffffffffffffffffffffffffffffffffff168173ffffffffffffffffffffffffffffffffffffffff1614158015611f2d5750600082115b15611ffd57600060405180604001604052808373ffffffffffffffffffffffffffffffffffffffff1681526020018661010001518681518110611f7357611f72613350565b5b6020026020010151815250905060006040518060600160405280838152602001868152602001858152509050611fb58160000151600001518260400151611b23565b7f83fc380a9d5549514bdd6f9eb1c0614f21442b80e7f0bb6bcd23f0c6decd7fc9428760000151886080015184604051611ff2949392919061340c565b60405180910390a150505b50505050565b60005b8260e001515181101561215d57600073ffffffffffffffffffffffffffffffffffffffff168360e00151828151811061204257612041613350565b5b602002602001015173ffffffffffffffffffffffffffffffffffffffff161461214a57600060405180604001604052808560e00151848151811061208957612088613350565b5b602002602001015173ffffffffffffffffffffffffffffffffffffffff16815260200185610100015184815181106120c4576120c3613350565b5b602002602001015181525090506000604051806060016040528083815260200184815260200185815250905061210282600001518260400151611b23565b7f8fd618cbe5cbf53112cc78a83d24e8e86e458bd853c2984d93b8aaf56af93d2942866000015187608001518460405161213f949392919061340c565b60405180910390a150505b80806121559061312c565b915050612006565b505050565b600061216c61238e565b90506000604051806040016040528085600701848154811061219157612190613350565b5b9060005260206000200160009054906101000a900473ffffffffffffffffffffffffffffffffffffffff1673ffffffffffffffffffffffffffffffffffffffff1681526020018560080184815481106121ed576121ec613350565b5b90600052602060002001805461220290612f57565b80601f016020809104026020016040519081016040528092919081815260200182805461222e90612f57565b801561227b5780601f106122505761010080835404028352916020019161227b565b820191906000526020600020905b81548152906001019060200180831161225e57829003601f168201915b505050505081525090506000604051806060016040528085815260200183815260200184815250905083600001518560070184815481106122bf576122be613350565b5b9060005260206000200160006101000a81548173ffffffffffffffffffffffffffffffffffffffff021916908373ffffffffffffffffffffffffffffffffffffffff160217905550836020015185600801848154811061232257612321613350565b5b90600052602060002001908051906020019061233f92919061261b565b507fb60711d72e2238cb0a59f954dc67bc8c4c4ea86080c6dc849e7eda235d8b12934286600001548760040154848960405161237f959493929190613b1e565b60405180910390a15050505050565b60006123e960018054806020026020016040519081016040528092919081815260200182805480156123df57602002820191906000526020600020905b8154815260200190600101908083116123cb575b50505050506123ee565b905090565b60008060009050600080806000905060005b86518110156124445786818151811061241c5761241b613350565b5b60200260200101518561242f9190612fb7565b9450808061243c9061312c565b915050612400565b50612450600185610ac9565b915060005b86518110156124d6578383118015612492575086818151811061247b5761247a613350565b5b60200260200101518461248e9190612fb7565b8311155b1561249b578091505b8681815181106124ae576124ad613350565b5b6020026020010151846124c19190612fb7565b935080806124ce9061312c565b915050612455565b5080945050505050919050565b60405180610120016040528060008152602001600081526020016000815260200160008152602001600081526020016000151581526020016000815260200160608152602001606081525090565b8280548282559060005260206000209081019282156125aa579160200282015b828111156125a95782518260006101000a81548173ffffffffffffffffffffffffffffffffffffffff021916908373ffffffffffffffffffffffffffffffffffffffff16021790555091602001919060010190612551565b5b5090506125b791906126a1565b5090565b82805482825590600052602060002090810192821561260a579160200282015b828111156126095782518290805190602001906125f992919061261b565b50916020019190600101906125db565b5b50905061261791906126be565b5090565b82805461262790612f57565b90600052602060002090601f0160209004810192826126495760008555612690565b82601f1061266257805160ff1916838001178555612690565b82800160010185558215612690579182015b8281111561268f578251825591602001919060010190612674565b5b50905061269d91906126a1565b5090565b5b808211156126ba5760008160009055506001016126a2565b5090565b5b808211156126de57600081816126d591906126e2565b506001016126bf565b5090565b5080546126ee90612f57565b6000825580601f10612700575061271f565b601f01602090049060005260206000209081019061271e91906126a1565b5b50565b600080fd5b600080fd5b6000819050919050565b61273f8161272c565b811461274a57600080fd5b50565b60008135905061275c81612736565b92915050565b60006020828403121561277857612777612722565b5b60006127868482850161274d565b91505092915050565b6127988161272c565b82525050565b60008115159050919050565b6127b38161279e565b82525050565b600060e0820190506127ce600083018a61278f565b6127db602083018961278f565b6127e8604083018861278f565b6127f5606083018761278f565b612802608083018661278f565b61280f60a08301856127aa565b61281c60c083018461278f565b98975050505050505050565b600080fd5b600080fd5b600080fd5b60008083601f84011261284d5761284c612828565b5b8235905067ffffffffffffffff81111561286a5761286961282d565b5b60208301915083600182028301111561288657612885612832565b5b9250929050565b6000806000604084860312156128a6576128a5612722565b5b600084013567ffffffffffffffff8111156128c4576128c3612727565b5b6128d086828701612837565b935093505060206128e38682870161274d565b9150509250925092565b600073ffffffffffffffffffffffffffffffffffffffff82169050919050565b6000612918826128ed565b9050919050565b6129288161290d565b811461293357600080fd5b50565b6000813590506129458161291f565b92915050565b60006020828403121561296157612960612722565b5b600061296f84828501612936565b91505092915050565b600060208201905061298d600083018461278f565b92915050565b61299c8161272c565b82525050565b6129ab8161279e565b82525050565b600081519050919050565b600082825260208201905092915050565b6000819050602082019050919050565b6129e68161290d565b82525050565b60006129f883836129dd565b60208301905092915050565b6000602082019050919050565b6000612a1c826129b1565b612a2681856129bc565b9350612a31836129cd565b8060005b83811015612a62578151612a4988826129ec565b9750612a5483612a04565b925050600181019050612a35565b5085935050505092915050565b600081519050919050565b600082825260208201905092915050565b6000819050602082019050919050565b600081519050919050565b600082825260208201905092915050565b60005b83811015612ad5578082015181840152602081019050612aba565b83811115612ae4576000848401525b50505050565b6000601f19601f8301169050919050565b6000612b0682612a9b565b612b108185612aa6565b9350612b20818560208601612ab7565b612b2981612aea565b840191505092915050565b6000612b408383612afb565b905092915050565b6000602082019050919050565b6000612b6082612a6f565b612b6a8185612a7a565b935083602082028501612b7c85612a8b565b8060005b85811015612bb85784840389528151612b998582612b34565b9450612ba483612b48565b925060208a01995050600181019050612b80565b50829750879550505050505092915050565b600061012083016000830151612be36000860182612993565b506020830151612bf66020860182612993565b506040830151612c096040860182612993565b506060830151612c1c6060860182612993565b506080830151612c2f6080860182612993565b5060a0830151612c4260a08601826129a2565b5060c0830151612c5560c0860182612993565b5060e083015184820360e0860152612c6d8282612a11565b915050610100830151848203610100860152612c898282612b55565b9150508091505092915050565b60006020820190508181036000830152612cb08184612bca565b905092915050565b612cc18161290d565b82525050565b6000602082019050612cdc6000830184612cb8565b92915050565b6000608082019050612cf7600083018761278f565b612d04602083018661278f565b612d11604083018561278f565b612d1e606083018461278f565b95945050505050565b60008060408385031215612d3e57612d3d612722565b5b6000612d4c8582860161274d565b9250506020612d5d8582860161274d565b9150509250929050565b600082825260208201905092915050565b7f6d6178206c656e67746820323020636861726163746572730000000000000000600082015250565b6000612dae601883612d67565b9150612db982612d78565b602082019050919050565b60006020820190508181036000830152612ddd81612da1565b9050919050565b7f746865726520697320616e2061637469766520726f6f6d000000000000000000600082015250565b6000612e1a601783612d67565b9150612e2582612de4565b602082019050919050565b60006020820190508181036000830152612e4981612e0d565b9050919050565b7f4f776e61626c653a2063616c6c6572206973206e6f7420746865206f776e6572600082015250565b6000612e86602083612d67565b9150612e9182612e50565b602082019050919050565b60006020820190508181036000830152612eb581612e79565b9050919050565b7f6e6f2061637469766520726f6f6d000000000000000000000000000000000000600082015250565b6000612ef2600e83612d67565b9150612efd82612ebc565b602082019050919050565b60006020820190508181036000830152612f2181612ee5565b9050919050565b7f4e487b7100000000000000000000000000000000000000000000000000000000600052602260045260246000fd5b60006002820490506001821680612f6f57607f821691505b602082108103612f8257612f81612f28565b5b50919050565b7f4e487b7100000000000000000000000000000000000000000000000000000000600052601160045260246000fd5b6000612fc28261272c565b9150612fcd8361272c565b9250827fffffffffffffffffffffffffffffffffffffffffffffffffffffffffffffffff0382111561300257613001612f88565b5b828201905092915050565b600081905092915050565b7f616d6f756e74206d7573742062652067726561746572207468616e206f72206560008201527f7175616c20746f20000000000000000000000000000000000000000000000000602082015250565b600061307460288361300d565b915061307f82613018565b602882019050919050565b6000819050919050565b6130a56130a08261272c565b61308a565b82525050565b60006130b682613067565b91506130c28284613094565b60208201915081905092915050565b60006130dc82612a9b565b6130e68185612d67565b93506130f6818560208601612ab7565b6130ff81612aea565b840191505092915050565b6000602082019050818103600083015261312481846130d1565b905092915050565b60006131378261272c565b91507fffffffffffffffffffffffffffffffffffffffffffffffffffffffffffffffff820361316957613168612f88565b5b600182019050919050565b600061317f8261272c565b915061318a8361272c565b92508282101561319d5761319c612f88565b5b828203905092915050565b60008160601b9050919050565b60006131c0826131a8565b9050919050565b60006131d2826131b5565b9050919050565b6131ea6131e58261290d565b6131c7565b82525050565b60006131fc8286613094565b60208201915061320c82856131d9565b60148201915061321c8284613094565b602082019150819050949350505050565b7f4e487b7100000000000000000000000000000000000000000000000000000000600052601260045260246000fd5b60006132678261272c565b91506132728361272c565b9250826132825761328161322d565b5b828206905092915050565b7f4f776e61626c653a206e6577206f776e657220697320746865207a65726f206160008201527f6464726573730000000000000000000000000000000000000000000000000000602082015250565b60006132e9602683612d67565b91506132f48261328d565b604082019050919050565b60006020820190508181036000830152613318816132dc565b9050919050565b600061332a8261272c565b91506133358361272c565b9250826133455761334461322d565b5b828204905092915050565b7f4e487b7100000000000000000000000000000000000000000000000000000000600052603260045260246000fd5b600060408301600083015161339760008601826129dd565b50602083015184820360208601526133af8282612afb565b9150508091505092915050565b600060608301600083015184820360008601526133d9828261337f565b91505060208301516133ee6020860182612993565b5060408301516134016040860182612993565b508091505092915050565b6000608082019050613421600083018761278f565b61342e602083018661278f565b61343b604083018561278f565b818103606083015261344d81846133bc565b905095945050505050565b60008160001c9050919050565b6000819050919050565b600061348261347d83613458565b613465565b9050919050565b600060ff82169050919050565b60006134a96134a483613458565b613489565b9050919050565b600081549050919050565b60008190508160005260206000209050919050565b600073ffffffffffffffffffffffffffffffffffffffff82169050919050565b60006135036134fe83613458565b6134d0565b9050919050565b600061351682546134f0565b9050919050565b6000600182019050919050565b6000613535826134b0565b61353f81856129bc565b935061354a836134bb565b8060005b838110156135825761355f8261350a565b61356988826129ec565b97506135748361351d565b92505060018101905061354e565b5085935050505092915050565b600081549050919050565b60008190508160005260206000209050919050565b60008190508160005260206000209050919050565b600081546135d181612f57565b6135db8186612aa6565b945060018216600081146135f657600181146136085761363b565b60ff198316865260208601935061363b565b613611856135af565b60005b8381101561363357815481890152600182019150602081019050613614565b808801955050505b50505092915050565b600061365083836135c4565b905092915050565b6000600182019050919050565b60006136708261358f565b61367a8185612a7a565b93508360208202850161368c8561359a565b8060005b858110156136c7578484038952816136a88582613644565b94506136b383613658565b925060208a01995050600181019050613690565b50829750879550505050505092915050565b6000610120830160008084015490506136f18161346f565b6136fe6000870182612993565b506001840154905061370f8161346f565b61371c6020870182612993565b506002840154905061372d8161346f565b61373a6040870182612993565b506003840154905061374b8161346f565b6137586060870182612993565b50600484015490506137698161346f565b6137766080870182612993565b506005840154905061378781613496565b61379460a08701826129a2565b50600684015490506137a58161346f565b6137b260c0870182612993565b506007840185830360e08701526137c9838261352a565b925050600884018583036101008701526137e38382613665565b925050819250505092915050565b6000606082019050613806600083018661278f565b613813602083018561278f565b818103604083015261382581846136d9565b9050949350505050565b7f4e487b7100000000000000000000000000000000000000000000000000000000600052604160045260246000fd5b6000610120830160008084015490506138768161346f565b6138836000870182612993565b50600184015490506138948161346f565b6138a16020870182612993565b50600284015490506138b28161346f565b6138bf6040870182612993565b50600384015490506138d08161346f565b6138dd6060870182612993565b50600484015490506138ee8161346f565b6138fb6080870182612993565b506005840154905061390c81613496565b61391960a08701826129a2565b506006840154905061392a8161346f565b61393760c0870182612993565b506007840185830360e087015261394e838261352a565b925050600884018583036101008701526139688382613665565b925050819250505092915050565b600060608201905061398b600083018661278f565b613998602083018561278f565b81810360408301526139aa818461385e565b9050949350505050565b60006040820190506139c96000830185612cb8565b6139d6602083018461278f565b9392505050565b6139e68161279e565b81146139f157600080fd5b50565b600081519050613a03816139dd565b92915050565b600060208284031215613a1f57613a1e612722565b5b6000613a2d848285016139f4565b91505092915050565b6000613a418261272c565b9150613a4c8361272c565b9250817fffffffffffffffffffffffffffffffffffffffffffffffffffffffffffffffff0483118215151615613a8557613a84612f88565b5b828202905092915050565b6000606082019050613aa56000830186612cb8565b613ab26020830185612cb8565b613abf604083018461278f565b949350505050565b60006060830160008301518482036000860152613ae4828261337f565b91505060208301518482036020860152613afe828261337f565b9150506040830151613b136040860182612993565b508091505092915050565b600060a082019050613b33600083018861278f565b613b40602083018761278f565b613b4d604083018661278f565b8181036060830152613b5f8185613ac7565b90508181036080830152613b7381846136d9565b9050969550505050505056fea2646970667358221220876a06f19375b501f88a5332e074ac5d0195b517f6fceb490f313979fd74a35e64736f6c634300080d0033",
  "immutableReferences": {},
  "source": "pragma solidity ^0.8.0;\n\nimport \"./randomize.sol\";\nimport \"./tokenomic.sol\";\n\ncontract MagicRoom is Randomize, Tokenomic {\n  mapping(uint256 => Room) public rooms;\n  uint roomCount = 0;\n  uint idleTime = 1 days;\n\n  constructor(address _tokenAddress) Tokenomic(_tokenAddress) {}\n\n  event StartRoom(uint256 timestamp, uint roomId, Room room);\n  event FinishRoom(uint256 timestamp, uint roomId, Room room);\n  event Vip(uint256 timestamp, uint roomId, uint step, RewardInfo reward);\n  event Reward(uint256 timestamp, uint roomId, uint step, RewardInfo reward);\n  event Winner(uint256 timestamp, uint roomId, uint step, RewardInfo reward);\n  event ChangeChair(uint256 timestamp, uint roomId, uint step, ChairChangesInfo chairChanges, Room room);\n\n  struct Room {\n    uint id;\n    uint price;\n    uint bank;\n    uint steps;\n    uint step;\n    bool active;\n    uint lastActionTime;\n    address[] chairs;\n    string[] names;\n  }\n\n  struct RewardInfo {\n    Member member;\n    uint index;\n    uint value;\n  }\n\n  struct Member {\n    address account;\n    string name;\n  }\n\n  struct ChairChangesInfo {\n    Member enter;\n    Member leave;\n    uint index;\n  }\n\n  modifier currentRoomIsNotActive () {\n    require(\n      _currentRoomIsNotActive(),\n      \"there is an active room\"\n    );\n    _;\n  }\n\n  modifier currentRoomIsActive () {\n    require(\n      _currentRoomIsActive(),\n      \"no active room\"\n    );\n    _;\n  }\n\n  modifier currentRoomIsActiveAndNot () {\n    require(\n      _currentRoomIsActive(),\n      \"no active room\"\n    );\n    _;\n  }\n\n  modifier availableAmount (uint _amount) {\n    Room memory room = rooms[roomCount];\n    uint min = room.price + minPrice;\n    require(_amount >= min, string(abi.encodePacked(\"amount must be greater than or equal to \", min)));\n    _;\n  }\n\n  modifier availableName (string calldata _name) {\n    require(bytes(_name).length <= 20, \"max length 20 characters\");\n    _;\n  }\n\n  function setStepsCount(uint count) external onlyOwner {\n    rooms[roomCount].steps = count;\n  }\n\n  function createRoom(string calldata _name, uint _amount) external availableName(_name) currentRoomIsNotActive {\n    if (_currentRoomIsDead()) {\n      _finishRoom();\n    }\n    _createRoom();\n    _enterToRoom(_name, _amount);\n  }\n\n  function getCurrentRoom() external view returns(Room memory room) {\n    Room memory room = rooms[roomCount];\n    return room;\n  }\n\n  function enterToRoom(string calldata _name, uint _amount) external availableName(_name) currentRoomIsActive availableAmount(_amount) {\n    _enterToRoom(_name, _amount);\n  }\n\n  function _currentRoomIsNotActive() private returns(bool) {\n    return (\n    roomCount == 0\n    || !rooms[roomCount].active\n    || rooms[roomCount].lastActionTime + idleTime < block.timestamp\n    );\n  }\n\n  function _currentRoomIsActive() private returns(bool) {\n    return (\n    roomCount != 0\n    && rooms[roomCount].active\n    && rooms[roomCount].lastActionTime + idleTime > block.timestamp\n    );\n  }\n\n  function _currentRoomIsDead() private returns(bool) {\n    return (\n    roomCount != 0\n    && rooms[roomCount].active\n    && rooms[roomCount].lastActionTime + idleTime < block.timestamp\n    );\n  }\n\n  function _createRoom () private {\n    uint steps = getRandomRange(100, 2000);\n    roomCount++;\n    address[] memory chairs = new address[](10);\n    string[] memory names = new string[](10);\n    rooms[roomCount] = Room(roomCount, 0, 0, steps, 0, true, block.timestamp, chairs, names);\n    emit StartRoom(block.timestamp, roomCount, rooms[roomCount]);\n  }\n\n  function _enterToRoom(string calldata _name, uint _amount) private availableAmount(_amount) {\n    Room storage room = rooms[roomCount];\n    Member memory enter = Member(msg.sender, _name);\n    uint vipChair = getRandomRange(0, room.chairs.length - 1);\n    uint rewardAddressCount = getValidAddressCount(room.chairs);\n    (uint rewards, uint winners, uint vip, uint fee) = getShares(_amount);\n\n    getTokens(_amount);\n\n    room.step++;\n    room.lastActionTime = block.timestamp;\n    room.price = _amount;\n    balance = balance + fee;\n\n    if (room.chairs[vipChair] == address(0)) {\n      winners = winners + vip;\n    } else {\n      _sendRewardToVip(room, vipChair, vip);\n    }\n    if (rewardAddressCount == 0) {\n      winners = winners + rewards;\n    } else {\n      _sendRewardToMembers(room, rewards / rewardAddressCount);\n    }\n\n    room.bank = room.bank + winners;\n    _changeChair(room, enter);\n\n    if (room.steps == room.step) {\n      _finishRoom();\n    }\n  }\n\n  function _changeChair(Room storage _room, Member memory enter) private {\n    uint index = getRandomChair();\n    Member memory leave = Member(_room.chairs[index], _room.names[index]);\n    ChairChangesInfo memory chairUpdate = ChairChangesInfo(enter, leave, index);\n    _room.chairs[index] = enter.account;\n    _room.names[index] = enter.name;\n    emit ChangeChair(block.timestamp, _room.id, _room.step, chairUpdate, _room);\n  }\n\n  function _sendRewardToVip(Room memory _room, uint _index, uint _amount) private {\n    address to = _room.chairs[_index];\n    if (to != address(0) && _amount > 0) {\n      Member memory member = Member(to, _room.names[_index]);\n      RewardInfo memory rewardInfo = RewardInfo(member, _index, _amount);\n      sendTokens(rewardInfo.member.account, rewardInfo.value);\n      emit Vip(block.timestamp, _room.id, _room.step, rewardInfo);\n    }\n  }\n\n  function _sendRewardToMembers(Room memory _room, uint _amount) private {\n    for (uint i = 0; i < _room.chairs.length; i++) {\n      if (_room.chairs[i] != address(0)) {\n        Member memory member = Member(_room.chairs[i], _room.names[i]);\n        RewardInfo memory rewardInfo = RewardInfo(member, i, _amount);\n        sendTokens(member.account, rewardInfo.value);\n        emit Reward(block.timestamp, _room.id, _room.step, rewardInfo);\n      }\n    }\n  }\n\n  function _finishRoom() private {\n    Room storage room = rooms[roomCount];\n    uint rewardAddressCount = getValidAddressCount(room.chairs);\n    uint bankRewardPerChair = room.bank / rewardAddressCount;\n\n    for (uint i = 0; i < room.chairs.length; i++) {\n      if (room.chairs[i] != address(0)) {\n        Member memory member = Member(room.chairs[i], room.names[i]);\n        RewardInfo memory rewardInfo = RewardInfo(member, i, bankRewardPerChair);\n        sendTokens(member.account, rewardInfo.value);\n        emit Winner(block.timestamp, room.id, room.step, rewardInfo);\n      }\n    }\n\n    room.active = false;\n    emit FinishRoom(block.timestamp, room.id, room);\n  }\n\n  function getValidAddressCount(address[] memory _addresses) internal returns(uint) {\n    uint counter = 0;\n    for (uint i = 0; i < _addresses.length; i++) {\n      if (_addresses[i] != address(0)) {\n        counter++;\n      }\n    }\n    return counter;\n  }\n\n}\n",
  "sourcePath": "/Users/sergeysavin/projects/magic-room/contract/contracts/MagicRoom.sol",
  "compiler": {
    "name": "solc",
    "version": "0.8.13+commit.abaa5c0e.Emscripten.clang"
  },
  "schemaVersion": "3.4.7",
  "updatedAt": "2022-05-20T10:40:39.163Z",
  "networkType": "ethereum",
  "devdoc": {
    "kind": "dev",
    "methods": {
      "owner()": {
        "details": "Returns the address of the current owner."
      },
      "renounceOwnership()": {
        "details": "Leaves the contract without owner. It will not be possible to call `onlyOwner` functions anymore. Can only be called by the current owner. NOTE: Renouncing ownership will leave the contract without an owner, thereby removing any functionality that is only available to the owner."
      },
      "transferOwnership(address)": {
        "details": "Transfers ownership of the contract to a new account (`newOwner`). Can only be called by the current owner."
      }
    },
    "version": 1
  },
  "userdoc": {
    "kind": "user",
    "methods": {},
    "version": 1
  }
}