{
  "contractName": "MagicRoom",
  "abi": [
    {
      "inputs": [
        {
          "internalType": "address",
          "name": "_tokenAddress",
          "type": "address"
        }
      ],
      "stateMutability": "nonpayable",
      "type": "constructor"
    },
    {
      "anonymous": false,
      "inputs": [
        {
          "indexed": false,
          "internalType": "uint256",
          "name": "timestamp",
          "type": "uint256"
        },
        {
          "indexed": false,
          "internalType": "uint256",
          "name": "roomId",
          "type": "uint256"
        },
        {
          "indexed": false,
          "internalType": "uint256",
          "name": "step",
          "type": "uint256"
        },
        {
          "components": [
            {
              "internalType": "address",
              "name": "enter",
              "type": "address"
            },
            {
              "internalType": "address",
              "name": "leave",
              "type": "address"
            },
            {
              "internalType": "uint256",
              "name": "index",
              "type": "uint256"
            }
          ],
          "indexed": false,
          "internalType": "struct MagicRoom.ChairChangesInfo",
          "name": "chairChanges",
          "type": "tuple"
        },
        {
          "components": [
            {
              "internalType": "uint256",
              "name": "id",
              "type": "uint256"
            },
            {
              "internalType": "uint256",
              "name": "price",
              "type": "uint256"
            },
            {
              "internalType": "uint256",
              "name": "bank",
              "type": "uint256"
            },
            {
              "internalType": "uint256",
              "name": "steps",
              "type": "uint256"
            },
            {
              "internalType": "uint256",
              "name": "step",
              "type": "uint256"
            },
            {
              "internalType": "bool",
              "name": "active",
              "type": "bool"
            },
            {
              "internalType": "uint256",
              "name": "lastActionTime",
              "type": "uint256"
            },
            {
              "internalType": "address[]",
              "name": "chairs",
              "type": "address[]"
            }
          ],
          "indexed": false,
          "internalType": "struct MagicRoom.Room",
          "name": "room",
          "type": "tuple"
        }
      ],
      "name": "ChangeChair",
      "type": "event"
    },
    {
      "anonymous": false,
      "inputs": [
        {
          "indexed": false,
          "internalType": "uint256",
          "name": "timestamp",
          "type": "uint256"
        },
        {
          "indexed": false,
          "internalType": "uint256",
          "name": "roomId",
          "type": "uint256"
        },
        {
          "components": [
            {
              "internalType": "uint256",
              "name": "id",
              "type": "uint256"
            },
            {
              "internalType": "uint256",
              "name": "price",
              "type": "uint256"
            },
            {
              "internalType": "uint256",
              "name": "bank",
              "type": "uint256"
            },
            {
              "internalType": "uint256",
              "name": "steps",
              "type": "uint256"
            },
            {
              "internalType": "uint256",
              "name": "step",
              "type": "uint256"
            },
            {
              "internalType": "bool",
              "name": "active",
              "type": "bool"
            },
            {
              "internalType": "uint256",
              "name": "lastActionTime",
              "type": "uint256"
            },
            {
              "internalType": "address[]",
              "name": "chairs",
              "type": "address[]"
            }
          ],
          "indexed": false,
          "internalType": "struct MagicRoom.Room",
          "name": "room",
          "type": "tuple"
        }
      ],
      "name": "FinishRoom",
      "type": "event"
    },
    {
      "anonymous": false,
      "inputs": [
        {
          "indexed": true,
          "internalType": "address",
          "name": "previousOwner",
          "type": "address"
        },
        {
          "indexed": true,
          "internalType": "address",
          "name": "newOwner",
          "type": "address"
        }
      ],
      "name": "OwnershipTransferred",
      "type": "event"
    },
    {
      "anonymous": false,
      "inputs": [
        {
          "indexed": false,
          "internalType": "uint256",
          "name": "timestamp",
          "type": "uint256"
        },
        {
          "indexed": false,
          "internalType": "uint256",
          "name": "roomId",
          "type": "uint256"
        },
        {
          "indexed": false,
          "internalType": "uint256",
          "name": "step",
          "type": "uint256"
        },
        {
          "components": [
            {
              "internalType": "address",
              "name": "to",
              "type": "address"
            },
            {
              "internalType": "uint256",
              "name": "index",
              "type": "uint256"
            },
            {
              "internalType": "uint256",
              "name": "value",
              "type": "uint256"
            }
          ],
          "indexed": false,
          "internalType": "struct MagicRoom.RewardInfo",
          "name": "reward",
          "type": "tuple"
        }
      ],
      "name": "Reward",
      "type": "event"
    },
    {
      "anonymous": false,
      "inputs": [
        {
          "indexed": false,
          "internalType": "uint256",
          "name": "timestamp",
          "type": "uint256"
        },
        {
          "indexed": false,
          "internalType": "uint256",
          "name": "roomId",
          "type": "uint256"
        },
        {
          "components": [
            {
              "internalType": "uint256",
              "name": "id",
              "type": "uint256"
            },
            {
              "internalType": "uint256",
              "name": "price",
              "type": "uint256"
            },
            {
              "internalType": "uint256",
              "name": "bank",
              "type": "uint256"
            },
            {
              "internalType": "uint256",
              "name": "steps",
              "type": "uint256"
            },
            {
              "internalType": "uint256",
              "name": "step",
              "type": "uint256"
            },
            {
              "internalType": "bool",
              "name": "active",
              "type": "bool"
            },
            {
              "internalType": "uint256",
              "name": "lastActionTime",
              "type": "uint256"
            },
            {
              "internalType": "address[]",
              "name": "chairs",
              "type": "address[]"
            }
          ],
          "indexed": false,
          "internalType": "struct MagicRoom.Room",
          "name": "room",
          "type": "tuple"
        }
      ],
      "name": "StartRoom",
      "type": "event"
    },
    {
      "anonymous": false,
      "inputs": [
        {
          "indexed": false,
          "internalType": "uint256",
          "name": "timestamp",
          "type": "uint256"
        },
        {
          "indexed": false,
          "internalType": "uint256",
          "name": "roomId",
          "type": "uint256"
        },
        {
          "indexed": false,
          "internalType": "uint256",
          "name": "step",
          "type": "uint256"
        },
        {
          "components": [
            {
              "internalType": "address",
              "name": "to",
              "type": "address"
            },
            {
              "internalType": "uint256",
              "name": "index",
              "type": "uint256"
            },
            {
              "internalType": "uint256",
              "name": "value",
              "type": "uint256"
            }
          ],
          "indexed": false,
          "internalType": "struct MagicRoom.RewardInfo",
          "name": "reward",
          "type": "tuple"
        }
      ],
      "name": "Vip",
      "type": "event"
    },
    {
      "anonymous": false,
      "inputs": [
        {
          "indexed": false,
          "internalType": "uint256",
          "name": "timestamp",
          "type": "uint256"
        },
        {
          "indexed": false,
          "internalType": "uint256",
          "name": "roomId",
          "type": "uint256"
        },
        {
          "indexed": false,
          "internalType": "uint256",
          "name": "step",
          "type": "uint256"
        },
        {
          "components": [
            {
              "internalType": "address",
              "name": "to",
              "type": "address"
            },
            {
              "internalType": "uint256",
              "name": "index",
              "type": "uint256"
            },
            {
              "internalType": "uint256",
              "name": "value",
              "type": "uint256"
            }
          ],
          "indexed": false,
          "internalType": "struct MagicRoom.RewardInfo",
          "name": "reward",
          "type": "tuple"
        }
      ],
      "name": "Winner",
      "type": "event"
    },
    {
      "inputs": [],
      "name": "balanceOf",
      "outputs": [
        {
          "internalType": "uint256",
          "name": "",
          "type": "uint256"
        }
      ],
      "stateMutability": "view",
      "type": "function"
    },
    {
      "inputs": [
        {
          "internalType": "uint256",
          "name": "_min",
          "type": "uint256"
        },
        {
          "internalType": "uint256",
          "name": "_max",
          "type": "uint256"
        }
      ],
      "name": "getRandomRange",
      "outputs": [
        {
          "internalType": "uint256",
          "name": "",
          "type": "uint256"
        }
      ],
      "stateMutability": "nonpayable",
      "type": "function"
    },
    {
      "inputs": [],
      "name": "getTokenimic",
      "outputs": [
        {
          "internalType": "uint256",
          "name": "fee",
          "type": "uint256"
        },
        {
          "internalType": "uint256",
          "name": "reward",
          "type": "uint256"
        },
        {
          "internalType": "uint256",
          "name": "vip",
          "type": "uint256"
        },
        {
          "internalType": "uint256",
          "name": "winners",
          "type": "uint256"
        }
      ],
      "stateMutability": "view",
      "type": "function"
    },
    {
      "inputs": [],
      "name": "owner",
      "outputs": [
        {
          "internalType": "address",
          "name": "",
          "type": "address"
        }
      ],
      "stateMutability": "view",
      "type": "function"
    },
    {
      "inputs": [],
      "name": "renounceOwnership",
      "outputs": [],
      "stateMutability": "nonpayable",
      "type": "function"
    },
    {
      "inputs": [
        {
          "internalType": "address",
          "name": "newOwner",
          "type": "address"
        }
      ],
      "name": "transferOwnership",
      "outputs": [],
      "stateMutability": "nonpayable",
      "type": "function"
    },
    {
      "inputs": [
        {
          "internalType": "address",
          "name": "_to",
          "type": "address"
        }
      ],
      "name": "withdraw",
      "outputs": [],
      "stateMutability": "nonpayable",
      "type": "function"
    },
    {
      "inputs": [
        {
          "internalType": "uint256",
          "name": "_amount",
          "type": "uint256"
        }
      ],
      "name": "createRoom",
      "outputs": [],
      "stateMutability": "nonpayable",
      "type": "function"
    },
    {
      "inputs": [],
      "name": "getCurrentRoom",
      "outputs": [
        {
          "components": [
            {
              "internalType": "uint256",
              "name": "id",
              "type": "uint256"
            },
            {
              "internalType": "uint256",
              "name": "price",
              "type": "uint256"
            },
            {
              "internalType": "uint256",
              "name": "bank",
              "type": "uint256"
            },
            {
              "internalType": "uint256",
              "name": "steps",
              "type": "uint256"
            },
            {
              "internalType": "uint256",
              "name": "step",
              "type": "uint256"
            },
            {
              "internalType": "bool",
              "name": "active",
              "type": "bool"
            },
            {
              "internalType": "uint256",
              "name": "lastActionTime",
              "type": "uint256"
            },
            {
              "internalType": "address[]",
              "name": "chairs",
              "type": "address[]"
            }
          ],
          "internalType": "struct MagicRoom.Room",
          "name": "room",
          "type": "tuple"
        }
      ],
      "stateMutability": "view",
      "type": "function"
    },
    {
      "inputs": [
        {
          "internalType": "uint256",
          "name": "_amount",
          "type": "uint256"
        }
      ],
      "name": "enterToRoom",
      "outputs": [],
      "stateMutability": "nonpayable",
      "type": "function"
    }
  ],
  "bytecode": "0x608060405260008055604051806101400160405280600d60ff168152602001600360ff168152602001600360ff168152602001600360ff168152602001600d60ff168152602001600d60ff168152602001600d60ff168152602001600d60ff168152602001600d60ff168152602001600d60ff16815250600190600a620000889291906200025d565b5060405180608001604052806001815260200160328152602001601c815260200160148152506004600082015181600001556020820151816001015560408201518160020155606082015181600301555050670de0b6b3a7640000600855600060095562015180600b55348015620000ff57600080fd5b50604051620030ec380380620030ec83398181016040528101906200012591906200033d565b80620001466200013a6200018f60201b60201c565b6200019760201b60201c565b80600360006101000a81548173ffffffffffffffffffffffffffffffffffffffff021916908373ffffffffffffffffffffffffffffffffffffffff16021790555050506200036f565b600033905090565b6000600260009054906101000a900473ffffffffffffffffffffffffffffffffffffffff16905081600260006101000a81548173ffffffffffffffffffffffffffffffffffffffff021916908373ffffffffffffffffffffffffffffffffffffffff1602179055508173ffffffffffffffffffffffffffffffffffffffff168173ffffffffffffffffffffffffffffffffffffffff167f8be0079c531659141344cd1fd0a4f28419497f9722a3daafe3b4186f6b6457e060405160405180910390a35050565b828054828255906000526020600020908101928215620002a1579160200282015b82811115620002a0578251829060ff169055916020019190600101906200027e565b5b509050620002b09190620002b4565b5090565b5b80821115620002cf576000816000905550600101620002b5565b5090565b600080fd5b600073ffffffffffffffffffffffffffffffffffffffff82169050919050565b60006200030582620002d8565b9050919050565b6200031781620002f8565b81146200032357600080fd5b50565b60008151905062000337816200030c565b92915050565b600060208284031215620003565762000355620002d3565b5b6000620003668482850162000326565b91505092915050565b612d6d806200037f6000396000f3fe608060405234801561001057600080fd5b506004361061009e5760003560e01c80638da5cb5b116100665780638da5cb5b146101215780638fc5d8661461013f578063aa749eb314610160578063bbba825714610190578063f2fde38b146101ac5761009e565b80634267c9d5146100a357806351cff8d9146100bf578063715018a6146100db578063722713f7146100e55780638b1b94a714610103575b600080fd5b6100bd60048036038101906100b89190611e3d565b6101c8565b005b6100d960048036038101906100d49190611ec8565b6103c3565b005b6100e3610456565b005b6100ed6104de565b6040516100fa9190611f04565b60405180910390f35b61010b610564565b60405161011891906120b7565b60405180910390f35b61012961069b565b60405161013691906120e8565b60405180910390f35b6101476106c5565b6040516101579493929190612103565b60405180910390f35b61017a60048036038101906101759190612148565b6106f1565b6040516101879190611f04565b60405180910390f35b6101aa60048036038101906101a59190611e3d565b61076f565b005b6101c660048036038101906101c19190611ec8565b6107e0565b005b6101d06108d7565b61020f576040517f08c379a0000000000000000000000000000000000000000000000000000000008152600401610206906121e5565b60405180910390fd5b806000600a6001600a805490506102269190612234565b8154811061023757610236612268565b5b90600052602060002090600802016040518061010001604052908160008201548152602001600182015481526020016002820154815260200160038201548152602001600482015481526020016005820160009054906101000a900460ff16151515158152602001600682015481526020016007820180548060200260200160405190810160405280929190818152602001828054801561032d57602002820191906000526020600020905b8160009054906101000a900473ffffffffffffffffffffffffffffffffffffffff1673ffffffffffffffffffffffffffffffffffffffff16815260200190600101908083116102e3575b50505050508152505090506000600854826020015161034c9190612297565b90508083101581604051602001610363919061238b565b604051602081830303815290604052906103b3576040517f08c379a00000000000000000000000000000000000000000000000000000000081526004016103aa9190612439565b60405180910390fd5b506103bd84610981565b50505050565b6103cb610f60565b73ffffffffffffffffffffffffffffffffffffffff166103e961069b565b73ffffffffffffffffffffffffffffffffffffffff161461043f576040517f08c379a0000000000000000000000000000000000000000000000000000000008152600401610436906124a7565b60405180910390fd5b61044b81600954610f68565b600060098190555050565b61045e610f60565b73ffffffffffffffffffffffffffffffffffffffff1661047c61069b565b73ffffffffffffffffffffffffffffffffffffffff16146104d2576040517f08c379a00000000000000000000000000000000000000000000000000000000081526004016104c9906124a7565b60405180910390fd5b6104dc600061100d565b565b60006104e8610f60565b73ffffffffffffffffffffffffffffffffffffffff1661050661069b565b73ffffffffffffffffffffffffffffffffffffffff161461055c576040517f08c379a0000000000000000000000000000000000000000000000000000000008152600401610553906124a7565b60405180910390fd5b600954905090565b61056c611d14565b6000600a6001600a805490506105829190612234565b8154811061059357610592612268565b5b90600052602060002090600802016040518061010001604052908160008201548152602001600182015481526020016002820154815260200160038201548152602001600482015481526020016005820160009054906101000a900460ff16151515158152602001600682015481526020016007820180548060200260200160405190810160405280929190818152602001828054801561068957602002820191906000526020600020905b8160009054906101000a900473ffffffffffffffffffffffffffffffffffffffff1673ffffffffffffffffffffffffffffffffffffffff168152602001906001019080831161063f575b50505050508152505090508091505090565b6000600260009054906101000a900473ffffffffffffffffffffffffffffffffffffffff16905090565b600080600080600460000154600460010154600460020154600460030154935093509350935090919293565b6000806000815480929190610705906124c7565b919050555082600184846107199190612234565b6107239190612297565b423360005460405160200161073a93929190612557565b6040516020818303038152906040528051906020012060001c61075d91906125c3565b6107679190612297565b905092915050565b6107776110d3565b6107b6576040517f08c379a00000000000000000000000000000000000000000000000000000000081526004016107ad90612640565b60405180910390fd5b6107be61117b565b156107cc576107cb611225565b5b6107d46114ce565b6107dd81610981565b50565b6107e8610f60565b73ffffffffffffffffffffffffffffffffffffffff1661080661069b565b73ffffffffffffffffffffffffffffffffffffffff161461085c576040517f08c379a0000000000000000000000000000000000000000000000000000000008152600401610853906124a7565b60405180910390fd5b600073ffffffffffffffffffffffffffffffffffffffff168173ffffffffffffffffffffffffffffffffffffffff16036108cb576040517f08c379a00000000000000000000000000000000000000000000000000000000081526004016108c2906126d2565b60405180910390fd5b6108d48161100d565b50565b600080600a805490501415801561092e5750600a6001600a805490506108fd9190612234565b8154811061090e5761090d612268565b5b906000526020600020906008020160050160009054906101000a900460ff165b801561097c575042600b54600a6001600a8054905061094d9190612234565b8154811061095e5761095d612268565b5b90600052602060002090600802016006015461097a9190612297565b115b905090565b806000600a6001600a805490506109989190612234565b815481106109a9576109a8612268565b5b90600052602060002090600802016040518061010001604052908160008201548152602001600182015481526020016002820154815260200160038201548152602001600482015481526020016005820160009054906101000a900460ff161515151581526020016006820154815260200160078201805480602002602001604051908101604052809291908181526020018280548015610a9f57602002820191906000526020600020905b8160009054906101000a900473ffffffffffffffffffffffffffffffffffffffff1673ffffffffffffffffffffffffffffffffffffffff1681526020019060010190808311610a55575b505050505081525050905060006008548260200151610abe9190612297565b90508083101581604051602001610ad5919061238b565b60405160208183030381529060405290610b25576040517f08c379a0000000000000000000000000000000000000000000000000000000008152600401610b1c9190612439565b60405180910390fd5b50610b2f8461168a565b6000600a6001600a80549050610b459190612234565b81548110610b5657610b55612268565b5b906000526020600020906008020190506000610b86600060018460070180549050610b819190612234565b6106f1565b90506000610c1b83600701805480602002602001604051908101604052809291908181526020018280548015610c1157602002820191906000526020600020905b8160009054906101000a900473ffffffffffffffffffffffffffffffffffffffff1673ffffffffffffffffffffffffffffffffffffffff1681526020019060010190808311610bc7575b5050505050611730565b9050600080600080610c2c8b6117bd565b9350935093509350866004016000815480929190610c49906124c7565b91905055504287600601819055508a876001018190555080600954610c6e9190612297565b600981905550600073ffffffffffffffffffffffffffffffffffffffff16876007018781548110610ca257610ca1612268565b5b9060005260206000200160009054906101000a900473ffffffffffffffffffffffffffffffffffffffff1673ffffffffffffffffffffffffffffffffffffffff1603610cfb578183610cf49190612297565b9250610df8565b610df7876040518061010001604052908160008201548152602001600182015481526020016002820154815260200160038201548152602001600482015481526020016005820160009054906101000a900460ff161515151581526020016006820154815260200160078201805480602002602001604051908101604052809291908181526020018280548015610de757602002820191906000526020600020905b8160009054906101000a900473ffffffffffffffffffffffffffffffffffffffff1673ffffffffffffffffffffffffffffffffffffffff1681526020019060010190808311610d9d575b505050505081525050878461185e565b5b60008503610e13578383610e0c9190612297565b9250610f1a565b610f19876040518061010001604052908160008201548152602001600182015481526020016002820154815260200160038201548152602001600482015481526020016005820160009054906101000a900460ff161515151581526020016006820154815260200160078201805480602002602001604051908101604052809291908181526020018280548015610eff57602002820191906000526020600020905b8160009054906101000a900473ffffffffffffffffffffffffffffffffffffffff1673ffffffffffffffffffffffffffffffffffffffff1681526020019060010190808311610eb5575b5050505050815250508686610f1491906126f2565b611957565b5b828760020154610f2a9190612297565b8760020181905550610f3b87611a7d565b8660040154876003015403610f5357610f52611225565b5b5050505050505050505050565b600033905090565b600360009054906101000a900473ffffffffffffffffffffffffffffffffffffffff1673ffffffffffffffffffffffffffffffffffffffff1663a9059cbb83836040518363ffffffff1660e01b8152600401610fc5929190612723565b6020604051808303816000875af1158015610fe4573d6000803e3d6000fd5b505050506040513d601f19601f820116820180604052508101906110089190612778565b505050565b6000600260009054906101000a900473ffffffffffffffffffffffffffffffffffffffff16905081600260006101000a81548173ffffffffffffffffffffffffffffffffffffffff021916908373ffffffffffffffffffffffffffffffffffffffff1602179055508173ffffffffffffffffffffffffffffffffffffffff168173ffffffffffffffffffffffffffffffffffffffff167f8be0079c531659141344cd1fd0a4f28419497f9722a3daafe3b4186f6b6457e060405160405180910390a35050565b600080600a8054905014806111295750600a6001600a805490506110f79190612234565b8154811061110857611107612268565b5b906000526020600020906008020160050160009054906101000a900460ff16155b80611176575042600b54600a6001600a805490506111479190612234565b8154811061115857611157612268565b5b9060005260206000209060080201600601546111749190612297565b105b905090565b600080600a80549050141580156111d25750600a6001600a805490506111a19190612234565b815481106111b2576111b1612268565b5b906000526020600020906008020160050160009054906101000a900460ff165b8015611220575042600b54600a6001600a805490506111f19190612234565b8154811061120257611201612268565b5b90600052602060002090600802016006015461121e9190612297565b105b905090565b6000600a6001600a8054905061123b9190612234565b8154811061124c5761124b612268565b5b9060005260206000209060080201905060006112ef826007018054806020026020016040519081016040528092919081815260200182805480156112e557602002820191906000526020600020905b8160009054906101000a900473ffffffffffffffffffffffffffffffffffffffff1673ffffffffffffffffffffffffffffffffffffffff168152602001906001019080831161129b575b5050505050611730565b9050600081836002015461130391906126f2565b905060005b836007018054905081101561146c57600073ffffffffffffffffffffffffffffffffffffffff1684600701828154811061134557611344612268565b5b9060005260206000200160009054906101000a900473ffffffffffffffffffffffffffffffffffffffff1673ffffffffffffffffffffffffffffffffffffffff161461145957600060405180606001604052808660070184815481106113ae576113ad612268565b5b9060005260206000200160009054906101000a900473ffffffffffffffffffffffffffffffffffffffff1673ffffffffffffffffffffffffffffffffffffffff16815260200183815260200184815250905061141281600001518260400151610f68565b7fcd27098682432a8b6dc5d82b90f8f8cd56ac5caadb5787469f430b491929d59142866000015487600401548460405161144f94939291906127e7565b60405180910390a1505b8080611464906124c7565b915050611308565b5060008360050160006101000a81548160ff0219169083151502179055507fcd3bb52af17c8140c2491701c925511e20abfdb4a5e9d1fcff82c570dcb7a24e428460000154856040516114c193929190612a61565b60405180910390a1505050565b60006114dd60646107d06106f1565b905060006001600a805490506114f39190612297565b90506000600a67ffffffffffffffff81111561151257611511612a9f565b5b6040519080825280602002602001820160405280156115405781602001602082028036833780820191505090505b509050600a604051806101000160405280848152602001600081526020016000815260200185815260200160008152602001600115158152602001428152602001838152509080600181540180825580915050600190039060005260206000209060080201600090919091909150600082015181600001556020820151816001015560408201518160020155606082015181600301556080820151816004015560a08201518160050160006101000a81548160ff02191690831515021790555060c0820151816006015560e0820151816007019080519060200190611626929190611d5b565b5050507f31bda1b4aa9fe2a4aba545e72dd73650284ff7ecba4ffee2886504a10d50232e4283600a85815481106116605761165f612268565b5b906000526020600020906008020160405161167d93929190612bcc565b60405180910390a1505050565b600360009054906101000a900473ffffffffffffffffffffffffffffffffffffffff1673ffffffffffffffffffffffffffffffffffffffff166323b872dd3330846040518463ffffffff1660e01b81526004016116e993929190612c0a565b6020604051808303816000875af1158015611708573d6000803e3d6000fd5b505050506040513d601f19601f8201168201806040525081019061172c9190612778565b5050565b6000806000905060005b83518110156117b357600073ffffffffffffffffffffffffffffffffffffffff1684828151811061176e5761176d612268565b5b602002602001015173ffffffffffffffffffffffffffffffffffffffff16146117a057818061179c906124c7565b9250505b80806117ab906124c7565b91505061173a565b5080915050919050565b60008060008060006064600460010154876117d89190612c41565b6117e291906126f2565b905060006064600460030154886117f99190612c41565b61180391906126f2565b9050600060646004600201548961181a9190612c41565b61182491906126f2565b9050600060646004600001548a61183b9190612c41565b61184591906126f2565b9050838383839750975097509750505050509193509193565b60008360e00151838151811061187757611876612268565b5b60200260200101519050600073ffffffffffffffffffffffffffffffffffffffff168173ffffffffffffffffffffffffffffffffffffffff16141580156118be5750600082115b1561195157600060405180606001604052808373ffffffffffffffffffffffffffffffffffffffff16815260200185815260200184815250905061190a81600001518260400151610f68565b7f5c57279d8d3cb78caf82034d879f8018da3d4942de1005c4316a88607cf8d56042866000015187608001518460405161194794939291906127e7565b60405180910390a1505b50505050565b60005b8260e0015151811015611a7857600073ffffffffffffffffffffffffffffffffffffffff168360e00151828151811061199657611995612268565b5b602002602001015173ffffffffffffffffffffffffffffffffffffffff1614611a6557600060405180606001604052808560e0015184815181106119dd576119dc612268565b5b602002602001015173ffffffffffffffffffffffffffffffffffffffff168152602001838152602001848152509050611a1e81600001518260400151610f68565b7f25e0c37cc907ef4776b3f94966bd02513c721a2508dcd5579479054c713a7efa428560000151866080015184604051611a5b94939291906127e7565b60405180910390a1505b8080611a70906124c7565b91505061195a565b505050565b6000611a87611bbf565b9050600060405180606001604052803373ffffffffffffffffffffffffffffffffffffffff168152602001846007018481548110611ac857611ac7612268565b5b9060005260206000200160009054906101000a900473ffffffffffffffffffffffffffffffffffffffff1673ffffffffffffffffffffffffffffffffffffffff16815260200183815250905033836007018381548110611b2b57611b2a612268565b5b9060005260206000200160006101000a81548173ffffffffffffffffffffffffffffffffffffffff021916908373ffffffffffffffffffffffffffffffffffffffff1602179055507f060d5434d31ac41e6bd5cf3a7112f7fcf567c19c9aa3ea538154baa7232f25fa42846000015485600401548487604051611bb2959493929190612cdd565b60405180910390a1505050565b6000611c1a6001805480602002602001604051908101604052809291908181526020018280548015611c1057602002820191906000526020600020905b815481526020019060010190808311611bfc575b5050505050611c1f565b905090565b60008060009050600080806000905060005b8651811015611c7557868181518110611c4d57611c4c612268565b5b602002602001015185611c609190612297565b94508080611c6d906124c7565b915050611c31565b50611c816001856106f1565b915060005b8651811015611d07578383118015611cc35750868181518110611cac57611cab612268565b5b602002602001015184611cbf9190612297565b8311155b15611ccc578091505b868181518110611cdf57611cde612268565b5b602002602001015184611cf29190612297565b93508080611cff906124c7565b915050611c86565b5080945050505050919050565b604051806101000160405280600081526020016000815260200160008152602001600081526020016000815260200160001515815260200160008152602001606081525090565b828054828255906000526020600020908101928215611dd4579160200282015b82811115611dd35782518260006101000a81548173ffffffffffffffffffffffffffffffffffffffff021916908373ffffffffffffffffffffffffffffffffffffffff16021790555091602001919060010190611d7b565b5b509050611de19190611de5565b5090565b5b80821115611dfe576000816000905550600101611de6565b5090565b600080fd5b6000819050919050565b611e1a81611e07565b8114611e2557600080fd5b50565b600081359050611e3781611e11565b92915050565b600060208284031215611e5357611e52611e02565b5b6000611e6184828501611e28565b91505092915050565b600073ffffffffffffffffffffffffffffffffffffffff82169050919050565b6000611e9582611e6a565b9050919050565b611ea581611e8a565b8114611eb057600080fd5b50565b600081359050611ec281611e9c565b92915050565b600060208284031215611ede57611edd611e02565b5b6000611eec84828501611eb3565b91505092915050565b611efe81611e07565b82525050565b6000602082019050611f196000830184611ef5565b92915050565b611f2881611e07565b82525050565b60008115159050919050565b611f4381611f2e565b82525050565b600081519050919050565b600082825260208201905092915050565b6000819050602082019050919050565b611f7e81611e8a565b82525050565b6000611f908383611f75565b60208301905092915050565b6000602082019050919050565b6000611fb482611f49565b611fbe8185611f54565b9350611fc983611f65565b8060005b83811015611ffa578151611fe18882611f84565b9750611fec83611f9c565b925050600181019050611fcd565b5085935050505092915050565b6000610100830160008301516120206000860182611f1f565b5060208301516120336020860182611f1f565b5060408301516120466040860182611f1f565b5060608301516120596060860182611f1f565b50608083015161206c6080860182611f1f565b5060a083015161207f60a0860182611f3a565b5060c083015161209260c0860182611f1f565b5060e083015184820360e08601526120aa8282611fa9565b9150508091505092915050565b600060208201905081810360008301526120d18184612007565b905092915050565b6120e281611e8a565b82525050565b60006020820190506120fd60008301846120d9565b92915050565b60006080820190506121186000830187611ef5565b6121256020830186611ef5565b6121326040830185611ef5565b61213f6060830184611ef5565b95945050505050565b6000806040838503121561215f5761215e611e02565b5b600061216d85828601611e28565b925050602061217e85828601611e28565b9150509250929050565b600082825260208201905092915050565b7f6e6f2061637469766520726f6f6d000000000000000000000000000000000000600082015250565b60006121cf600e83612188565b91506121da82612199565b602082019050919050565b600060208201905081810360008301526121fe816121c2565b9050919050565b7f4e487b7100000000000000000000000000000000000000000000000000000000600052601160045260246000fd5b600061223f82611e07565b915061224a83611e07565b92508282101561225d5761225c612205565b5b828203905092915050565b7f4e487b7100000000000000000000000000000000000000000000000000000000600052603260045260246000fd5b60006122a282611e07565b91506122ad83611e07565b9250827fffffffffffffffffffffffffffffffffffffffffffffffffffffffffffffffff038211156122e2576122e1612205565b5b828201905092915050565b600081905092915050565b7f616d6f756e74206d7573742062652067726561746572207468616e206f72206560008201527f7175616c20746f20000000000000000000000000000000000000000000000000602082015250565b60006123546028836122ed565b915061235f826122f8565b602882019050919050565b6000819050919050565b61238561238082611e07565b61236a565b82525050565b600061239682612347565b91506123a28284612374565b60208201915081905092915050565b600081519050919050565b60005b838110156123da5780820151818401526020810190506123bf565b838111156123e9576000848401525b50505050565b6000601f19601f8301169050919050565b600061240b826123b1565b6124158185612188565b93506124258185602086016123bc565b61242e816123ef565b840191505092915050565b600060208201905081810360008301526124538184612400565b905092915050565b7f4f776e61626c653a2063616c6c6572206973206e6f7420746865206f776e6572600082015250565b6000612491602083612188565b915061249c8261245b565b602082019050919050565b600060208201905081810360008301526124c081612484565b9050919050565b60006124d282611e07565b91507fffffffffffffffffffffffffffffffffffffffffffffffffffffffffffffffff820361250457612503612205565b5b600182019050919050565b60008160601b9050919050565b60006125278261250f565b9050919050565b60006125398261251c565b9050919050565b61255161254c82611e8a565b61252e565b82525050565b60006125638286612374565b6020820191506125738285612540565b6014820191506125838284612374565b602082019150819050949350505050565b7f4e487b7100000000000000000000000000000000000000000000000000000000600052601260045260246000fd5b60006125ce82611e07565b91506125d983611e07565b9250826125e9576125e8612594565b5b828206905092915050565b7f746865726520697320616e2061637469766520726f6f6d000000000000000000600082015250565b600061262a601783612188565b9150612635826125f4565b602082019050919050565b600060208201905081810360008301526126598161261d565b9050919050565b7f4f776e61626c653a206e6577206f776e657220697320746865207a65726f206160008201527f6464726573730000000000000000000000000000000000000000000000000000602082015250565b60006126bc602683612188565b91506126c782612660565b604082019050919050565b600060208201905081810360008301526126eb816126af565b9050919050565b60006126fd82611e07565b915061270883611e07565b92508261271857612717612594565b5b828204905092915050565b600060408201905061273860008301856120d9565b6127456020830184611ef5565b9392505050565b61275581611f2e565b811461276057600080fd5b50565b6000815190506127728161274c565b92915050565b60006020828403121561278e5761278d611e02565b5b600061279c84828501612763565b91505092915050565b6060820160008201516127bb6000850182611f75565b5060208201516127ce6020850182611f1f565b5060408201516127e16040850182611f1f565b50505050565b600060c0820190506127fc6000830187611ef5565b6128096020830186611ef5565b6128166040830185611ef5565b61282360608301846127a5565b95945050505050565b60008160001c9050919050565b6000819050919050565b60006128566128518361282c565b612839565b9050919050565b600060ff82169050919050565b600061287d6128788361282c565b61285d565b9050919050565b600081549050919050565b60008190508160005260206000209050919050565b600073ffffffffffffffffffffffffffffffffffffffff82169050919050565b60006128d76128d28361282c565b6128a4565b9050919050565b60006128ea82546128c4565b9050919050565b6000600182019050919050565b600061290982612884565b6129138185611f54565b935061291e8361288f565b8060005b8381101561295657612933826128de565b61293d8882611f84565b9750612948836128f1565b925050600181019050612922565b5085935050505092915050565b60006101008301600080840154905061297b81612843565b6129886000870182611f1f565b506001840154905061299981612843565b6129a66020870182611f1f565b50600284015490506129b781612843565b6129c46040870182611f1f565b50600384015490506129d581612843565b6129e26060870182611f1f565b50600484015490506129f381612843565b612a006080870182611f1f565b5060058401549050612a118161286a565b612a1e60a0870182611f3a565b5060068401549050612a2f81612843565b612a3c60c0870182611f1f565b506007840185830360e0870152612a5383826128fe565b925050819250505092915050565b6000606082019050612a766000830186611ef5565b612a836020830185611ef5565b8181036040830152612a958184612963565b9050949350505050565b7f4e487b7100000000000000000000000000000000000000000000000000000000600052604160045260246000fd5b600061010083016000808401549050612ae681612843565b612af36000870182611f1f565b5060018401549050612b0481612843565b612b116020870182611f1f565b5060028401549050612b2281612843565b612b2f6040870182611f1f565b5060038401549050612b4081612843565b612b4d6060870182611f1f565b5060048401549050612b5e81612843565b612b6b6080870182611f1f565b5060058401549050612b7c8161286a565b612b8960a0870182611f3a565b5060068401549050612b9a81612843565b612ba760c0870182611f1f565b506007840185830360e0870152612bbe83826128fe565b925050819250505092915050565b6000606082019050612be16000830186611ef5565b612bee6020830185611ef5565b8181036040830152612c008184612ace565b9050949350505050565b6000606082019050612c1f60008301866120d9565b612c2c60208301856120d9565b612c396040830184611ef5565b949350505050565b6000612c4c82611e07565b9150612c5783611e07565b9250817fffffffffffffffffffffffffffffffffffffffffffffffffffffffffffffffff0483118215151615612c9057612c8f612205565b5b828202905092915050565b606082016000820151612cb16000850182611f75565b506020820151612cc46020850182611f75565b506040820151612cd76040850182611f1f565b50505050565b600060e082019050612cf26000830188611ef5565b612cff6020830187611ef5565b612d0c6040830186611ef5565b612d196060830185612c9b565b81810360c0830152612d2b8184612963565b9050969550505050505056fea2646970667358221220055aaa6fa227173e976ded4162c1a9ca8d1fe2a8f50b1254711c6bc95b0a8bdb64736f6c634300080d0033",
  "immutableReferences": {},
  "source": "pragma solidity ^0.8.0;\n\nimport \"./randomize.sol\";\nimport \"./tokenomic.sol\";\n\ncontract MagicRoom is Randomize, Tokenomic {\n  Room[] rooms;\n  uint idleTime = 1 days;\n\n  constructor(address _tokenAddress) Tokenomic(_tokenAddress) {}\n\n  event StartRoom(uint256 timestamp, uint roomId, Room room);\n  event FinishRoom(uint256 timestamp, uint roomId, Room room);\n  event Vip(uint256 timestamp, uint roomId, uint step, RewardInfo reward);\n  event Reward(uint256 timestamp, uint roomId, uint step, RewardInfo reward);\n  event Winner(uint256 timestamp, uint roomId, uint step, RewardInfo reward);\n  event ChangeChair(uint256 timestamp, uint roomId, uint step, ChairChangesInfo chairChanges, Room room);\n\n  struct Room {\n    uint id;\n    uint price;\n    uint bank;\n    uint steps;\n    uint step;\n    bool active;\n    uint lastActionTime;\n    address[] chairs;\n  }\n\n  struct RewardInfo {\n    address to;\n    uint index;\n    uint value;\n  }\n\n  struct ChairChangesInfo {\n    address enter;\n    address leave;\n    uint index;\n  }\n\n  modifier currentRoomIsNotActive () {\n    require(\n      _currentRoomIsNotActive(),\n      \"there is an active room\"\n    );\n    _;\n  }\n\n  modifier currentRoomIsActive () {\n    require(\n      _currentRoomIsActive(),\n      \"no active room\"\n    );\n    _;\n  }\n\n  modifier currentRoomIsActiveAndNot () {\n    require(\n      _currentRoomIsActive(),\n      \"no active room\"\n    );\n    _;\n  }\n\n  modifier availableAmount (uint _amount) {\n    Room memory room = rooms[rooms.length - 1];\n    uint min = room.price + minPrice;\n    require(_amount >= min, string(abi.encodePacked(\"amount must be greater than or equal to \", min)));\n    _;\n  }\n\n  function createRoom(uint _amount) external currentRoomIsNotActive {\n    if (_currentRoomIsDead()) {\n      _finishRoom();\n    }\n    _createRoom();\n    _enterToRoom(_amount);\n  }\n\n  function getCurrentRoom() external view returns(Room memory room) {\n    Room memory room = rooms[rooms.length - 1];\n    return room;\n  }\n\n  function enterToRoom(uint _amount) external currentRoomIsActive availableAmount(_amount) {\n    _enterToRoom(_amount);\n  }\n\n  function _currentRoomIsNotActive() private returns(bool) {\n    return (\n    rooms.length == 0\n    || !rooms[rooms.length - 1].active\n    || rooms[rooms.length - 1].lastActionTime + idleTime < block.timestamp\n    );\n  }\n\n  function _currentRoomIsActive() private returns(bool) {\n    return (\n    rooms.length != 0\n    && rooms[rooms.length - 1].active\n    && rooms[rooms.length - 1].lastActionTime + idleTime > block.timestamp\n    );\n  }\n\n  function _currentRoomIsDead() private returns(bool) {\n    return (\n    rooms.length != 0\n    && rooms[rooms.length - 1].active\n    && rooms[rooms.length - 1].lastActionTime + idleTime < block.timestamp\n    );\n  }\n\n  function _createRoom () private {\n    uint steps = getRandomRange(100, 2000);\n    uint id = rooms.length + 1;\n    address[] memory chairs = new address[](10);\n    rooms.push(Room(id, 0, 0, steps, 0, true, block.timestamp, chairs));\n    emit StartRoom(block.timestamp, id, rooms[id]);\n  }\n\n  function _enterToRoom(uint _amount) private availableAmount(_amount) {\n    getTokens(_amount);\n    Room storage room = rooms[rooms.length - 1];\n    uint vipChair = getRandomRange(0, room.chairs.length - 1);\n    uint rewardAddressCount = getValidAddressCount(room.chairs);\n    (uint rewards, uint winners, uint vip, uint fee) = getShares(_amount);\n\n    room.step++;\n    room.lastActionTime = block.timestamp;\n    room.price = _amount;\n    balance = balance + fee;\n\n    if (room.chairs[vipChair] == address(0)) {\n      winners = winners + vip;\n    } else {\n      _sendRewardToVip(room, vipChair, vip);\n    }\n    if (rewardAddressCount == 0) {\n      winners = winners + rewards;\n    } else {\n      _sendRewardToMembers(room, rewards / rewardAddressCount);\n    }\n\n    room.bank = room.bank + winners;\n    _changeChair(room);\n\n    if (room.steps == room.step) {\n      _finishRoom();\n    }\n  }\n\n  function _changeChair(Room storage _room) private {\n    uint index = getRandomChair();\n    ChairChangesInfo memory chairUpdate = ChairChangesInfo(msg.sender, _room.chairs[index], index);\n    _room.chairs[index] = msg.sender;\n    emit ChangeChair(block.timestamp, _room.id, _room.step, chairUpdate, _room);\n  }\n\n  function _sendRewardToVip(Room memory _room, uint _index, uint _amount) private {\n    address to = _room.chairs[_index];\n    if (to != address(0) && _amount > 0) {\n      RewardInfo memory rewardInfo = RewardInfo(to, _index, _amount);\n      sendTokens(rewardInfo.to, rewardInfo.value);\n      emit Vip(block.timestamp, _room.id, _room.step, rewardInfo);\n    }\n  }\n\n  function _sendRewardToMembers(Room memory _room, uint _amount) private {\n    for (uint i = 0; i < _room.chairs.length; i++) {\n      if (_room.chairs[i] != address(0)) {\n        RewardInfo memory rewardInfo = RewardInfo(_room.chairs[i], i, _amount);\n        sendTokens(rewardInfo.to, rewardInfo.value);\n        emit Reward(block.timestamp, _room.id, _room.step, rewardInfo);\n      }\n    }\n  }\n\n  function _finishRoom() private {\n    Room storage room = rooms[rooms.length - 1];\n    uint rewardAddressCount = getValidAddressCount(room.chairs);\n    uint bankRewardPerChair = room.bank / rewardAddressCount;\n\n    for (uint i = 0; i < room.chairs.length; i++) {\n      if (room.chairs[i] != address(0)) {\n        RewardInfo memory rewardInfo = RewardInfo(room.chairs[i], i, bankRewardPerChair);\n        sendTokens(rewardInfo.to, rewardInfo.value);\n        emit Winner(block.timestamp, room.id, room.step, rewardInfo);\n      }\n    }\n\n    room.active = false;\n\n    emit FinishRoom(block.timestamp, room.id, room);\n  }\n}\n",
  "sourcePath": "/Users/sergeysavin/projects/magic-room/contract/contracts/MagicRoom.sol",
  "compiler": {
    "name": "solc",
    "version": "0.8.13+commit.abaa5c0e.Emscripten.clang"
  },
  "schemaVersion": "3.4.7",
  "updatedAt": "2022-05-18T14:31:28.861Z",
  "devdoc": {
    "kind": "dev",
    "methods": {
      "owner()": {
        "details": "Returns the address of the current owner."
      },
      "renounceOwnership()": {
        "details": "Leaves the contract without owner. It will not be possible to call `onlyOwner` functions anymore. Can only be called by the current owner. NOTE: Renouncing ownership will leave the contract without an owner, thereby removing any functionality that is only available to the owner."
      },
      "transferOwnership(address)": {
        "details": "Transfers ownership of the contract to a new account (`newOwner`). Can only be called by the current owner."
      }
    },
    "version": 1
  },
  "userdoc": {
    "kind": "user",
    "methods": {},
    "version": 1
  }
}